{
	"contracts/FFPVoting.sol": {
		"VotingSystem": {
			"abi": [
				{
					"inputs": [],
					"stateMutability": "nonpayable",
					"type": "constructor"
				},
				{
					"anonymous": false,
					"inputs": [
						{
							"indexed": true,
							"internalType": "uint256",
							"name": "_candidateId",
							"type": "uint256"
						}
					],
					"name": "votedEvent",
					"type": "event"
				},
				{
					"inputs": [
						{
							"internalType": "uint256",
							"name": "",
							"type": "uint256"
						}
					],
					"name": "candidates",
					"outputs": [
						{
							"internalType": "uint256",
							"name": "id",
							"type": "uint256"
						},
						{
							"internalType": "string",
							"name": "name",
							"type": "string"
						},
						{
							"internalType": "uint256",
							"name": "voteCount",
							"type": "uint256"
						}
					],
					"stateMutability": "view",
					"type": "function"
				},
				{
					"inputs": [],
					"name": "candidatesCount",
					"outputs": [
						{
							"internalType": "uint256",
							"name": "",
							"type": "uint256"
						}
					],
					"stateMutability": "view",
					"type": "function"
				},
				{
					"inputs": [],
					"name": "electionEnded",
					"outputs": [
						{
							"internalType": "bool",
							"name": "",
							"type": "bool"
						}
					],
					"stateMutability": "view",
					"type": "function"
				},
				{
					"inputs": [],
					"name": "endElection",
					"outputs": [],
					"stateMutability": "nonpayable",
					"type": "function"
				},
				{
					"inputs": [],
					"name": "getWinner",
					"outputs": [
						{
							"internalType": "string",
							"name": "",
							"type": "string"
						}
					],
					"stateMutability": "view",
					"type": "function"
				},
				{
					"inputs": [
						{
							"internalType": "uint256",
							"name": "_candidateId",
							"type": "uint256"
						}
					],
					"name": "vote",
					"outputs": [],
					"stateMutability": "nonpayable",
					"type": "function"
				},
				{
					"inputs": [
						{
							"internalType": "address",
							"name": "",
							"type": "address"
						}
					],
					"name": "voters",
					"outputs": [
						{
							"internalType": "bool",
							"name": "",
							"type": "bool"
						}
					],
					"stateMutability": "view",
					"type": "function"
				},
				{
					"inputs": [],
					"name": "winnerID",
					"outputs": [
						{
							"internalType": "uint256",
							"name": "",
							"type": "uint256"
						}
					],
					"stateMutability": "view",
					"type": "function"
				}
			],
			"devdoc": {
				"kind": "dev",
				"methods": {},
				"version": 1
			},
			"evm": {
				"assembly": "    /* \"contracts/FFPVoting.sol\":57:1666  contract VotingSystem {... */\n  mstore(0x40, 0x80)\n    /* \"contracts/FFPVoting.sol\":428:554  constructor() {... */\n  callvalue\n  dup1\n  iszero\n  tag_1\n  jumpi\n  0x00\n  dup1\n  revert\ntag_1:\n  pop\n    /* \"contracts/FFPVoting.sol\":452:479  addCandidate(\"Candidate 1\") */\n  tag_4\n  mload(0x40)\n  dup1\n  0x40\n  add\n  0x40\n  mstore\n  dup1\n  0x0b\n  dup2\n  mstore\n  0x20\n  add\n  0x43616e6469646174652031000000000000000000000000000000000000000000\n  dup2\n  mstore\n  pop\n    /* \"contracts/FFPVoting.sol\":452:464  addCandidate */\n  shl(0x20, tag_5)\n    /* \"contracts/FFPVoting.sol\":452:479  addCandidate(\"Candidate 1\") */\n  0x20\n  shr\n  jump\t// in\ntag_4:\n    /* \"contracts/FFPVoting.sol\":489:516  addCandidate(\"Candidate 2\") */\n  tag_6\n  mload(0x40)\n  dup1\n  0x40\n  add\n  0x40\n  mstore\n  dup1\n  0x0b\n  dup2\n  mstore\n  0x20\n  add\n  0x43616e6469646174652032000000000000000000000000000000000000000000\n  dup2\n  mstore\n  pop\n    /* \"contracts/FFPVoting.sol\":489:501  addCandidate */\n  shl(0x20, tag_5)\n    /* \"contracts/FFPVoting.sol\":489:516  addCandidate(\"Candidate 2\") */\n  0x20\n  shr\n  jump\t// in\ntag_6:\n    /* \"contracts/FFPVoting.sol\":542:547  false */\n  0x00\n    /* \"contracts/FFPVoting.sol\":526:539  electionEnded */\n  0x04\n  0x00\n    /* \"contracts/FFPVoting.sol\":526:547  electionEnded = false */\n  0x0100\n  exp\n  dup2\n  sload\n  dup2\n  0xff\n  mul\n  not\n  and\n  swap1\n  dup4\n  iszero\n  iszero\n  mul\n  or\n  swap1\n  sstore\n  pop\n    /* \"contracts/FFPVoting.sol\":57:1666  contract VotingSystem {... */\n  jump(tag_7)\n    /* \"contracts/FFPVoting.sol\":560:721  function addCandidate(string memory _name) private {... */\ntag_5:\n    /* \"contracts/FFPVoting.sol\":621:636  candidatesCount */\n  0x02\n  0x00\n    /* \"contracts/FFPVoting.sol\":621:638  candidatesCount++ */\n  dup2\n  sload\n  dup1\n  swap3\n  swap2\n  swap1\n  tag_9\n  swap1\n  tag_10\n  jump\t// in\ntag_9:\n  swap2\n  swap1\n  pop\n  sstore\n  pop\n    /* \"contracts/FFPVoting.sol\":678:714  Candidate(candidatesCount, _name, 0) */\n  mload(0x40)\n  dup1\n  0x60\n  add\n  0x40\n  mstore\n  dup1\n    /* \"contracts/FFPVoting.sol\":688:703  candidatesCount */\n  sload(0x02)\n    /* \"contracts/FFPVoting.sol\":678:714  Candidate(candidatesCount, _name, 0) */\n  dup2\n  mstore\n  0x20\n  add\n    /* \"contracts/FFPVoting.sol\":705:710  _name */\n  dup3\n    /* \"contracts/FFPVoting.sol\":678:714  Candidate(candidatesCount, _name, 0) */\n  dup2\n  mstore\n  0x20\n  add\n    /* \"contracts/FFPVoting.sol\":712:713  0 */\n  0x00\n    /* \"contracts/FFPVoting.sol\":678:714  Candidate(candidatesCount, _name, 0) */\n  dup2\n  mstore\n  pop\n    /* \"contracts/FFPVoting.sol\":648:658  candidates */\n  0x00\n    /* \"contracts/FFPVoting.sol\":648:675  candidates[candidatesCount] */\n  dup1\n    /* \"contracts/FFPVoting.sol\":659:674  candidatesCount */\n  sload(0x02)\n    /* \"contracts/FFPVoting.sol\":648:675  candidates[candidatesCount] */\n  dup2\n  mstore\n  0x20\n  add\n  swap1\n  dup2\n  mstore\n  0x20\n  add\n  0x00\n  keccak256\n    /* \"contracts/FFPVoting.sol\":648:714  candidates[candidatesCount] = Candidate(candidatesCount, _name, 0) */\n  0x00\n  dup3\n  add\n  mload\n  dup2\n  0x00\n  add\n  sstore\n  0x20\n  dup3\n  add\n  mload\n  dup2\n  0x01\n  add\n  swap1\n  dup2\n  tag_11\n  swap2\n  swap1\n  tag_12\n  jump\t// in\ntag_11:\n  pop\n  0x40\n  dup3\n  add\n  mload\n  dup2\n  0x02\n  add\n  sstore\n  swap1\n  pop\n  pop\n    /* \"contracts/FFPVoting.sol\":560:721  function addCandidate(string memory _name) private {... */\n  pop\n  jump\t// out\n    /* \"#utility.yul\":7:187   */\ntag_13:\n    /* \"#utility.yul\":55:132   */\n  0x4e487b7100000000000000000000000000000000000000000000000000000000\n    /* \"#utility.yul\":52:53   */\n  0x00\n    /* \"#utility.yul\":45:133   */\n  mstore\n    /* \"#utility.yul\":152:156   */\n  0x11\n    /* \"#utility.yul\":149:150   */\n  0x04\n    /* \"#utility.yul\":142:157   */\n  mstore\n    /* \"#utility.yul\":176:180   */\n  0x24\n    /* \"#utility.yul\":173:174   */\n  0x00\n    /* \"#utility.yul\":166:181   */\n  revert\n    /* \"#utility.yul\":193:270   */\ntag_14:\n    /* \"#utility.yul\":230:237   */\n  0x00\n    /* \"#utility.yul\":259:264   */\n  dup2\n    /* \"#utility.yul\":248:264   */\n  swap1\n  pop\n    /* \"#utility.yul\":193:270   */\n  swap2\n  swap1\n  pop\n  jump\t// out\n    /* \"#utility.yul\":276:509   */\ntag_10:\n    /* \"#utility.yul\":315:318   */\n  0x00\n    /* \"#utility.yul\":338:362   */\n  tag_38\n    /* \"#utility.yul\":356:361   */\n  dup3\n    /* \"#utility.yul\":338:362   */\n  tag_14\n  jump\t// in\ntag_38:\n    /* \"#utility.yul\":329:362   */\n  swap2\n  pop\n    /* \"#utility.yul\":384:450   */\n  0xffffffffffffffffffffffffffffffffffffffffffffffffffffffffffffffff\n    /* \"#utility.yul\":377:382   */\n  dup3\n    /* \"#utility.yul\":374:451   */\n  sub\n    /* \"#utility.yul\":371:474   */\n  tag_39\n  jumpi\n    /* \"#utility.yul\":454:472   */\n  tag_40\n  tag_13\n  jump\t// in\ntag_40:\n    /* \"#utility.yul\":371:474   */\ntag_39:\n    /* \"#utility.yul\":501:502   */\n  0x01\n    /* \"#utility.yul\":494:499   */\n  dup3\n    /* \"#utility.yul\":490:503   */\n  add\n    /* \"#utility.yul\":483:503   */\n  swap1\n  pop\n    /* \"#utility.yul\":276:509   */\n  swap2\n  swap1\n  pop\n  jump\t// out\n    /* \"#utility.yul\":515:614   */\ntag_15:\n    /* \"#utility.yul\":567:573   */\n  0x00\n    /* \"#utility.yul\":601:606   */\n  dup2\n    /* \"#utility.yul\":595:607   */\n  mload\n    /* \"#utility.yul\":585:607   */\n  swap1\n  pop\n    /* \"#utility.yul\":515:614   */\n  swap2\n  swap1\n  pop\n  jump\t// out\n    /* \"#utility.yul\":620:800   */\ntag_16:\n    /* \"#utility.yul\":668:745   */\n  0x4e487b7100000000000000000000000000000000000000000000000000000000\n    /* \"#utility.yul\":665:666   */\n  0x00\n    /* \"#utility.yul\":658:746   */\n  mstore\n    /* \"#utility.yul\":765:769   */\n  0x41\n    /* \"#utility.yul\":762:763   */\n  0x04\n    /* \"#utility.yul\":755:770   */\n  mstore\n    /* \"#utility.yul\":789:793   */\n  0x24\n    /* \"#utility.yul\":786:787   */\n  0x00\n    /* \"#utility.yul\":779:794   */\n  revert\n    /* \"#utility.yul\":806:986   */\ntag_17:\n    /* \"#utility.yul\":854:931   */\n  0x4e487b7100000000000000000000000000000000000000000000000000000000\n    /* \"#utility.yul\":851:852   */\n  0x00\n    /* \"#utility.yul\":844:932   */\n  mstore\n    /* \"#utility.yul\":951:955   */\n  0x22\n    /* \"#utility.yul\":948:949   */\n  0x04\n    /* \"#utility.yul\":941:956   */\n  mstore\n    /* \"#utility.yul\":975:979   */\n  0x24\n    /* \"#utility.yul\":972:973   */\n  0x00\n    /* \"#utility.yul\":965:980   */\n  revert\n    /* \"#utility.yul\":992:1312   */\ntag_18:\n    /* \"#utility.yul\":1036:1042   */\n  0x00\n    /* \"#utility.yul\":1073:1074   */\n  0x02\n    /* \"#utility.yul\":1067:1071   */\n  dup3\n    /* \"#utility.yul\":1063:1075   */\n  div\n    /* \"#utility.yul\":1053:1075   */\n  swap1\n  pop\n    /* \"#utility.yul\":1120:1121   */\n  0x01\n    /* \"#utility.yul\":1114:1118   */\n  dup3\n    /* \"#utility.yul\":1110:1122   */\n  and\n    /* \"#utility.yul\":1141:1159   */\n  dup1\n    /* \"#utility.yul\":1131:1212   */\n  tag_45\n  jumpi\n    /* \"#utility.yul\":1197:1201   */\n  0x7f\n    /* \"#utility.yul\":1189:1195   */\n  dup3\n    /* \"#utility.yul\":1185:1202   */\n  and\n    /* \"#utility.yul\":1175:1202   */\n  swap2\n  pop\n    /* \"#utility.yul\":1131:1212   */\ntag_45:\n    /* \"#utility.yul\":1259:1261   */\n  0x20\n    /* \"#utility.yul\":1251:1257   */\n  dup3\n    /* \"#utility.yul\":1248:1262   */\n  lt\n    /* \"#utility.yul\":1228:1246   */\n  dup2\n    /* \"#utility.yul\":1225:1263   */\n  sub\n    /* \"#utility.yul\":1222:1306   */\n  tag_46\n  jumpi\n    /* \"#utility.yul\":1278:1296   */\n  tag_47\n  tag_17\n  jump\t// in\ntag_47:\n    /* \"#utility.yul\":1222:1306   */\ntag_46:\n    /* \"#utility.yul\":1043:1312   */\n  pop\n    /* \"#utility.yul\":992:1312   */\n  swap2\n  swap1\n  pop\n  jump\t// out\n    /* \"#utility.yul\":1318:1459   */\ntag_19:\n    /* \"#utility.yul\":1367:1371   */\n  0x00\n    /* \"#utility.yul\":1390:1393   */\n  dup2\n    /* \"#utility.yul\":1382:1393   */\n  swap1\n  pop\n    /* \"#utility.yul\":1413:1416   */\n  dup2\n    /* \"#utility.yul\":1410:1411   */\n  0x00\n    /* \"#utility.yul\":1403:1417   */\n  mstore\n    /* \"#utility.yul\":1447:1451   */\n  0x20\n    /* \"#utility.yul\":1444:1445   */\n  0x00\n    /* \"#utility.yul\":1434:1452   */\n  keccak256\n    /* \"#utility.yul\":1426:1452   */\n  swap1\n  pop\n    /* \"#utility.yul\":1318:1459   */\n  swap2\n  swap1\n  pop\n  jump\t// out\n    /* \"#utility.yul\":1465:1558   */\ntag_20:\n    /* \"#utility.yul\":1502:1508   */\n  0x00\n    /* \"#utility.yul\":1549:1551   */\n  0x20\n    /* \"#utility.yul\":1544:1546   */\n  0x1f\n    /* \"#utility.yul\":1537:1542   */\n  dup4\n    /* \"#utility.yul\":1533:1547   */\n  add\n    /* \"#utility.yul\":1529:1552   */\n  div\n    /* \"#utility.yul\":1519:1552   */\n  swap1\n  pop\n    /* \"#utility.yul\":1465:1558   */\n  swap2\n  swap1\n  pop\n  jump\t// out\n    /* \"#utility.yul\":1564:1671   */\ntag_21:\n    /* \"#utility.yul\":1608:1616   */\n  0x00\n    /* \"#utility.yul\":1658:1663   */\n  dup3\n    /* \"#utility.yul\":1652:1656   */\n  dup3\n    /* \"#utility.yul\":1648:1664   */\n  shl\n    /* \"#utility.yul\":1627:1664   */\n  swap1\n  pop\n    /* \"#utility.yul\":1564:1671   */\n  swap3\n  swap2\n  pop\n  pop\n  jump\t// out\n    /* \"#utility.yul\":1677:2070   */\ntag_22:\n    /* \"#utility.yul\":1746:1752   */\n  0x00\n    /* \"#utility.yul\":1796:1797   */\n  0x08\n    /* \"#utility.yul\":1784:1794   */\n  dup4\n    /* \"#utility.yul\":1780:1798   */\n  mul\n    /* \"#utility.yul\":1819:1916   */\n  tag_52\n    /* \"#utility.yul\":1849:1915   */\n  0xffffffffffffffffffffffffffffffffffffffffffffffffffffffffffffffff\n    /* \"#utility.yul\":1838:1847   */\n  dup3\n    /* \"#utility.yul\":1819:1916   */\n  tag_21\n  jump\t// in\ntag_52:\n    /* \"#utility.yul\":1937:1976   */\n  tag_53\n    /* \"#utility.yul\":1967:1975   */\n  dup7\n    /* \"#utility.yul\":1956:1965   */\n  dup4\n    /* \"#utility.yul\":1937:1976   */\n  tag_21\n  jump\t// in\ntag_53:\n    /* \"#utility.yul\":1925:1976   */\n  swap6\n  pop\n    /* \"#utility.yul\":2009:2013   */\n  dup1\n    /* \"#utility.yul\":2005:2014   */\n  not\n    /* \"#utility.yul\":1998:2003   */\n  dup5\n    /* \"#utility.yul\":1994:2015   */\n  and\n    /* \"#utility.yul\":1985:2015   */\n  swap4\n  pop\n    /* \"#utility.yul\":2058:2062   */\n  dup1\n    /* \"#utility.yul\":2048:2056   */\n  dup7\n    /* \"#utility.yul\":2044:2063   */\n  and\n    /* \"#utility.yul\":2037:2042   */\n  dup5\n    /* \"#utility.yul\":2034:2064   */\n  or\n    /* \"#utility.yul\":2024:2064   */\n  swap3\n  pop\n    /* \"#utility.yul\":1753:2070   */\n  pop\n  pop\n    /* \"#utility.yul\":1677:2070   */\n  swap4\n  swap3\n  pop\n  pop\n  pop\n  jump\t// out\n    /* \"#utility.yul\":2076:2136   */\ntag_23:\n    /* \"#utility.yul\":2104:2107   */\n  0x00\n    /* \"#utility.yul\":2125:2130   */\n  dup2\n    /* \"#utility.yul\":2118:2130   */\n  swap1\n  pop\n    /* \"#utility.yul\":2076:2136   */\n  swap2\n  swap1\n  pop\n  jump\t// out\n    /* \"#utility.yul\":2142:2284   */\ntag_24:\n    /* \"#utility.yul\":2192:2201   */\n  0x00\n    /* \"#utility.yul\":2225:2278   */\n  tag_56\n    /* \"#utility.yul\":2243:2277   */\n  tag_57\n    /* \"#utility.yul\":2252:2276   */\n  tag_58\n    /* \"#utility.yul\":2270:2275   */\n  dup5\n    /* \"#utility.yul\":2252:2276   */\n  tag_14\n  jump\t// in\ntag_58:\n    /* \"#utility.yul\":2243:2277   */\n  tag_23\n  jump\t// in\ntag_57:\n    /* \"#utility.yul\":2225:2278   */\n  tag_14\n  jump\t// in\ntag_56:\n    /* \"#utility.yul\":2212:2278   */\n  swap1\n  pop\n    /* \"#utility.yul\":2142:2284   */\n  swap2\n  swap1\n  pop\n  jump\t// out\n    /* \"#utility.yul\":2290:2365   */\ntag_25:\n    /* \"#utility.yul\":2333:2336   */\n  0x00\n    /* \"#utility.yul\":2354:2359   */\n  dup2\n    /* \"#utility.yul\":2347:2359   */\n  swap1\n  pop\n    /* \"#utility.yul\":2290:2365   */\n  swap2\n  swap1\n  pop\n  jump\t// out\n    /* \"#utility.yul\":2371:2640   */\ntag_26:\n    /* \"#utility.yul\":2481:2520   */\n  tag_61\n    /* \"#utility.yul\":2512:2519   */\n  dup4\n    /* \"#utility.yul\":2481:2520   */\n  tag_24\n  jump\t// in\ntag_61:\n    /* \"#utility.yul\":2542:2633   */\n  tag_62\n    /* \"#utility.yul\":2591:2632   */\n  tag_63\n    /* \"#utility.yul\":2615:2631   */\n  dup3\n    /* \"#utility.yul\":2591:2632   */\n  tag_25\n  jump\t// in\ntag_63:\n    /* \"#utility.yul\":2583:2589   */\n  dup5\n    /* \"#utility.yul\":2576:2580   */\n  dup5\n    /* \"#utility.yul\":2570:2581   */\n  sload\n    /* \"#utility.yul\":2542:2633   */\n  tag_22\n  jump\t// in\ntag_62:\n    /* \"#utility.yul\":2536:2540   */\n  dup3\n    /* \"#utility.yul\":2529:2634   */\n  sstore\n    /* \"#utility.yul\":2447:2640   */\n  pop\n    /* \"#utility.yul\":2371:2640   */\n  pop\n  pop\n  pop\n  jump\t// out\n    /* \"#utility.yul\":2646:2719   */\ntag_27:\n    /* \"#utility.yul\":2691:2694   */\n  0x00\n    /* \"#utility.yul\":2646:2719   */\n  swap1\n  jump\t// out\n    /* \"#utility.yul\":2725:2914   */\ntag_28:\n    /* \"#utility.yul\":2802:2834   */\n  tag_66\n  tag_27\n  jump\t// in\ntag_66:\n    /* \"#utility.yul\":2843:2908   */\n  tag_67\n    /* \"#utility.yul\":2901:2907   */\n  dup2\n    /* \"#utility.yul\":2893:2899   */\n  dup5\n    /* \"#utility.yul\":2887:2891   */\n  dup5\n    /* \"#utility.yul\":2843:2908   */\n  tag_26\n  jump\t// in\ntag_67:\n    /* \"#utility.yul\":2778:2914   */\n  pop\n    /* \"#utility.yul\":2725:2914   */\n  pop\n  pop\n  jump\t// out\n    /* \"#utility.yul\":2920:3106   */\ntag_29:\n    /* \"#utility.yul\":2980:3100   */\ntag_69:\n    /* \"#utility.yul\":2997:3000   */\n  dup2\n    /* \"#utility.yul\":2990:2995   */\n  dup2\n    /* \"#utility.yul\":2987:3001   */\n  lt\n    /* \"#utility.yul\":2980:3100   */\n  iszero\n  tag_71\n  jumpi\n    /* \"#utility.yul\":3051:3090   */\n  tag_72\n    /* \"#utility.yul\":3088:3089   */\n  0x00\n    /* \"#utility.yul\":3081:3086   */\n  dup3\n    /* \"#utility.yul\":3051:3090   */\n  tag_28\n  jump\t// in\ntag_72:\n    /* \"#utility.yul\":3024:3025   */\n  0x01\n    /* \"#utility.yul\":3017:3022   */\n  dup2\n    /* \"#utility.yul\":3013:3026   */\n  add\n    /* \"#utility.yul\":3004:3026   */\n  swap1\n  pop\n    /* \"#utility.yul\":2980:3100   */\n  jump(tag_69)\ntag_71:\n    /* \"#utility.yul\":2920:3106   */\n  pop\n  pop\n  jump\t// out\n    /* \"#utility.yul\":3112:3655   */\ntag_30:\n    /* \"#utility.yul\":3213:3215   */\n  0x1f\n    /* \"#utility.yul\":3208:3211   */\n  dup3\n    /* \"#utility.yul\":3205:3216   */\n  gt\n    /* \"#utility.yul\":3202:3648   */\n  iszero\n  tag_74\n  jumpi\n    /* \"#utility.yul\":3247:3285   */\n  tag_75\n    /* \"#utility.yul\":3279:3284   */\n  dup2\n    /* \"#utility.yul\":3247:3285   */\n  tag_19\n  jump\t// in\ntag_75:\n    /* \"#utility.yul\":3331:3360   */\n  tag_76\n    /* \"#utility.yul\":3349:3359   */\n  dup5\n    /* \"#utility.yul\":3331:3360   */\n  tag_20\n  jump\t// in\ntag_76:\n    /* \"#utility.yul\":3321:3329   */\n  dup2\n    /* \"#utility.yul\":3317:3361   */\n  add\n    /* \"#utility.yul\":3514:3516   */\n  0x20\n    /* \"#utility.yul\":3502:3512   */\n  dup6\n    /* \"#utility.yul\":3499:3517   */\n  lt\n    /* \"#utility.yul\":3496:3545   */\n  iszero\n  tag_77\n  jumpi\n    /* \"#utility.yul\":3535:3543   */\n  dup2\n    /* \"#utility.yul\":3520:3543   */\n  swap1\n  pop\n    /* \"#utility.yul\":3496:3545   */\ntag_77:\n    /* \"#utility.yul\":3558:3638   */\n  tag_78\n    /* \"#utility.yul\":3614:3636   */\n  tag_79\n    /* \"#utility.yul\":3632:3635   */\n  dup6\n    /* \"#utility.yul\":3614:3636   */\n  tag_20\n  jump\t// in\ntag_79:\n    /* \"#utility.yul\":3604:3612   */\n  dup4\n    /* \"#utility.yul\":3600:3637   */\n  add\n    /* \"#utility.yul\":3587:3598   */\n  dup3\n    /* \"#utility.yul\":3558:3638   */\n  tag_29\n  jump\t// in\ntag_78:\n    /* \"#utility.yul\":3217:3648   */\n  pop\n  pop\n    /* \"#utility.yul\":3202:3648   */\ntag_74:\n    /* \"#utility.yul\":3112:3655   */\n  pop\n  pop\n  pop\n  jump\t// out\n    /* \"#utility.yul\":3661:3778   */\ntag_31:\n    /* \"#utility.yul\":3715:3723   */\n  0x00\n    /* \"#utility.yul\":3765:3770   */\n  dup3\n    /* \"#utility.yul\":3759:3763   */\n  dup3\n    /* \"#utility.yul\":3755:3771   */\n  shr\n    /* \"#utility.yul\":3734:3771   */\n  swap1\n  pop\n    /* \"#utility.yul\":3661:3778   */\n  swap3\n  swap2\n  pop\n  pop\n  jump\t// out\n    /* \"#utility.yul\":3784:3953   */\ntag_32:\n    /* \"#utility.yul\":3828:3834   */\n  0x00\n    /* \"#utility.yul\":3861:3912   */\n  tag_82\n    /* \"#utility.yul\":3909:3910   */\n  0x00\n    /* \"#utility.yul\":3905:3911   */\n  not\n    /* \"#utility.yul\":3897:3902   */\n  dup5\n    /* \"#utility.yul\":3894:3895   */\n  0x08\n    /* \"#utility.yul\":3890:3903   */\n  mul\n    /* \"#utility.yul\":3861:3912   */\n  tag_31\n  jump\t// in\ntag_82:\n    /* \"#utility.yul\":3857:3913   */\n  not\n    /* \"#utility.yul\":3942:3946   */\n  dup1\n    /* \"#utility.yul\":3936:3940   */\n  dup4\n    /* \"#utility.yul\":3932:3947   */\n  and\n    /* \"#utility.yul\":3922:3947   */\n  swap2\n  pop\n    /* \"#utility.yul\":3835:3953   */\n  pop\n    /* \"#utility.yul\":3784:3953   */\n  swap3\n  swap2\n  pop\n  pop\n  jump\t// out\n    /* \"#utility.yul\":3958:4253   */\ntag_33:\n    /* \"#utility.yul\":4034:4038   */\n  0x00\n    /* \"#utility.yul\":4180:4209   */\n  tag_84\n    /* \"#utility.yul\":4205:4208   */\n  dup4\n    /* \"#utility.yul\":4199:4203   */\n  dup4\n    /* \"#utility.yul\":4180:4209   */\n  tag_32\n  jump\t// in\ntag_84:\n    /* \"#utility.yul\":4172:4209   */\n  swap2\n  pop\n    /* \"#utility.yul\":4242:4245   */\n  dup3\n    /* \"#utility.yul\":4239:4240   */\n  0x02\n    /* \"#utility.yul\":4235:4246   */\n  mul\n    /* \"#utility.yul\":4229:4233   */\n  dup3\n    /* \"#utility.yul\":4226:4247   */\n  or\n    /* \"#utility.yul\":4218:4247   */\n  swap1\n  pop\n    /* \"#utility.yul\":3958:4253   */\n  swap3\n  swap2\n  pop\n  pop\n  jump\t// out\n    /* \"#utility.yul\":4258:5653   */\ntag_12:\n    /* \"#utility.yul\":4375:4412   */\n  tag_86\n    /* \"#utility.yul\":4408:4411   */\n  dup3\n    /* \"#utility.yul\":4375:4412   */\n  tag_15\n  jump\t// in\ntag_86:\n    /* \"#utility.yul\":4477:4495   */\n  0xffffffffffffffff\n    /* \"#utility.yul\":4469:4475   */\n  dup2\n    /* \"#utility.yul\":4466:4496   */\n  gt\n    /* \"#utility.yul\":4463:4519   */\n  iszero\n  tag_87\n  jumpi\n    /* \"#utility.yul\":4499:4517   */\n  tag_88\n  tag_16\n  jump\t// in\ntag_88:\n    /* \"#utility.yul\":4463:4519   */\ntag_87:\n    /* \"#utility.yul\":4543:4581   */\n  tag_89\n    /* \"#utility.yul\":4575:4579   */\n  dup3\n    /* \"#utility.yul\":4569:4580   */\n  sload\n    /* \"#utility.yul\":4543:4581   */\n  tag_18\n  jump\t// in\ntag_89:\n    /* \"#utility.yul\":4628:4695   */\n  tag_90\n    /* \"#utility.yul\":4688:4694   */\n  dup3\n    /* \"#utility.yul\":4680:4686   */\n  dup3\n    /* \"#utility.yul\":4674:4678   */\n  dup6\n    /* \"#utility.yul\":4628:4695   */\n  tag_30\n  jump\t// in\ntag_90:\n    /* \"#utility.yul\":4722:4723   */\n  0x00\n    /* \"#utility.yul\":4746:4750   */\n  0x20\n    /* \"#utility.yul\":4733:4750   */\n  swap1\n  pop\n    /* \"#utility.yul\":4778:4780   */\n  0x1f\n    /* \"#utility.yul\":4770:4776   */\n  dup4\n    /* \"#utility.yul\":4767:4781   */\n  gt\n    /* \"#utility.yul\":4795:4796   */\n  0x01\n    /* \"#utility.yul\":4790:5408   */\n  dup2\n  eq\n  tag_92\n  jumpi\n    /* \"#utility.yul\":5452:5453   */\n  0x00\n    /* \"#utility.yul\":5469:5475   */\n  dup5\n    /* \"#utility.yul\":5466:5543   */\n  iszero\n  tag_93\n  jumpi\n    /* \"#utility.yul\":5518:5527   */\n  dup3\n    /* \"#utility.yul\":5513:5516   */\n  dup8\n    /* \"#utility.yul\":5509:5528   */\n  add\n    /* \"#utility.yul\":5503:5529   */\n  mload\n    /* \"#utility.yul\":5494:5529   */\n  swap1\n  pop\n    /* \"#utility.yul\":5466:5543   */\ntag_93:\n    /* \"#utility.yul\":5569:5636   */\n  tag_94\n    /* \"#utility.yul\":5629:5635   */\n  dup6\n    /* \"#utility.yul\":5622:5627   */\n  dup3\n    /* \"#utility.yul\":5569:5636   */\n  tag_33\n  jump\t// in\ntag_94:\n    /* \"#utility.yul\":5563:5567   */\n  dup7\n    /* \"#utility.yul\":5556:5637   */\n  sstore\n    /* \"#utility.yul\":5425:5647   */\n  pop\n    /* \"#utility.yul\":4760:5647   */\n  jump(tag_91)\n    /* \"#utility.yul\":4790:5408   */\ntag_92:\n    /* \"#utility.yul\":4842:4846   */\n  0x1f\n    /* \"#utility.yul\":4838:4847   */\n  not\n    /* \"#utility.yul\":4830:4836   */\n  dup5\n    /* \"#utility.yul\":4826:4848   */\n  and\n    /* \"#utility.yul\":4876:4913   */\n  tag_95\n    /* \"#utility.yul\":4908:4912   */\n  dup7\n    /* \"#utility.yul\":4876:4913   */\n  tag_19\n  jump\t// in\ntag_95:\n    /* \"#utility.yul\":4935:4936   */\n  0x00\n    /* \"#utility.yul\":4949:5157   */\ntag_96:\n    /* \"#utility.yul\":4963:4970   */\n  dup3\n    /* \"#utility.yul\":4960:4961   */\n  dup2\n    /* \"#utility.yul\":4957:4971   */\n  lt\n    /* \"#utility.yul\":4949:5157   */\n  iszero\n  tag_98\n  jumpi\n    /* \"#utility.yul\":5042:5051   */\n  dup5\n    /* \"#utility.yul\":5037:5040   */\n  dup10\n    /* \"#utility.yul\":5033:5052   */\n  add\n    /* \"#utility.yul\":5027:5053   */\n  mload\n    /* \"#utility.yul\":5019:5025   */\n  dup3\n    /* \"#utility.yul\":5012:5054   */\n  sstore\n    /* \"#utility.yul\":5093:5094   */\n  0x01\n    /* \"#utility.yul\":5085:5091   */\n  dup3\n    /* \"#utility.yul\":5081:5095   */\n  add\n    /* \"#utility.yul\":5071:5095   */\n  swap2\n  pop\n    /* \"#utility.yul\":5140:5142   */\n  0x20\n    /* \"#utility.yul\":5129:5138   */\n  dup6\n    /* \"#utility.yul\":5125:5143   */\n  add\n    /* \"#utility.yul\":5112:5143   */\n  swap5\n  pop\n    /* \"#utility.yul\":4986:4990   */\n  0x20\n    /* \"#utility.yul\":4983:4984   */\n  dup2\n    /* \"#utility.yul\":4979:4991   */\n  add\n    /* \"#utility.yul\":4974:4991   */\n  swap1\n  pop\n    /* \"#utility.yul\":4949:5157   */\n  jump(tag_96)\ntag_98:\n    /* \"#utility.yul\":5185:5191   */\n  dup7\n    /* \"#utility.yul\":5176:5183   */\n  dup4\n    /* \"#utility.yul\":5173:5192   */\n  lt\n    /* \"#utility.yul\":5170:5349   */\n  iszero\n  tag_99\n  jumpi\n    /* \"#utility.yul\":5243:5252   */\n  dup5\n    /* \"#utility.yul\":5238:5241   */\n  dup10\n    /* \"#utility.yul\":5234:5253   */\n  add\n    /* \"#utility.yul\":5228:5254   */\n  mload\n    /* \"#utility.yul\":5286:5334   */\n  tag_100\n    /* \"#utility.yul\":5328:5332   */\n  0x1f\n    /* \"#utility.yul\":5320:5326   */\n  dup10\n    /* \"#utility.yul\":5316:5333   */\n  and\n    /* \"#utility.yul\":5305:5314   */\n  dup3\n    /* \"#utility.yul\":5286:5334   */\n  tag_32\n  jump\t// in\ntag_100:\n    /* \"#utility.yul\":5278:5284   */\n  dup4\n    /* \"#utility.yul\":5271:5335   */\n  sstore\n    /* \"#utility.yul\":5193:5349   */\n  pop\n    /* \"#utility.yul\":5170:5349   */\ntag_99:\n    /* \"#utility.yul\":5395:5396   */\n  0x01\n    /* \"#utility.yul\":5391:5392   */\n  0x02\n    /* \"#utility.yul\":5383:5389   */\n  dup9\n    /* \"#utility.yul\":5379:5393   */\n  mul\n    /* \"#utility.yul\":5375:5397   */\n  add\n    /* \"#utility.yul\":5369:5373   */\n  dup9\n    /* \"#utility.yul\":5362:5398   */\n  sstore\n    /* \"#utility.yul\":4797:5408   */\n  pop\n  pop\n  pop\n    /* \"#utility.yul\":4760:5647   */\ntag_91:\n  pop\n    /* \"#utility.yul\":4350:5653   */\n  pop\n  pop\n  pop\n    /* \"#utility.yul\":4258:5653   */\n  pop\n  pop\n  jump\t// out\n    /* \"contracts/FFPVoting.sol\":57:1666  contract VotingSystem {... */\ntag_7:\n  dataSize(sub_0)\n  dup1\n  dataOffset(sub_0)\n  0x00\n  codecopy\n  0x00\n  return\nstop\n\nsub_0: assembly {\n        /* \"contracts/FFPVoting.sol\":57:1666  contract VotingSystem {... */\n      mstore(0x40, 0x80)\n      callvalue\n      dup1\n      iszero\n      tag_1\n      jumpi\n      0x00\n      dup1\n      revert\n    tag_1:\n      pop\n      jumpi(tag_2, lt(calldatasize, 0x04))\n      shr(0xe0, calldataload(0x00))\n      dup1\n      0x59f78468\n      gt\n      tag_11\n      jumpi\n      dup1\n      0x59f78468\n      eq\n      tag_7\n      jumpi\n      dup1\n      0x8e7ea5b2\n      eq\n      tag_8\n      jumpi\n      dup1\n      0xa3ec138d\n      eq\n      tag_9\n      jumpi\n      dup1\n      0xc94ca9e3\n      eq\n      tag_10\n      jumpi\n      jump(tag_2)\n    tag_11:\n      dup1\n      0x0121b93f\n      eq\n      tag_3\n      jumpi\n      dup1\n      0x2d35a8a2\n      eq\n      tag_4\n      jumpi\n      dup1\n      0x337ebd7a\n      eq\n      tag_5\n      jumpi\n      dup1\n      0x3477ee2e\n      eq\n      tag_6\n      jumpi\n    tag_2:\n      0x00\n      dup1\n      revert\n        /* \"contracts/FFPVoting.sol\":727:1117  function vote(uint _candidateId) public {... */\n    tag_3:\n      tag_12\n      0x04\n      dup1\n      calldatasize\n      sub\n      dup2\n      add\n      swap1\n      tag_13\n      swap2\n      swap1\n      tag_14\n      jump\t// in\n    tag_13:\n      tag_15\n      jump\t// in\n    tag_12:\n      stop\n        /* \"contracts/FFPVoting.sol\":272:299  uint public candidatesCount */\n    tag_4:\n      tag_16\n      tag_17\n      jump\t// in\n    tag_16:\n      mload(0x40)\n      tag_18\n      swap2\n      swap1\n      tag_19\n      jump\t// in\n    tag_18:\n      mload(0x40)\n      dup1\n      swap2\n      sub\n      swap1\n      return\n        /* \"contracts/FFPVoting.sol\":305:325  uint public winnerID */\n    tag_5:\n      tag_20\n      tag_21\n      jump\t// in\n    tag_20:\n      mload(0x40)\n      tag_22\n      swap2\n      swap1\n      tag_19\n      jump\t// in\n    tag_22:\n      mload(0x40)\n      dup1\n      swap2\n      sub\n      swap1\n      return\n        /* \"contracts/FFPVoting.sol\":177:221  mapping(uint => Candidate) public candidates */\n    tag_6:\n      tag_23\n      0x04\n      dup1\n      calldatasize\n      sub\n      dup2\n      add\n      swap1\n      tag_24\n      swap2\n      swap1\n      tag_14\n      jump\t// in\n    tag_24:\n      tag_25\n      jump\t// in\n    tag_23:\n      mload(0x40)\n      tag_26\n      swap4\n      swap3\n      swap2\n      swap1\n      tag_27\n      jump\t// in\n    tag_26:\n      mload(0x40)\n      dup1\n      swap2\n      sub\n      swap1\n      return\n        /* \"contracts/FFPVoting.sol\":1123:1491  function endElection() public  {... */\n    tag_7:\n      tag_28\n      tag_29\n      jump\t// in\n    tag_28:\n      stop\n        /* \"contracts/FFPVoting.sol\":1497:1664  function getWinner() public view returns (string memory) {... */\n    tag_8:\n      tag_30\n      tag_31\n      jump\t// in\n    tag_30:\n      mload(0x40)\n      tag_32\n      swap2\n      swap1\n      tag_33\n      jump\t// in\n    tag_32:\n      mload(0x40)\n      dup1\n      swap2\n      sub\n      swap1\n      return\n        /* \"contracts/FFPVoting.sol\":227:265  mapping(address => bool) public voters */\n    tag_9:\n      tag_34\n      0x04\n      dup1\n      calldatasize\n      sub\n      dup2\n      add\n      swap1\n      tag_35\n      swap2\n      swap1\n      tag_36\n      jump\t// in\n    tag_35:\n      tag_37\n      jump\t// in\n    tag_34:\n      mload(0x40)\n      tag_38\n      swap2\n      swap1\n      tag_39\n      jump\t// in\n    tag_38:\n      mload(0x40)\n      dup1\n      swap2\n      sub\n      swap1\n      return\n        /* \"contracts/FFPVoting.sol\":331:356  bool public electionEnded */\n    tag_10:\n      tag_40\n      tag_41\n      jump\t// in\n    tag_40:\n      mload(0x40)\n      tag_42\n      swap2\n      swap1\n      tag_39\n      jump\t// in\n    tag_42:\n      mload(0x40)\n      dup1\n      swap2\n      sub\n      swap1\n      return\n        /* \"contracts/FFPVoting.sol\":727:1117  function vote(uint _candidateId) public {... */\n    tag_15:\n        /* \"contracts/FFPVoting.sol\":786:792  voters */\n      0x01\n        /* \"contracts/FFPVoting.sol\":786:804  voters[msg.sender] */\n      0x00\n        /* \"contracts/FFPVoting.sol\":793:803  msg.sender */\n      caller\n        /* \"contracts/FFPVoting.sol\":786:804  voters[msg.sender] */\n      0xffffffffffffffffffffffffffffffffffffffff\n      and\n      0xffffffffffffffffffffffffffffffffffffffff\n      and\n      dup2\n      mstore\n      0x20\n      add\n      swap1\n      dup2\n      mstore\n      0x20\n      add\n      0x00\n      keccak256\n      0x00\n      swap1\n      sload\n      swap1\n      0x0100\n      exp\n      swap1\n      div\n      0xff\n      and\n        /* \"contracts/FFPVoting.sol\":785:804  !voters[msg.sender] */\n      iszero\n        /* \"contracts/FFPVoting.sol\":777:832  require(!voters[msg.sender], \"You have already voted.\") */\n      tag_44\n      jumpi\n      mload(0x40)\n      0x08c379a000000000000000000000000000000000000000000000000000000000\n      dup2\n      mstore\n      0x04\n      add\n      tag_45\n      swap1\n      tag_46\n      jump\t// in\n    tag_45:\n      mload(0x40)\n      dup1\n      swap2\n      sub\n      swap1\n      revert\n    tag_44:\n        /* \"contracts/FFPVoting.sol\":865:866  0 */\n      0x00\n        /* \"contracts/FFPVoting.sol\":850:862  _candidateId */\n      dup2\n        /* \"contracts/FFPVoting.sol\":850:866  _candidateId > 0 */\n      gt\n        /* \"contracts/FFPVoting.sol\":850:901  _candidateId > 0 && _candidateId <= candidatesCount */\n      dup1\n      iszero\n      tag_47\n      jumpi\n      pop\n        /* \"contracts/FFPVoting.sol\":886:901  candidatesCount */\n      sload(0x02)\n        /* \"contracts/FFPVoting.sol\":870:882  _candidateId */\n      dup2\n        /* \"contracts/FFPVoting.sol\":870:901  _candidateId <= candidatesCount */\n      gt\n      iszero\n        /* \"contracts/FFPVoting.sol\":850:901  _candidateId > 0 && _candidateId <= candidatesCount */\n    tag_47:\n        /* \"contracts/FFPVoting.sol\":842:932  require(_candidateId > 0 && _candidateId <= candidatesCount, \"No candidate with that ID.\") */\n      tag_48\n      jumpi\n      mload(0x40)\n      0x08c379a000000000000000000000000000000000000000000000000000000000\n      dup2\n      mstore\n      0x04\n      add\n      tag_49\n      swap1\n      tag_50\n      jump\t// in\n    tag_49:\n      mload(0x40)\n      dup1\n      swap2\n      sub\n      swap1\n      revert\n    tag_48:\n        /* \"contracts/FFPVoting.sol\":951:964  electionEnded */\n      0x04\n      0x00\n      swap1\n      sload\n      swap1\n      0x0100\n      exp\n      swap1\n      div\n      0xff\n      and\n        /* \"contracts/FFPVoting.sol\":950:964  !electionEnded */\n      iszero\n        /* \"contracts/FFPVoting.sol\":942:988  require(!electionEnded, \"Election has ended.\") */\n      tag_51\n      jumpi\n      mload(0x40)\n      0x08c379a000000000000000000000000000000000000000000000000000000000\n      dup2\n      mstore\n      0x04\n      add\n      tag_52\n      swap1\n      tag_53\n      jump\t// in\n    tag_52:\n      mload(0x40)\n      dup1\n      swap2\n      sub\n      swap1\n      revert\n    tag_51:\n        /* \"contracts/FFPVoting.sol\":1020:1024  true */\n      0x01\n        /* \"contracts/FFPVoting.sol\":999:1005  voters */\n      dup1\n        /* \"contracts/FFPVoting.sol\":999:1017  voters[msg.sender] */\n      0x00\n        /* \"contracts/FFPVoting.sol\":1006:1016  msg.sender */\n      caller\n        /* \"contracts/FFPVoting.sol\":999:1017  voters[msg.sender] */\n      0xffffffffffffffffffffffffffffffffffffffff\n      and\n      0xffffffffffffffffffffffffffffffffffffffff\n      and\n      dup2\n      mstore\n      0x20\n      add\n      swap1\n      dup2\n      mstore\n      0x20\n      add\n      0x00\n      keccak256\n      0x00\n        /* \"contracts/FFPVoting.sol\":999:1024  voters[msg.sender] = true */\n      0x0100\n      exp\n      dup2\n      sload\n      dup2\n      0xff\n      mul\n      not\n      and\n      swap1\n      dup4\n      iszero\n      iszero\n      mul\n      or\n      swap1\n      sstore\n      pop\n        /* \"contracts/FFPVoting.sol\":1034:1044  candidates */\n      0x00\n        /* \"contracts/FFPVoting.sol\":1034:1058  candidates[_candidateId] */\n      dup1\n        /* \"contracts/FFPVoting.sol\":1045:1057  _candidateId */\n      dup3\n        /* \"contracts/FFPVoting.sol\":1034:1058  candidates[_candidateId] */\n      dup2\n      mstore\n      0x20\n      add\n      swap1\n      dup2\n      mstore\n      0x20\n      add\n      0x00\n      keccak256\n        /* \"contracts/FFPVoting.sol\":1034:1068  candidates[_candidateId].voteCount */\n      0x02\n      add\n      0x00\n        /* \"contracts/FFPVoting.sol\":1034:1070  candidates[_candidateId].voteCount++ */\n      dup2\n      sload\n      dup1\n      swap3\n      swap2\n      swap1\n      tag_54\n      swap1\n      tag_55\n      jump\t// in\n    tag_54:\n      swap2\n      swap1\n      pop\n      sstore\n      pop\n        /* \"contracts/FFPVoting.sol\":1097:1109  _candidateId */\n      dup1\n        /* \"contracts/FFPVoting.sol\":1086:1110  votedEvent(_candidateId) */\n      0xfff3c900d938d21d0990d786e819f29b8d05c1ef587b462b939609625b684b16\n      mload(0x40)\n      mload(0x40)\n      dup1\n      swap2\n      sub\n      swap1\n      log2\n        /* \"contracts/FFPVoting.sol\":727:1117  function vote(uint _candidateId) public {... */\n      pop\n      jump\t// out\n        /* \"contracts/FFPVoting.sol\":272:299  uint public candidatesCount */\n    tag_17:\n      sload(0x02)\n      dup2\n      jump\t// out\n        /* \"contracts/FFPVoting.sol\":305:325  uint public winnerID */\n    tag_21:\n      sload(0x03)\n      dup2\n      jump\t// out\n        /* \"contracts/FFPVoting.sol\":177:221  mapping(uint => Candidate) public candidates */\n    tag_25:\n      mstore(0x20, 0x00)\n      dup1\n      0x00\n      mstore\n      keccak256(0x00, 0x40)\n      0x00\n      swap2\n      pop\n      swap1\n      pop\n      dup1\n      0x00\n      add\n      sload\n      swap1\n      dup1\n      0x01\n      add\n      dup1\n      sload\n      tag_56\n      swap1\n      tag_57\n      jump\t// in\n    tag_56:\n      dup1\n      0x1f\n      add\n      0x20\n      dup1\n      swap2\n      div\n      mul\n      0x20\n      add\n      mload(0x40)\n      swap1\n      dup2\n      add\n      0x40\n      mstore\n      dup1\n      swap3\n      swap2\n      swap1\n      dup2\n      dup2\n      mstore\n      0x20\n      add\n      dup3\n      dup1\n      sload\n      tag_58\n      swap1\n      tag_57\n      jump\t// in\n    tag_58:\n      dup1\n      iszero\n      tag_59\n      jumpi\n      dup1\n      0x1f\n      lt\n      tag_60\n      jumpi\n      0x0100\n      dup1\n      dup4\n      sload\n      div\n      mul\n      dup4\n      mstore\n      swap2\n      0x20\n      add\n      swap2\n      jump(tag_59)\n    tag_60:\n      dup3\n      add\n      swap2\n      swap1\n      0x00\n      mstore\n      keccak256(0x00, 0x20)\n      swap1\n    tag_61:\n      dup2\n      sload\n      dup2\n      mstore\n      swap1\n      0x01\n      add\n      swap1\n      0x20\n      add\n      dup1\n      dup4\n      gt\n      tag_61\n      jumpi\n      dup3\n      swap1\n      sub\n      0x1f\n      and\n      dup3\n      add\n      swap2\n    tag_59:\n      pop\n      pop\n      pop\n      pop\n      pop\n      swap1\n      dup1\n      0x02\n      add\n      sload\n      swap1\n      pop\n      dup4\n      jump\t// out\n        /* \"contracts/FFPVoting.sol\":1123:1491  function endElection() public  {... */\n    tag_29:\n        /* \"contracts/FFPVoting.sol\":1173:1186  electionEnded */\n      0x04\n      0x00\n      swap1\n      sload\n      swap1\n      0x0100\n      exp\n      swap1\n      div\n      0xff\n      and\n        /* \"contracts/FFPVoting.sol\":1172:1186  !electionEnded */\n      iszero\n        /* \"contracts/FFPVoting.sol\":1164:1214  require(!electionEnded, \"Election already ended.\") */\n      tag_63\n      jumpi\n      mload(0x40)\n      0x08c379a000000000000000000000000000000000000000000000000000000000\n      dup2\n      mstore\n      0x04\n      add\n      tag_64\n      swap1\n      tag_65\n      jump\t// in\n    tag_64:\n      mload(0x40)\n      dup1\n      swap2\n      sub\n      swap1\n      revert\n    tag_63:\n        /* \"contracts/FFPVoting.sol\":1240:1244  true */\n      0x01\n        /* \"contracts/FFPVoting.sol\":1224:1237  electionEnded */\n      0x04\n      0x00\n        /* \"contracts/FFPVoting.sol\":1224:1244  electionEnded = true */\n      0x0100\n      exp\n      dup2\n      sload\n      dup2\n      0xff\n      mul\n      not\n      and\n      swap1\n      dup4\n      iszero\n      iszero\n      mul\n      or\n      swap1\n      sstore\n      pop\n        /* \"contracts/FFPVoting.sol\":1255:1268  uint maxVotes */\n      0x00\n        /* \"contracts/FFPVoting.sol\":1286:1292  uint i */\n      dup1\n        /* \"contracts/FFPVoting.sol\":1295:1296  1 */\n      0x01\n        /* \"contracts/FFPVoting.sol\":1286:1296  uint i = 1 */\n      swap1\n      pop\n        /* \"contracts/FFPVoting.sol\":1282:1485  for(uint i = 1; i <= candidatesCount; i++) {... */\n    tag_66:\n        /* \"contracts/FFPVoting.sol\":1303:1318  candidatesCount */\n      sload(0x02)\n        /* \"contracts/FFPVoting.sol\":1298:1299  i */\n      dup2\n        /* \"contracts/FFPVoting.sol\":1298:1318  i <= candidatesCount */\n      gt\n        /* \"contracts/FFPVoting.sol\":1282:1485  for(uint i = 1; i <= candidatesCount; i++) {... */\n      tag_67\n      jumpi\n        /* \"contracts/FFPVoting.sol\":1368:1376  maxVotes */\n      dup2\n        /* \"contracts/FFPVoting.sol\":1342:1352  candidates */\n      0x00\n        /* \"contracts/FFPVoting.sol\":1342:1355  candidates[i] */\n      dup1\n        /* \"contracts/FFPVoting.sol\":1353:1354  i */\n      dup4\n        /* \"contracts/FFPVoting.sol\":1342:1355  candidates[i] */\n      dup2\n      mstore\n      0x20\n      add\n      swap1\n      dup2\n      mstore\n      0x20\n      add\n      0x00\n      keccak256\n        /* \"contracts/FFPVoting.sol\":1342:1365  candidates[i].voteCount */\n      0x02\n      add\n      sload\n        /* \"contracts/FFPVoting.sol\":1342:1376  candidates[i].voteCount > maxVotes */\n      gt\n        /* \"contracts/FFPVoting.sol\":1339:1475  if(candidates[i].voteCount > maxVotes) {... */\n      iszero\n      tag_69\n      jumpi\n        /* \"contracts/FFPVoting.sol\":1407:1417  candidates */\n      0x00\n        /* \"contracts/FFPVoting.sol\":1407:1420  candidates[i] */\n      dup1\n        /* \"contracts/FFPVoting.sol\":1418:1419  i */\n      dup3\n        /* \"contracts/FFPVoting.sol\":1407:1420  candidates[i] */\n      dup2\n      mstore\n      0x20\n      add\n      swap1\n      dup2\n      mstore\n      0x20\n      add\n      0x00\n      keccak256\n        /* \"contracts/FFPVoting.sol\":1407:1430  candidates[i].voteCount */\n      0x02\n      add\n      sload\n        /* \"contracts/FFPVoting.sol\":1396:1430  maxVotes = candidates[i].voteCount */\n      swap2\n      pop\n        /* \"contracts/FFPVoting.sol\":1459:1460  i */\n      dup1\n        /* \"contracts/FFPVoting.sol\":1448:1456  winnerID */\n      0x03\n        /* \"contracts/FFPVoting.sol\":1448:1460  winnerID = i */\n      dup2\n      swap1\n      sstore\n      pop\n        /* \"contracts/FFPVoting.sol\":1339:1475  if(candidates[i].voteCount > maxVotes) {... */\n    tag_69:\n        /* \"contracts/FFPVoting.sol\":1320:1323  i++ */\n      dup1\n      dup1\n      tag_70\n      swap1\n      tag_55\n      jump\t// in\n    tag_70:\n      swap2\n      pop\n      pop\n        /* \"contracts/FFPVoting.sol\":1282:1485  for(uint i = 1; i <= candidatesCount; i++) {... */\n      jump(tag_66)\n    tag_67:\n      pop\n        /* \"contracts/FFPVoting.sol\":1154:1491  {... */\n      pop\n        /* \"contracts/FFPVoting.sol\":1123:1491  function endElection() public  {... */\n      jump\t// out\n        /* \"contracts/FFPVoting.sol\":1497:1664  function getWinner() public view returns (string memory) {... */\n    tag_31:\n        /* \"contracts/FFPVoting.sol\":1539:1552  string memory */\n      0x60\n        /* \"contracts/FFPVoting.sol\":1572:1585  electionEnded */\n      0x04\n      0x00\n      swap1\n      sload\n      swap1\n      0x0100\n      exp\n      swap1\n      div\n      0xff\n      and\n        /* \"contracts/FFPVoting.sol\":1564:1615  require(electionEnded, \"Election is not over yet.\") */\n      tag_72\n      jumpi\n      mload(0x40)\n      0x08c379a000000000000000000000000000000000000000000000000000000000\n      dup2\n      mstore\n      0x04\n      add\n      tag_73\n      swap1\n      tag_74\n      jump\t// in\n    tag_73:\n      mload(0x40)\n      dup1\n      swap2\n      sub\n      swap1\n      revert\n    tag_72:\n        /* \"contracts/FFPVoting.sol\":1632:1642  candidates */\n      0x00\n        /* \"contracts/FFPVoting.sol\":1632:1652  candidates[winnerID] */\n      dup1\n        /* \"contracts/FFPVoting.sol\":1643:1651  winnerID */\n      sload(0x03)\n        /* \"contracts/FFPVoting.sol\":1632:1652  candidates[winnerID] */\n      dup2\n      mstore\n      0x20\n      add\n      swap1\n      dup2\n      mstore\n      0x20\n      add\n      0x00\n      keccak256\n        /* \"contracts/FFPVoting.sol\":1632:1657  candidates[winnerID].name */\n      0x01\n      add\n        /* \"contracts/FFPVoting.sol\":1625:1657  return candidates[winnerID].name */\n      dup1\n      sload\n      tag_75\n      swap1\n      tag_57\n      jump\t// in\n    tag_75:\n      dup1\n      0x1f\n      add\n      0x20\n      dup1\n      swap2\n      div\n      mul\n      0x20\n      add\n      mload(0x40)\n      swap1\n      dup2\n      add\n      0x40\n      mstore\n      dup1\n      swap3\n      swap2\n      swap1\n      dup2\n      dup2\n      mstore\n      0x20\n      add\n      dup3\n      dup1\n      sload\n      tag_76\n      swap1\n      tag_57\n      jump\t// in\n    tag_76:\n      dup1\n      iszero\n      tag_77\n      jumpi\n      dup1\n      0x1f\n      lt\n      tag_78\n      jumpi\n      0x0100\n      dup1\n      dup4\n      sload\n      div\n      mul\n      dup4\n      mstore\n      swap2\n      0x20\n      add\n      swap2\n      jump(tag_77)\n    tag_78:\n      dup3\n      add\n      swap2\n      swap1\n      0x00\n      mstore\n      keccak256(0x00, 0x20)\n      swap1\n    tag_79:\n      dup2\n      sload\n      dup2\n      mstore\n      swap1\n      0x01\n      add\n      swap1\n      0x20\n      add\n      dup1\n      dup4\n      gt\n      tag_79\n      jumpi\n      dup3\n      swap1\n      sub\n      0x1f\n      and\n      dup3\n      add\n      swap2\n    tag_77:\n      pop\n      pop\n      pop\n      pop\n      pop\n      swap1\n      pop\n        /* \"contracts/FFPVoting.sol\":1497:1664  function getWinner() public view returns (string memory) {... */\n      swap1\n      jump\t// out\n        /* \"contracts/FFPVoting.sol\":227:265  mapping(address => bool) public voters */\n    tag_37:\n      mstore(0x20, 0x01)\n      dup1\n      0x00\n      mstore\n      keccak256(0x00, 0x40)\n      0x00\n      swap2\n      pop\n      sload\n      swap1\n      0x0100\n      exp\n      swap1\n      div\n      0xff\n      and\n      dup2\n      jump\t// out\n        /* \"contracts/FFPVoting.sol\":331:356  bool public electionEnded */\n    tag_41:\n      0x04\n      0x00\n      swap1\n      sload\n      swap1\n      0x0100\n      exp\n      swap1\n      div\n      0xff\n      and\n      dup2\n      jump\t// out\n        /* \"#utility.yul\":88:205   */\n    tag_81:\n        /* \"#utility.yul\":197:198   */\n      0x00\n        /* \"#utility.yul\":194:195   */\n      dup1\n        /* \"#utility.yul\":187:199   */\n      revert\n        /* \"#utility.yul\":334:411   */\n    tag_83:\n        /* \"#utility.yul\":371:378   */\n      0x00\n        /* \"#utility.yul\":400:405   */\n      dup2\n        /* \"#utility.yul\":389:405   */\n      swap1\n      pop\n        /* \"#utility.yul\":334:411   */\n      swap2\n      swap1\n      pop\n      jump\t// out\n        /* \"#utility.yul\":417:539   */\n    tag_84:\n        /* \"#utility.yul\":490:514   */\n      tag_116\n        /* \"#utility.yul\":508:513   */\n      dup2\n        /* \"#utility.yul\":490:514   */\n      tag_83\n      jump\t// in\n    tag_116:\n        /* \"#utility.yul\":483:488   */\n      dup2\n        /* \"#utility.yul\":480:515   */\n      eq\n        /* \"#utility.yul\":470:533   */\n      tag_117\n      jumpi\n        /* \"#utility.yul\":529:530   */\n      0x00\n        /* \"#utility.yul\":526:527   */\n      dup1\n        /* \"#utility.yul\":519:531   */\n      revert\n        /* \"#utility.yul\":470:533   */\n    tag_117:\n        /* \"#utility.yul\":417:539   */\n      pop\n      jump\t// out\n        /* \"#utility.yul\":545:684   */\n    tag_85:\n        /* \"#utility.yul\":591:596   */\n      0x00\n        /* \"#utility.yul\":629:635   */\n      dup2\n        /* \"#utility.yul\":616:636   */\n      calldataload\n        /* \"#utility.yul\":607:636   */\n      swap1\n      pop\n        /* \"#utility.yul\":645:678   */\n      tag_119\n        /* \"#utility.yul\":672:677   */\n      dup2\n        /* \"#utility.yul\":645:678   */\n      tag_84\n      jump\t// in\n    tag_119:\n        /* \"#utility.yul\":545:684   */\n      swap3\n      swap2\n      pop\n      pop\n      jump\t// out\n        /* \"#utility.yul\":690:1019   */\n    tag_14:\n        /* \"#utility.yul\":749:755   */\n      0x00\n        /* \"#utility.yul\":798:800   */\n      0x20\n        /* \"#utility.yul\":786:795   */\n      dup3\n        /* \"#utility.yul\":777:784   */\n      dup5\n        /* \"#utility.yul\":773:796   */\n      sub\n        /* \"#utility.yul\":769:801   */\n      slt\n        /* \"#utility.yul\":766:885   */\n      iszero\n      tag_121\n      jumpi\n        /* \"#utility.yul\":804:883   */\n      tag_122\n      tag_81\n      jump\t// in\n    tag_122:\n        /* \"#utility.yul\":766:885   */\n    tag_121:\n        /* \"#utility.yul\":924:925   */\n      0x00\n        /* \"#utility.yul\":949:1002   */\n      tag_123\n        /* \"#utility.yul\":994:1001   */\n      dup5\n        /* \"#utility.yul\":985:991   */\n      dup3\n        /* \"#utility.yul\":974:983   */\n      dup6\n        /* \"#utility.yul\":970:992   */\n      add\n        /* \"#utility.yul\":949:1002   */\n      tag_85\n      jump\t// in\n    tag_123:\n        /* \"#utility.yul\":939:1002   */\n      swap2\n      pop\n        /* \"#utility.yul\":895:1012   */\n      pop\n        /* \"#utility.yul\":690:1019   */\n      swap3\n      swap2\n      pop\n      pop\n      jump\t// out\n        /* \"#utility.yul\":1025:1143   */\n    tag_86:\n        /* \"#utility.yul\":1112:1136   */\n      tag_125\n        /* \"#utility.yul\":1130:1135   */\n      dup2\n        /* \"#utility.yul\":1112:1136   */\n      tag_83\n      jump\t// in\n    tag_125:\n        /* \"#utility.yul\":1107:1110   */\n      dup3\n        /* \"#utility.yul\":1100:1137   */\n      mstore\n        /* \"#utility.yul\":1025:1143   */\n      pop\n      pop\n      jump\t// out\n        /* \"#utility.yul\":1149:1371   */\n    tag_19:\n        /* \"#utility.yul\":1242:1246   */\n      0x00\n        /* \"#utility.yul\":1280:1282   */\n      0x20\n        /* \"#utility.yul\":1269:1278   */\n      dup3\n        /* \"#utility.yul\":1265:1283   */\n      add\n        /* \"#utility.yul\":1257:1283   */\n      swap1\n      pop\n        /* \"#utility.yul\":1293:1364   */\n      tag_127\n        /* \"#utility.yul\":1361:1362   */\n      0x00\n        /* \"#utility.yul\":1350:1359   */\n      dup4\n        /* \"#utility.yul\":1346:1363   */\n      add\n        /* \"#utility.yul\":1337:1343   */\n      dup5\n        /* \"#utility.yul\":1293:1364   */\n      tag_86\n      jump\t// in\n    tag_127:\n        /* \"#utility.yul\":1149:1371   */\n      swap3\n      swap2\n      pop\n      pop\n      jump\t// out\n        /* \"#utility.yul\":1377:1476   */\n    tag_87:\n        /* \"#utility.yul\":1429:1435   */\n      0x00\n        /* \"#utility.yul\":1463:1468   */\n      dup2\n        /* \"#utility.yul\":1457:1469   */\n      mload\n        /* \"#utility.yul\":1447:1469   */\n      swap1\n      pop\n        /* \"#utility.yul\":1377:1476   */\n      swap2\n      swap1\n      pop\n      jump\t// out\n        /* \"#utility.yul\":1482:1651   */\n    tag_88:\n        /* \"#utility.yul\":1566:1577   */\n      0x00\n        /* \"#utility.yul\":1600:1606   */\n      dup3\n        /* \"#utility.yul\":1595:1598   */\n      dup3\n        /* \"#utility.yul\":1588:1607   */\n      mstore\n        /* \"#utility.yul\":1640:1644   */\n      0x20\n        /* \"#utility.yul\":1635:1638   */\n      dup3\n        /* \"#utility.yul\":1631:1645   */\n      add\n        /* \"#utility.yul\":1616:1645   */\n      swap1\n      pop\n        /* \"#utility.yul\":1482:1651   */\n      swap3\n      swap2\n      pop\n      pop\n      jump\t// out\n        /* \"#utility.yul\":1657:1903   */\n    tag_89:\n        /* \"#utility.yul\":1738:1739   */\n      0x00\n        /* \"#utility.yul\":1748:1861   */\n    tag_131:\n        /* \"#utility.yul\":1762:1768   */\n      dup4\n        /* \"#utility.yul\":1759:1760   */\n      dup2\n        /* \"#utility.yul\":1756:1769   */\n      lt\n        /* \"#utility.yul\":1748:1861   */\n      iszero\n      tag_133\n      jumpi\n        /* \"#utility.yul\":1847:1848   */\n      dup1\n        /* \"#utility.yul\":1842:1845   */\n      dup3\n        /* \"#utility.yul\":1838:1849   */\n      add\n        /* \"#utility.yul\":1832:1850   */\n      mload\n        /* \"#utility.yul\":1828:1829   */\n      dup2\n        /* \"#utility.yul\":1823:1826   */\n      dup5\n        /* \"#utility.yul\":1819:1830   */\n      add\n        /* \"#utility.yul\":1812:1851   */\n      mstore\n        /* \"#utility.yul\":1784:1786   */\n      0x20\n        /* \"#utility.yul\":1781:1782   */\n      dup2\n        /* \"#utility.yul\":1777:1787   */\n      add\n        /* \"#utility.yul\":1772:1787   */\n      swap1\n      pop\n        /* \"#utility.yul\":1748:1861   */\n      jump(tag_131)\n    tag_133:\n        /* \"#utility.yul\":1895:1896   */\n      0x00\n        /* \"#utility.yul\":1886:1892   */\n      dup5\n        /* \"#utility.yul\":1881:1884   */\n      dup5\n        /* \"#utility.yul\":1877:1893   */\n      add\n        /* \"#utility.yul\":1870:1897   */\n      mstore\n        /* \"#utility.yul\":1719:1903   */\n      pop\n        /* \"#utility.yul\":1657:1903   */\n      pop\n      pop\n      pop\n      jump\t// out\n        /* \"#utility.yul\":1909:2011   */\n    tag_90:\n        /* \"#utility.yul\":1950:1956   */\n      0x00\n        /* \"#utility.yul\":2001:2003   */\n      0x1f\n        /* \"#utility.yul\":1997:2004   */\n      not\n        /* \"#utility.yul\":1992:1994   */\n      0x1f\n        /* \"#utility.yul\":1985:1990   */\n      dup4\n        /* \"#utility.yul\":1981:1995   */\n      add\n        /* \"#utility.yul\":1977:2005   */\n      and\n        /* \"#utility.yul\":1967:2005   */\n      swap1\n      pop\n        /* \"#utility.yul\":1909:2011   */\n      swap2\n      swap1\n      pop\n      jump\t// out\n        /* \"#utility.yul\":2017:2394   */\n    tag_91:\n        /* \"#utility.yul\":2105:2108   */\n      0x00\n        /* \"#utility.yul\":2133:2172   */\n      tag_136\n        /* \"#utility.yul\":2166:2171   */\n      dup3\n        /* \"#utility.yul\":2133:2172   */\n      tag_87\n      jump\t// in\n    tag_136:\n        /* \"#utility.yul\":2188:2259   */\n      tag_137\n        /* \"#utility.yul\":2252:2258   */\n      dup2\n        /* \"#utility.yul\":2247:2250   */\n      dup6\n        /* \"#utility.yul\":2188:2259   */\n      tag_88\n      jump\t// in\n    tag_137:\n        /* \"#utility.yul\":2181:2259   */\n      swap4\n      pop\n        /* \"#utility.yul\":2268:2333   */\n      tag_138\n        /* \"#utility.yul\":2326:2332   */\n      dup2\n        /* \"#utility.yul\":2321:2324   */\n      dup6\n        /* \"#utility.yul\":2314:2318   */\n      0x20\n        /* \"#utility.yul\":2307:2312   */\n      dup7\n        /* \"#utility.yul\":2303:2319   */\n      add\n        /* \"#utility.yul\":2268:2333   */\n      tag_89\n      jump\t// in\n    tag_138:\n        /* \"#utility.yul\":2358:2387   */\n      tag_139\n        /* \"#utility.yul\":2380:2386   */\n      dup2\n        /* \"#utility.yul\":2358:2387   */\n      tag_90\n      jump\t// in\n    tag_139:\n        /* \"#utility.yul\":2353:2356   */\n      dup5\n        /* \"#utility.yul\":2349:2388   */\n      add\n        /* \"#utility.yul\":2342:2388   */\n      swap2\n      pop\n        /* \"#utility.yul\":2109:2394   */\n      pop\n        /* \"#utility.yul\":2017:2394   */\n      swap3\n      swap2\n      pop\n      pop\n      jump\t// out\n        /* \"#utility.yul\":2400:2933   */\n    tag_27:\n        /* \"#utility.yul\":2569:2573   */\n      0x00\n        /* \"#utility.yul\":2607:2609   */\n      0x60\n        /* \"#utility.yul\":2596:2605   */\n      dup3\n        /* \"#utility.yul\":2592:2610   */\n      add\n        /* \"#utility.yul\":2584:2610   */\n      swap1\n      pop\n        /* \"#utility.yul\":2620:2691   */\n      tag_141\n        /* \"#utility.yul\":2688:2689   */\n      0x00\n        /* \"#utility.yul\":2677:2686   */\n      dup4\n        /* \"#utility.yul\":2673:2690   */\n      add\n        /* \"#utility.yul\":2664:2670   */\n      dup7\n        /* \"#utility.yul\":2620:2691   */\n      tag_86\n      jump\t// in\n    tag_141:\n        /* \"#utility.yul\":2738:2747   */\n      dup2\n        /* \"#utility.yul\":2732:2736   */\n      dup2\n        /* \"#utility.yul\":2728:2748   */\n      sub\n        /* \"#utility.yul\":2723:2725   */\n      0x20\n        /* \"#utility.yul\":2712:2721   */\n      dup4\n        /* \"#utility.yul\":2708:2726   */\n      add\n        /* \"#utility.yul\":2701:2749   */\n      mstore\n        /* \"#utility.yul\":2766:2844   */\n      tag_142\n        /* \"#utility.yul\":2839:2843   */\n      dup2\n        /* \"#utility.yul\":2830:2836   */\n      dup6\n        /* \"#utility.yul\":2766:2844   */\n      tag_91\n      jump\t// in\n    tag_142:\n        /* \"#utility.yul\":2758:2844   */\n      swap1\n      pop\n        /* \"#utility.yul\":2854:2926   */\n      tag_143\n        /* \"#utility.yul\":2922:2924   */\n      0x40\n        /* \"#utility.yul\":2911:2920   */\n      dup4\n        /* \"#utility.yul\":2907:2925   */\n      add\n        /* \"#utility.yul\":2898:2904   */\n      dup5\n        /* \"#utility.yul\":2854:2926   */\n      tag_86\n      jump\t// in\n    tag_143:\n        /* \"#utility.yul\":2400:2933   */\n      swap5\n      swap4\n      pop\n      pop\n      pop\n      pop\n      jump\t// out\n        /* \"#utility.yul\":2939:3252   */\n    tag_33:\n        /* \"#utility.yul\":3052:3056   */\n      0x00\n        /* \"#utility.yul\":3090:3092   */\n      0x20\n        /* \"#utility.yul\":3079:3088   */\n      dup3\n        /* \"#utility.yul\":3075:3093   */\n      add\n        /* \"#utility.yul\":3067:3093   */\n      swap1\n      pop\n        /* \"#utility.yul\":3139:3148   */\n      dup2\n        /* \"#utility.yul\":3133:3137   */\n      dup2\n        /* \"#utility.yul\":3129:3149   */\n      sub\n        /* \"#utility.yul\":3125:3126   */\n      0x00\n        /* \"#utility.yul\":3114:3123   */\n      dup4\n        /* \"#utility.yul\":3110:3127   */\n      add\n        /* \"#utility.yul\":3103:3150   */\n      mstore\n        /* \"#utility.yul\":3167:3245   */\n      tag_145\n        /* \"#utility.yul\":3240:3244   */\n      dup2\n        /* \"#utility.yul\":3231:3237   */\n      dup5\n        /* \"#utility.yul\":3167:3245   */\n      tag_91\n      jump\t// in\n    tag_145:\n        /* \"#utility.yul\":3159:3245   */\n      swap1\n      pop\n        /* \"#utility.yul\":2939:3252   */\n      swap3\n      swap2\n      pop\n      pop\n      jump\t// out\n        /* \"#utility.yul\":3258:3384   */\n    tag_92:\n        /* \"#utility.yul\":3295:3302   */\n      0x00\n        /* \"#utility.yul\":3335:3377   */\n      0xffffffffffffffffffffffffffffffffffffffff\n        /* \"#utility.yul\":3328:3333   */\n      dup3\n        /* \"#utility.yul\":3324:3378   */\n      and\n        /* \"#utility.yul\":3313:3378   */\n      swap1\n      pop\n        /* \"#utility.yul\":3258:3384   */\n      swap2\n      swap1\n      pop\n      jump\t// out\n        /* \"#utility.yul\":3390:3486   */\n    tag_93:\n        /* \"#utility.yul\":3427:3434   */\n      0x00\n        /* \"#utility.yul\":3456:3480   */\n      tag_148\n        /* \"#utility.yul\":3474:3479   */\n      dup3\n        /* \"#utility.yul\":3456:3480   */\n      tag_92\n      jump\t// in\n    tag_148:\n        /* \"#utility.yul\":3445:3480   */\n      swap1\n      pop\n        /* \"#utility.yul\":3390:3486   */\n      swap2\n      swap1\n      pop\n      jump\t// out\n        /* \"#utility.yul\":3492:3614   */\n    tag_94:\n        /* \"#utility.yul\":3565:3589   */\n      tag_150\n        /* \"#utility.yul\":3583:3588   */\n      dup2\n        /* \"#utility.yul\":3565:3589   */\n      tag_93\n      jump\t// in\n    tag_150:\n        /* \"#utility.yul\":3558:3563   */\n      dup2\n        /* \"#utility.yul\":3555:3590   */\n      eq\n        /* \"#utility.yul\":3545:3608   */\n      tag_151\n      jumpi\n        /* \"#utility.yul\":3604:3605   */\n      0x00\n        /* \"#utility.yul\":3601:3602   */\n      dup1\n        /* \"#utility.yul\":3594:3606   */\n      revert\n        /* \"#utility.yul\":3545:3608   */\n    tag_151:\n        /* \"#utility.yul\":3492:3614   */\n      pop\n      jump\t// out\n        /* \"#utility.yul\":3620:3759   */\n    tag_95:\n        /* \"#utility.yul\":3666:3671   */\n      0x00\n        /* \"#utility.yul\":3704:3710   */\n      dup2\n        /* \"#utility.yul\":3691:3711   */\n      calldataload\n        /* \"#utility.yul\":3682:3711   */\n      swap1\n      pop\n        /* \"#utility.yul\":3720:3753   */\n      tag_153\n        /* \"#utility.yul\":3747:3752   */\n      dup2\n        /* \"#utility.yul\":3720:3753   */\n      tag_94\n      jump\t// in\n    tag_153:\n        /* \"#utility.yul\":3620:3759   */\n      swap3\n      swap2\n      pop\n      pop\n      jump\t// out\n        /* \"#utility.yul\":3765:4094   */\n    tag_36:\n        /* \"#utility.yul\":3824:3830   */\n      0x00\n        /* \"#utility.yul\":3873:3875   */\n      0x20\n        /* \"#utility.yul\":3861:3870   */\n      dup3\n        /* \"#utility.yul\":3852:3859   */\n      dup5\n        /* \"#utility.yul\":3848:3871   */\n      sub\n        /* \"#utility.yul\":3844:3876   */\n      slt\n        /* \"#utility.yul\":3841:3960   */\n      iszero\n      tag_155\n      jumpi\n        /* \"#utility.yul\":3879:3958   */\n      tag_156\n      tag_81\n      jump\t// in\n    tag_156:\n        /* \"#utility.yul\":3841:3960   */\n    tag_155:\n        /* \"#utility.yul\":3999:4000   */\n      0x00\n        /* \"#utility.yul\":4024:4077   */\n      tag_157\n        /* \"#utility.yul\":4069:4076   */\n      dup5\n        /* \"#utility.yul\":4060:4066   */\n      dup3\n        /* \"#utility.yul\":4049:4058   */\n      dup6\n        /* \"#utility.yul\":4045:4067   */\n      add\n        /* \"#utility.yul\":4024:4077   */\n      tag_95\n      jump\t// in\n    tag_157:\n        /* \"#utility.yul\":4014:4077   */\n      swap2\n      pop\n        /* \"#utility.yul\":3970:4087   */\n      pop\n        /* \"#utility.yul\":3765:4094   */\n      swap3\n      swap2\n      pop\n      pop\n      jump\t// out\n        /* \"#utility.yul\":4100:4190   */\n    tag_96:\n        /* \"#utility.yul\":4134:4141   */\n      0x00\n        /* \"#utility.yul\":4177:4182   */\n      dup2\n        /* \"#utility.yul\":4170:4183   */\n      iszero\n        /* \"#utility.yul\":4163:4184   */\n      iszero\n        /* \"#utility.yul\":4152:4184   */\n      swap1\n      pop\n        /* \"#utility.yul\":4100:4190   */\n      swap2\n      swap1\n      pop\n      jump\t// out\n        /* \"#utility.yul\":4196:4305   */\n    tag_97:\n        /* \"#utility.yul\":4277:4298   */\n      tag_160\n        /* \"#utility.yul\":4292:4297   */\n      dup2\n        /* \"#utility.yul\":4277:4298   */\n      tag_96\n      jump\t// in\n    tag_160:\n        /* \"#utility.yul\":4272:4275   */\n      dup3\n        /* \"#utility.yul\":4265:4299   */\n      mstore\n        /* \"#utility.yul\":4196:4305   */\n      pop\n      pop\n      jump\t// out\n        /* \"#utility.yul\":4311:4521   */\n    tag_39:\n        /* \"#utility.yul\":4398:4402   */\n      0x00\n        /* \"#utility.yul\":4436:4438   */\n      0x20\n        /* \"#utility.yul\":4425:4434   */\n      dup3\n        /* \"#utility.yul\":4421:4439   */\n      add\n        /* \"#utility.yul\":4413:4439   */\n      swap1\n      pop\n        /* \"#utility.yul\":4449:4514   */\n      tag_162\n        /* \"#utility.yul\":4511:4512   */\n      0x00\n        /* \"#utility.yul\":4500:4509   */\n      dup4\n        /* \"#utility.yul\":4496:4513   */\n      add\n        /* \"#utility.yul\":4487:4493   */\n      dup5\n        /* \"#utility.yul\":4449:4514   */\n      tag_97\n      jump\t// in\n    tag_162:\n        /* \"#utility.yul\":4311:4521   */\n      swap3\n      swap2\n      pop\n      pop\n      jump\t// out\n        /* \"#utility.yul\":4527:4700   */\n    tag_98:\n        /* \"#utility.yul\":4667:4692   */\n      0x596f75206861766520616c726561647920766f7465642e000000000000000000\n        /* \"#utility.yul\":4663:4664   */\n      0x00\n        /* \"#utility.yul\":4655:4661   */\n      dup3\n        /* \"#utility.yul\":4651:4665   */\n      add\n        /* \"#utility.yul\":4644:4693   */\n      mstore\n        /* \"#utility.yul\":4527:4700   */\n      pop\n      jump\t// out\n        /* \"#utility.yul\":4706:5072   */\n    tag_99:\n        /* \"#utility.yul\":4848:4851   */\n      0x00\n        /* \"#utility.yul\":4869:4936   */\n      tag_165\n        /* \"#utility.yul\":4933:4935   */\n      0x17\n        /* \"#utility.yul\":4928:4931   */\n      dup4\n        /* \"#utility.yul\":4869:4936   */\n      tag_88\n      jump\t// in\n    tag_165:\n        /* \"#utility.yul\":4862:4936   */\n      swap2\n      pop\n        /* \"#utility.yul\":4945:5038   */\n      tag_166\n        /* \"#utility.yul\":5034:5037   */\n      dup3\n        /* \"#utility.yul\":4945:5038   */\n      tag_98\n      jump\t// in\n    tag_166:\n        /* \"#utility.yul\":5063:5065   */\n      0x20\n        /* \"#utility.yul\":5058:5061   */\n      dup3\n        /* \"#utility.yul\":5054:5066   */\n      add\n        /* \"#utility.yul\":5047:5066   */\n      swap1\n      pop\n        /* \"#utility.yul\":4706:5072   */\n      swap2\n      swap1\n      pop\n      jump\t// out\n        /* \"#utility.yul\":5078:5497   */\n    tag_46:\n        /* \"#utility.yul\":5244:5248   */\n      0x00\n        /* \"#utility.yul\":5282:5284   */\n      0x20\n        /* \"#utility.yul\":5271:5280   */\n      dup3\n        /* \"#utility.yul\":5267:5285   */\n      add\n        /* \"#utility.yul\":5259:5285   */\n      swap1\n      pop\n        /* \"#utility.yul\":5331:5340   */\n      dup2\n        /* \"#utility.yul\":5325:5329   */\n      dup2\n        /* \"#utility.yul\":5321:5341   */\n      sub\n        /* \"#utility.yul\":5317:5318   */\n      0x00\n        /* \"#utility.yul\":5306:5315   */\n      dup4\n        /* \"#utility.yul\":5302:5319   */\n      add\n        /* \"#utility.yul\":5295:5342   */\n      mstore\n        /* \"#utility.yul\":5359:5490   */\n      tag_168\n        /* \"#utility.yul\":5485:5489   */\n      dup2\n        /* \"#utility.yul\":5359:5490   */\n      tag_99\n      jump\t// in\n    tag_168:\n        /* \"#utility.yul\":5351:5490   */\n      swap1\n      pop\n        /* \"#utility.yul\":5078:5497   */\n      swap2\n      swap1\n      pop\n      jump\t// out\n        /* \"#utility.yul\":5503:5679   */\n    tag_100:\n        /* \"#utility.yul\":5643:5671   */\n      0x4e6f2063616e646964617465207769746820746861742049442e000000000000\n        /* \"#utility.yul\":5639:5640   */\n      0x00\n        /* \"#utility.yul\":5631:5637   */\n      dup3\n        /* \"#utility.yul\":5627:5641   */\n      add\n        /* \"#utility.yul\":5620:5672   */\n      mstore\n        /* \"#utility.yul\":5503:5679   */\n      pop\n      jump\t// out\n        /* \"#utility.yul\":5685:6051   */\n    tag_101:\n        /* \"#utility.yul\":5827:5830   */\n      0x00\n        /* \"#utility.yul\":5848:5915   */\n      tag_171\n        /* \"#utility.yul\":5912:5914   */\n      0x1a\n        /* \"#utility.yul\":5907:5910   */\n      dup4\n        /* \"#utility.yul\":5848:5915   */\n      tag_88\n      jump\t// in\n    tag_171:\n        /* \"#utility.yul\":5841:5915   */\n      swap2\n      pop\n        /* \"#utility.yul\":5924:6017   */\n      tag_172\n        /* \"#utility.yul\":6013:6016   */\n      dup3\n        /* \"#utility.yul\":5924:6017   */\n      tag_100\n      jump\t// in\n    tag_172:\n        /* \"#utility.yul\":6042:6044   */\n      0x20\n        /* \"#utility.yul\":6037:6040   */\n      dup3\n        /* \"#utility.yul\":6033:6045   */\n      add\n        /* \"#utility.yul\":6026:6045   */\n      swap1\n      pop\n        /* \"#utility.yul\":5685:6051   */\n      swap2\n      swap1\n      pop\n      jump\t// out\n        /* \"#utility.yul\":6057:6476   */\n    tag_50:\n        /* \"#utility.yul\":6223:6227   */\n      0x00\n        /* \"#utility.yul\":6261:6263   */\n      0x20\n        /* \"#utility.yul\":6250:6259   */\n      dup3\n        /* \"#utility.yul\":6246:6264   */\n      add\n        /* \"#utility.yul\":6238:6264   */\n      swap1\n      pop\n        /* \"#utility.yul\":6310:6319   */\n      dup2\n        /* \"#utility.yul\":6304:6308   */\n      dup2\n        /* \"#utility.yul\":6300:6320   */\n      sub\n        /* \"#utility.yul\":6296:6297   */\n      0x00\n        /* \"#utility.yul\":6285:6294   */\n      dup4\n        /* \"#utility.yul\":6281:6298   */\n      add\n        /* \"#utility.yul\":6274:6321   */\n      mstore\n        /* \"#utility.yul\":6338:6469   */\n      tag_174\n        /* \"#utility.yul\":6464:6468   */\n      dup2\n        /* \"#utility.yul\":6338:6469   */\n      tag_101\n      jump\t// in\n    tag_174:\n        /* \"#utility.yul\":6330:6469   */\n      swap1\n      pop\n        /* \"#utility.yul\":6057:6476   */\n      swap2\n      swap1\n      pop\n      jump\t// out\n        /* \"#utility.yul\":6482:6651   */\n    tag_102:\n        /* \"#utility.yul\":6622:6643   */\n      0x456c656374696f6e2068617320656e6465642e00000000000000000000000000\n        /* \"#utility.yul\":6618:6619   */\n      0x00\n        /* \"#utility.yul\":6610:6616   */\n      dup3\n        /* \"#utility.yul\":6606:6620   */\n      add\n        /* \"#utility.yul\":6599:6644   */\n      mstore\n        /* \"#utility.yul\":6482:6651   */\n      pop\n      jump\t// out\n        /* \"#utility.yul\":6657:7023   */\n    tag_103:\n        /* \"#utility.yul\":6799:6802   */\n      0x00\n        /* \"#utility.yul\":6820:6887   */\n      tag_177\n        /* \"#utility.yul\":6884:6886   */\n      0x13\n        /* \"#utility.yul\":6879:6882   */\n      dup4\n        /* \"#utility.yul\":6820:6887   */\n      tag_88\n      jump\t// in\n    tag_177:\n        /* \"#utility.yul\":6813:6887   */\n      swap2\n      pop\n        /* \"#utility.yul\":6896:6989   */\n      tag_178\n        /* \"#utility.yul\":6985:6988   */\n      dup3\n        /* \"#utility.yul\":6896:6989   */\n      tag_102\n      jump\t// in\n    tag_178:\n        /* \"#utility.yul\":7014:7016   */\n      0x20\n        /* \"#utility.yul\":7009:7012   */\n      dup3\n        /* \"#utility.yul\":7005:7017   */\n      add\n        /* \"#utility.yul\":6998:7017   */\n      swap1\n      pop\n        /* \"#utility.yul\":6657:7023   */\n      swap2\n      swap1\n      pop\n      jump\t// out\n        /* \"#utility.yul\":7029:7448   */\n    tag_53:\n        /* \"#utility.yul\":7195:7199   */\n      0x00\n        /* \"#utility.yul\":7233:7235   */\n      0x20\n        /* \"#utility.yul\":7222:7231   */\n      dup3\n        /* \"#utility.yul\":7218:7236   */\n      add\n        /* \"#utility.yul\":7210:7236   */\n      swap1\n      pop\n        /* \"#utility.yul\":7282:7291   */\n      dup2\n        /* \"#utility.yul\":7276:7280   */\n      dup2\n        /* \"#utility.yul\":7272:7292   */\n      sub\n        /* \"#utility.yul\":7268:7269   */\n      0x00\n        /* \"#utility.yul\":7257:7266   */\n      dup4\n        /* \"#utility.yul\":7253:7270   */\n      add\n        /* \"#utility.yul\":7246:7293   */\n      mstore\n        /* \"#utility.yul\":7310:7441   */\n      tag_180\n        /* \"#utility.yul\":7436:7440   */\n      dup2\n        /* \"#utility.yul\":7310:7441   */\n      tag_103\n      jump\t// in\n    tag_180:\n        /* \"#utility.yul\":7302:7441   */\n      swap1\n      pop\n        /* \"#utility.yul\":7029:7448   */\n      swap2\n      swap1\n      pop\n      jump\t// out\n        /* \"#utility.yul\":7454:7634   */\n    tag_104:\n        /* \"#utility.yul\":7502:7579   */\n      0x4e487b7100000000000000000000000000000000000000000000000000000000\n        /* \"#utility.yul\":7499:7500   */\n      0x00\n        /* \"#utility.yul\":7492:7580   */\n      mstore\n        /* \"#utility.yul\":7599:7603   */\n      0x11\n        /* \"#utility.yul\":7596:7597   */\n      0x04\n        /* \"#utility.yul\":7589:7604   */\n      mstore\n        /* \"#utility.yul\":7623:7627   */\n      0x24\n        /* \"#utility.yul\":7620:7621   */\n      0x00\n        /* \"#utility.yul\":7613:7628   */\n      revert\n        /* \"#utility.yul\":7640:7873   */\n    tag_55:\n        /* \"#utility.yul\":7679:7682   */\n      0x00\n        /* \"#utility.yul\":7702:7726   */\n      tag_183\n        /* \"#utility.yul\":7720:7725   */\n      dup3\n        /* \"#utility.yul\":7702:7726   */\n      tag_83\n      jump\t// in\n    tag_183:\n        /* \"#utility.yul\":7693:7726   */\n      swap2\n      pop\n        /* \"#utility.yul\":7748:7814   */\n      0xffffffffffffffffffffffffffffffffffffffffffffffffffffffffffffffff\n        /* \"#utility.yul\":7741:7746   */\n      dup3\n        /* \"#utility.yul\":7738:7815   */\n      sub\n        /* \"#utility.yul\":7735:7838   */\n      tag_184\n      jumpi\n        /* \"#utility.yul\":7818:7836   */\n      tag_185\n      tag_104\n      jump\t// in\n    tag_185:\n        /* \"#utility.yul\":7735:7838   */\n    tag_184:\n        /* \"#utility.yul\":7865:7866   */\n      0x01\n        /* \"#utility.yul\":7858:7863   */\n      dup3\n        /* \"#utility.yul\":7854:7867   */\n      add\n        /* \"#utility.yul\":7847:7867   */\n      swap1\n      pop\n        /* \"#utility.yul\":7640:7873   */\n      swap2\n      swap1\n      pop\n      jump\t// out\n        /* \"#utility.yul\":7879:8059   */\n    tag_105:\n        /* \"#utility.yul\":7927:8004   */\n      0x4e487b7100000000000000000000000000000000000000000000000000000000\n        /* \"#utility.yul\":7924:7925   */\n      0x00\n        /* \"#utility.yul\":7917:8005   */\n      mstore\n        /* \"#utility.yul\":8024:8028   */\n      0x22\n        /* \"#utility.yul\":8021:8022   */\n      0x04\n        /* \"#utility.yul\":8014:8029   */\n      mstore\n        /* \"#utility.yul\":8048:8052   */\n      0x24\n        /* \"#utility.yul\":8045:8046   */\n      0x00\n        /* \"#utility.yul\":8038:8053   */\n      revert\n        /* \"#utility.yul\":8065:8385   */\n    tag_57:\n        /* \"#utility.yul\":8109:8115   */\n      0x00\n        /* \"#utility.yul\":8146:8147   */\n      0x02\n        /* \"#utility.yul\":8140:8144   */\n      dup3\n        /* \"#utility.yul\":8136:8148   */\n      div\n        /* \"#utility.yul\":8126:8148   */\n      swap1\n      pop\n        /* \"#utility.yul\":8193:8194   */\n      0x01\n        /* \"#utility.yul\":8187:8191   */\n      dup3\n        /* \"#utility.yul\":8183:8195   */\n      and\n        /* \"#utility.yul\":8214:8232   */\n      dup1\n        /* \"#utility.yul\":8204:8285   */\n      tag_188\n      jumpi\n        /* \"#utility.yul\":8270:8274   */\n      0x7f\n        /* \"#utility.yul\":8262:8268   */\n      dup3\n        /* \"#utility.yul\":8258:8275   */\n      and\n        /* \"#utility.yul\":8248:8275   */\n      swap2\n      pop\n        /* \"#utility.yul\":8204:8285   */\n    tag_188:\n        /* \"#utility.yul\":8332:8334   */\n      0x20\n        /* \"#utility.yul\":8324:8330   */\n      dup3\n        /* \"#utility.yul\":8321:8335   */\n      lt\n        /* \"#utility.yul\":8301:8319   */\n      dup2\n        /* \"#utility.yul\":8298:8336   */\n      sub\n        /* \"#utility.yul\":8295:8379   */\n      tag_189\n      jumpi\n        /* \"#utility.yul\":8351:8369   */\n      tag_190\n      tag_105\n      jump\t// in\n    tag_190:\n        /* \"#utility.yul\":8295:8379   */\n    tag_189:\n        /* \"#utility.yul\":8116:8385   */\n      pop\n        /* \"#utility.yul\":8065:8385   */\n      swap2\n      swap1\n      pop\n      jump\t// out\n        /* \"#utility.yul\":8391:8564   */\n    tag_106:\n        /* \"#utility.yul\":8531:8556   */\n      0x456c656374696f6e20616c726561647920656e6465642e000000000000000000\n        /* \"#utility.yul\":8527:8528   */\n      0x00\n        /* \"#utility.yul\":8519:8525   */\n      dup3\n        /* \"#utility.yul\":8515:8529   */\n      add\n        /* \"#utility.yul\":8508:8557   */\n      mstore\n        /* \"#utility.yul\":8391:8564   */\n      pop\n      jump\t// out\n        /* \"#utility.yul\":8570:8936   */\n    tag_107:\n        /* \"#utility.yul\":8712:8715   */\n      0x00\n        /* \"#utility.yul\":8733:8800   */\n      tag_193\n        /* \"#utility.yul\":8797:8799   */\n      0x17\n        /* \"#utility.yul\":8792:8795   */\n      dup4\n        /* \"#utility.yul\":8733:8800   */\n      tag_88\n      jump\t// in\n    tag_193:\n        /* \"#utility.yul\":8726:8800   */\n      swap2\n      pop\n        /* \"#utility.yul\":8809:8902   */\n      tag_194\n        /* \"#utility.yul\":8898:8901   */\n      dup3\n        /* \"#utility.yul\":8809:8902   */\n      tag_106\n      jump\t// in\n    tag_194:\n        /* \"#utility.yul\":8927:8929   */\n      0x20\n        /* \"#utility.yul\":8922:8925   */\n      dup3\n        /* \"#utility.yul\":8918:8930   */\n      add\n        /* \"#utility.yul\":8911:8930   */\n      swap1\n      pop\n        /* \"#utility.yul\":8570:8936   */\n      swap2\n      swap1\n      pop\n      jump\t// out\n        /* \"#utility.yul\":8942:9361   */\n    tag_65:\n        /* \"#utility.yul\":9108:9112   */\n      0x00\n        /* \"#utility.yul\":9146:9148   */\n      0x20\n        /* \"#utility.yul\":9135:9144   */\n      dup3\n        /* \"#utility.yul\":9131:9149   */\n      add\n        /* \"#utility.yul\":9123:9149   */\n      swap1\n      pop\n        /* \"#utility.yul\":9195:9204   */\n      dup2\n        /* \"#utility.yul\":9189:9193   */\n      dup2\n        /* \"#utility.yul\":9185:9205   */\n      sub\n        /* \"#utility.yul\":9181:9182   */\n      0x00\n        /* \"#utility.yul\":9170:9179   */\n      dup4\n        /* \"#utility.yul\":9166:9183   */\n      add\n        /* \"#utility.yul\":9159:9206   */\n      mstore\n        /* \"#utility.yul\":9223:9354   */\n      tag_196\n        /* \"#utility.yul\":9349:9353   */\n      dup2\n        /* \"#utility.yul\":9223:9354   */\n      tag_107\n      jump\t// in\n    tag_196:\n        /* \"#utility.yul\":9215:9354   */\n      swap1\n      pop\n        /* \"#utility.yul\":8942:9361   */\n      swap2\n      swap1\n      pop\n      jump\t// out\n        /* \"#utility.yul\":9367:9542   */\n    tag_108:\n        /* \"#utility.yul\":9507:9534   */\n      0x456c656374696f6e206973206e6f74206f766572207965742e00000000000000\n        /* \"#utility.yul\":9503:9504   */\n      0x00\n        /* \"#utility.yul\":9495:9501   */\n      dup3\n        /* \"#utility.yul\":9491:9505   */\n      add\n        /* \"#utility.yul\":9484:9535   */\n      mstore\n        /* \"#utility.yul\":9367:9542   */\n      pop\n      jump\t// out\n        /* \"#utility.yul\":9548:9914   */\n    tag_109:\n        /* \"#utility.yul\":9690:9693   */\n      0x00\n        /* \"#utility.yul\":9711:9778   */\n      tag_199\n        /* \"#utility.yul\":9775:9777   */\n      0x19\n        /* \"#utility.yul\":9770:9773   */\n      dup4\n        /* \"#utility.yul\":9711:9778   */\n      tag_88\n      jump\t// in\n    tag_199:\n        /* \"#utility.yul\":9704:9778   */\n      swap2\n      pop\n        /* \"#utility.yul\":9787:9880   */\n      tag_200\n        /* \"#utility.yul\":9876:9879   */\n      dup3\n        /* \"#utility.yul\":9787:9880   */\n      tag_108\n      jump\t// in\n    tag_200:\n        /* \"#utility.yul\":9905:9907   */\n      0x20\n        /* \"#utility.yul\":9900:9903   */\n      dup3\n        /* \"#utility.yul\":9896:9908   */\n      add\n        /* \"#utility.yul\":9889:9908   */\n      swap1\n      pop\n        /* \"#utility.yul\":9548:9914   */\n      swap2\n      swap1\n      pop\n      jump\t// out\n        /* \"#utility.yul\":9920:10339   */\n    tag_74:\n        /* \"#utility.yul\":10086:10090   */\n      0x00\n        /* \"#utility.yul\":10124:10126   */\n      0x20\n        /* \"#utility.yul\":10113:10122   */\n      dup3\n        /* \"#utility.yul\":10109:10127   */\n      add\n        /* \"#utility.yul\":10101:10127   */\n      swap1\n      pop\n        /* \"#utility.yul\":10173:10182   */\n      dup2\n        /* \"#utility.yul\":10167:10171   */\n      dup2\n        /* \"#utility.yul\":10163:10183   */\n      sub\n        /* \"#utility.yul\":10159:10160   */\n      0x00\n        /* \"#utility.yul\":10148:10157   */\n      dup4\n        /* \"#utility.yul\":10144:10161   */\n      add\n        /* \"#utility.yul\":10137:10184   */\n      mstore\n        /* \"#utility.yul\":10201:10332   */\n      tag_202\n        /* \"#utility.yul\":10327:10331   */\n      dup2\n        /* \"#utility.yul\":10201:10332   */\n      tag_109\n      jump\t// in\n    tag_202:\n        /* \"#utility.yul\":10193:10332   */\n      swap1\n      pop\n        /* \"#utility.yul\":9920:10339   */\n      swap2\n      swap1\n      pop\n      jump\t// out\n\n    auxdata: 0xa26469706673582212208d29d6ef1ca3f9f638939d641531e8cde97bdd2abd563406814056e2ae490c5064736f6c63430008120033\n}\n",
				"bytecode": {
					"linkReferences": {},
					"object": "60806040523480156200001157600080fd5b50620000586040518060400160405280600b81526020017f43616e6469646174652031000000000000000000000000000000000000000000815250620000bf60201b60201c565b6200009e6040518060400160405280600b81526020017f43616e6469646174652032000000000000000000000000000000000000000000815250620000bf60201b60201c565b6000600460006101000a81548160ff0219169083151502179055506200051a565b60026000815480929190620000d49062000176565b919050555060405180606001604052806002548152602001828152602001600081525060008060025481526020019081526020016000206000820151816000015560208201518160010190816200012c919062000433565b506040820151816002015590505050565b7f4e487b7100000000000000000000000000000000000000000000000000000000600052601160045260246000fd5b6000819050919050565b600062000183826200016c565b91507fffffffffffffffffffffffffffffffffffffffffffffffffffffffffffffffff8203620001b857620001b76200013d565b5b600182019050919050565b600081519050919050565b7f4e487b7100000000000000000000000000000000000000000000000000000000600052604160045260246000fd5b7f4e487b7100000000000000000000000000000000000000000000000000000000600052602260045260246000fd5b600060028204905060018216806200024557607f821691505b6020821081036200025b576200025a620001fd565b5b50919050565b60008190508160005260206000209050919050565b60006020601f8301049050919050565b600082821b905092915050565b600060088302620002c57fffffffffffffffffffffffffffffffffffffffffffffffffffffffffffffffff8262000286565b620002d1868362000286565b95508019841693508086168417925050509392505050565b6000819050919050565b6000620003146200030e62000308846200016c565b620002e9565b6200016c565b9050919050565b6000819050919050565b6200033083620002f3565b620003486200033f826200031b565b84845462000293565b825550505050565b600090565b6200035f62000350565b6200036c81848462000325565b505050565b5b8181101562000394576200038860008262000355565b60018101905062000372565b5050565b601f821115620003e357620003ad8162000261565b620003b88462000276565b81016020851015620003c8578190505b620003e0620003d78562000276565b83018262000371565b50505b505050565b600082821c905092915050565b60006200040860001984600802620003e8565b1980831691505092915050565b6000620004238383620003f5565b9150826002028217905092915050565b6200043e82620001c3565b67ffffffffffffffff8111156200045a5762000459620001ce565b5b6200046682546200022c565b6200047382828562000398565b600060209050601f831160018114620004ab576000841562000496578287015190505b620004a2858262000415565b86555062000512565b601f198416620004bb8662000261565b60005b82811015620004e557848901518255600182019150602085019450602081019050620004be565b8683101562000505578489015162000501601f891682620003f5565b8355505b6001600288020188555050505b505050505050565b610b90806200052a6000396000f3fe608060405234801561001057600080fd5b50600436106100885760003560e01c806359f784681161005b57806359f78468146101175780638e7ea5b214610121578063a3ec138d1461013f578063c94ca9e31461016f57610088565b80630121b93f1461008d5780632d35a8a2146100a9578063337ebd7a146100c75780633477ee2e146100e5575b600080fd5b6100a760048036038101906100a2919061065f565b61018d565b005b6100b161036d565b6040516100be919061069b565b60405180910390f35b6100cf610373565b6040516100dc919061069b565b60405180910390f35b6100ff60048036038101906100fa919061065f565b610379565b60405161010e93929190610746565b60405180910390f35b61011f61042b565b005b6101296104fb565b6040516101369190610784565b60405180910390f35b61015960048036038101906101549190610804565b6105f1565b604051610166919061084c565b60405180910390f35b610177610611565b604051610184919061084c565b60405180910390f35b600160003373ffffffffffffffffffffffffffffffffffffffff1673ffffffffffffffffffffffffffffffffffffffff16815260200190815260200160002060009054906101000a900460ff161561021a576040517f08c379a0000000000000000000000000000000000000000000000000000000008152600401610211906108b3565b60405180910390fd5b60008111801561022c57506002548111155b61026b576040517f08c379a00000000000000000000000000000000000000000000000000000000081526004016102629061091f565b60405180910390fd5b600460009054906101000a900460ff16156102bb576040517f08c379a00000000000000000000000000000000000000000000000000000000081526004016102b29061098b565b60405180910390fd5b60018060003373ffffffffffffffffffffffffffffffffffffffff1673ffffffffffffffffffffffffffffffffffffffff16815260200190815260200160002060006101000a81548160ff0219169083151502179055506000808281526020019081526020016000206002016000815480929190610338906109da565b9190505550807ffff3c900d938d21d0990d786e819f29b8d05c1ef587b462b939609625b684b1660405160405180910390a250565b60025481565b60035481565b60006020528060005260406000206000915090508060000154908060010180546103a290610a51565b80601f01602080910402602001604051908101604052809291908181526020018280546103ce90610a51565b801561041b5780601f106103f05761010080835404028352916020019161041b565b820191906000526020600020905b8154815290600101906020018083116103fe57829003601f168201915b5050505050908060020154905083565b600460009054906101000a900460ff161561047b576040517f08c379a000000000000000000000000000000000000000000000000000000000815260040161047290610ace565b60405180910390fd5b6001600460006101000a81548160ff021916908315150217905550600080600190505b60025481116104f757816000808381526020019081526020016000206002015411156104e457600080828152602001908152602001600020600201549150806003819055505b80806104ef906109da565b91505061049e565b5050565b6060600460009054906101000a900460ff1661054c576040517f08c379a000000000000000000000000000000000000000000000000000000000815260040161054390610b3a565b60405180910390fd5b6000806003548152602001908152602001600020600101805461056e90610a51565b80601f016020809104026020016040519081016040528092919081815260200182805461059a90610a51565b80156105e75780601f106105bc576101008083540402835291602001916105e7565b820191906000526020600020905b8154815290600101906020018083116105ca57829003601f168201915b5050505050905090565b60016020528060005260406000206000915054906101000a900460ff1681565b600460009054906101000a900460ff1681565b600080fd5b6000819050919050565b61063c81610629565b811461064757600080fd5b50565b60008135905061065981610633565b92915050565b60006020828403121561067557610674610624565b5b60006106838482850161064a565b91505092915050565b61069581610629565b82525050565b60006020820190506106b0600083018461068c565b92915050565b600081519050919050565b600082825260208201905092915050565b60005b838110156106f05780820151818401526020810190506106d5565b60008484015250505050565b6000601f19601f8301169050919050565b6000610718826106b6565b61072281856106c1565b93506107328185602086016106d2565b61073b816106fc565b840191505092915050565b600060608201905061075b600083018661068c565b818103602083015261076d818561070d565b905061077c604083018461068c565b949350505050565b6000602082019050818103600083015261079e818461070d565b905092915050565b600073ffffffffffffffffffffffffffffffffffffffff82169050919050565b60006107d1826107a6565b9050919050565b6107e1816107c6565b81146107ec57600080fd5b50565b6000813590506107fe816107d8565b92915050565b60006020828403121561081a57610819610624565b5b6000610828848285016107ef565b91505092915050565b60008115159050919050565b61084681610831565b82525050565b6000602082019050610861600083018461083d565b92915050565b7f596f75206861766520616c726561647920766f7465642e000000000000000000600082015250565b600061089d6017836106c1565b91506108a882610867565b602082019050919050565b600060208201905081810360008301526108cc81610890565b9050919050565b7f4e6f2063616e646964617465207769746820746861742049442e000000000000600082015250565b6000610909601a836106c1565b9150610914826108d3565b602082019050919050565b60006020820190508181036000830152610938816108fc565b9050919050565b7f456c656374696f6e2068617320656e6465642e00000000000000000000000000600082015250565b60006109756013836106c1565b91506109808261093f565b602082019050919050565b600060208201905081810360008301526109a481610968565b9050919050565b7f4e487b7100000000000000000000000000000000000000000000000000000000600052601160045260246000fd5b60006109e582610629565b91507fffffffffffffffffffffffffffffffffffffffffffffffffffffffffffffffff8203610a1757610a166109ab565b5b600182019050919050565b7f4e487b7100000000000000000000000000000000000000000000000000000000600052602260045260246000fd5b60006002820490506001821680610a6957607f821691505b602082108103610a7c57610a7b610a22565b5b50919050565b7f456c656374696f6e20616c726561647920656e6465642e000000000000000000600082015250565b6000610ab86017836106c1565b9150610ac382610a82565b602082019050919050565b60006020820190508181036000830152610ae781610aab565b9050919050565b7f456c656374696f6e206973206e6f74206f766572207965742e00000000000000600082015250565b6000610b246019836106c1565b9150610b2f82610aee565b602082019050919050565b60006020820190508181036000830152610b5381610b17565b905091905056fea26469706673582212208d29d6ef1ca3f9f638939d641531e8cde97bdd2abd563406814056e2ae490c5064736f6c63430008120033",
					"opcodes": "PUSH1 0x80 PUSH1 0x40 MSTORE CALLVALUE DUP1 ISZERO PUSH3 0x11 JUMPI PUSH1 0x0 DUP1 REVERT JUMPDEST POP PUSH3 0x58 PUSH1 0x40 MLOAD DUP1 PUSH1 0x40 ADD PUSH1 0x40 MSTORE DUP1 PUSH1 0xB DUP2 MSTORE PUSH1 0x20 ADD PUSH32 0x43616E6469646174652031000000000000000000000000000000000000000000 DUP2 MSTORE POP PUSH3 0xBF PUSH1 0x20 SHL PUSH1 0x20 SHR JUMP JUMPDEST PUSH3 0x9E PUSH1 0x40 MLOAD DUP1 PUSH1 0x40 ADD PUSH1 0x40 MSTORE DUP1 PUSH1 0xB DUP2 MSTORE PUSH1 0x20 ADD PUSH32 0x43616E6469646174652032000000000000000000000000000000000000000000 DUP2 MSTORE POP PUSH3 0xBF PUSH1 0x20 SHL PUSH1 0x20 SHR JUMP JUMPDEST PUSH1 0x0 PUSH1 0x4 PUSH1 0x0 PUSH2 0x100 EXP DUP2 SLOAD DUP2 PUSH1 0xFF MUL NOT AND SWAP1 DUP4 ISZERO ISZERO MUL OR SWAP1 SSTORE POP PUSH3 0x51A JUMP JUMPDEST PUSH1 0x2 PUSH1 0x0 DUP2 SLOAD DUP1 SWAP3 SWAP2 SWAP1 PUSH3 0xD4 SWAP1 PUSH3 0x176 JUMP JUMPDEST SWAP2 SWAP1 POP SSTORE POP PUSH1 0x40 MLOAD DUP1 PUSH1 0x60 ADD PUSH1 0x40 MSTORE DUP1 PUSH1 0x2 SLOAD DUP2 MSTORE PUSH1 0x20 ADD DUP3 DUP2 MSTORE PUSH1 0x20 ADD PUSH1 0x0 DUP2 MSTORE POP PUSH1 0x0 DUP1 PUSH1 0x2 SLOAD DUP2 MSTORE PUSH1 0x20 ADD SWAP1 DUP2 MSTORE PUSH1 0x20 ADD PUSH1 0x0 KECCAK256 PUSH1 0x0 DUP3 ADD MLOAD DUP2 PUSH1 0x0 ADD SSTORE PUSH1 0x20 DUP3 ADD MLOAD DUP2 PUSH1 0x1 ADD SWAP1 DUP2 PUSH3 0x12C SWAP2 SWAP1 PUSH3 0x433 JUMP JUMPDEST POP PUSH1 0x40 DUP3 ADD MLOAD DUP2 PUSH1 0x2 ADD SSTORE SWAP1 POP POP POP JUMP JUMPDEST PUSH32 0x4E487B7100000000000000000000000000000000000000000000000000000000 PUSH1 0x0 MSTORE PUSH1 0x11 PUSH1 0x4 MSTORE PUSH1 0x24 PUSH1 0x0 REVERT JUMPDEST PUSH1 0x0 DUP2 SWAP1 POP SWAP2 SWAP1 POP JUMP JUMPDEST PUSH1 0x0 PUSH3 0x183 DUP3 PUSH3 0x16C JUMP JUMPDEST SWAP2 POP PUSH32 0xFFFFFFFFFFFFFFFFFFFFFFFFFFFFFFFFFFFFFFFFFFFFFFFFFFFFFFFFFFFFFFFF DUP3 SUB PUSH3 0x1B8 JUMPI PUSH3 0x1B7 PUSH3 0x13D JUMP JUMPDEST JUMPDEST PUSH1 0x1 DUP3 ADD SWAP1 POP SWAP2 SWAP1 POP JUMP JUMPDEST PUSH1 0x0 DUP2 MLOAD SWAP1 POP SWAP2 SWAP1 POP JUMP JUMPDEST PUSH32 0x4E487B7100000000000000000000000000000000000000000000000000000000 PUSH1 0x0 MSTORE PUSH1 0x41 PUSH1 0x4 MSTORE PUSH1 0x24 PUSH1 0x0 REVERT JUMPDEST PUSH32 0x4E487B7100000000000000000000000000000000000000000000000000000000 PUSH1 0x0 MSTORE PUSH1 0x22 PUSH1 0x4 MSTORE PUSH1 0x24 PUSH1 0x0 REVERT JUMPDEST PUSH1 0x0 PUSH1 0x2 DUP3 DIV SWAP1 POP PUSH1 0x1 DUP3 AND DUP1 PUSH3 0x245 JUMPI PUSH1 0x7F DUP3 AND SWAP2 POP JUMPDEST PUSH1 0x20 DUP3 LT DUP2 SUB PUSH3 0x25B JUMPI PUSH3 0x25A PUSH3 0x1FD JUMP JUMPDEST JUMPDEST POP SWAP2 SWAP1 POP JUMP JUMPDEST PUSH1 0x0 DUP2 SWAP1 POP DUP2 PUSH1 0x0 MSTORE PUSH1 0x20 PUSH1 0x0 KECCAK256 SWAP1 POP SWAP2 SWAP1 POP JUMP JUMPDEST PUSH1 0x0 PUSH1 0x20 PUSH1 0x1F DUP4 ADD DIV SWAP1 POP SWAP2 SWAP1 POP JUMP JUMPDEST PUSH1 0x0 DUP3 DUP3 SHL SWAP1 POP SWAP3 SWAP2 POP POP JUMP JUMPDEST PUSH1 0x0 PUSH1 0x8 DUP4 MUL PUSH3 0x2C5 PUSH32 0xFFFFFFFFFFFFFFFFFFFFFFFFFFFFFFFFFFFFFFFFFFFFFFFFFFFFFFFFFFFFFFFF DUP3 PUSH3 0x286 JUMP JUMPDEST PUSH3 0x2D1 DUP7 DUP4 PUSH3 0x286 JUMP JUMPDEST SWAP6 POP DUP1 NOT DUP5 AND SWAP4 POP DUP1 DUP7 AND DUP5 OR SWAP3 POP POP POP SWAP4 SWAP3 POP POP POP JUMP JUMPDEST PUSH1 0x0 DUP2 SWAP1 POP SWAP2 SWAP1 POP JUMP JUMPDEST PUSH1 0x0 PUSH3 0x314 PUSH3 0x30E PUSH3 0x308 DUP5 PUSH3 0x16C JUMP JUMPDEST PUSH3 0x2E9 JUMP JUMPDEST PUSH3 0x16C JUMP JUMPDEST SWAP1 POP SWAP2 SWAP1 POP JUMP JUMPDEST PUSH1 0x0 DUP2 SWAP1 POP SWAP2 SWAP1 POP JUMP JUMPDEST PUSH3 0x330 DUP4 PUSH3 0x2F3 JUMP JUMPDEST PUSH3 0x348 PUSH3 0x33F DUP3 PUSH3 0x31B JUMP JUMPDEST DUP5 DUP5 SLOAD PUSH3 0x293 JUMP JUMPDEST DUP3 SSTORE POP POP POP POP JUMP JUMPDEST PUSH1 0x0 SWAP1 JUMP JUMPDEST PUSH3 0x35F PUSH3 0x350 JUMP JUMPDEST PUSH3 0x36C DUP2 DUP5 DUP5 PUSH3 0x325 JUMP JUMPDEST POP POP POP JUMP JUMPDEST JUMPDEST DUP2 DUP2 LT ISZERO PUSH3 0x394 JUMPI PUSH3 0x388 PUSH1 0x0 DUP3 PUSH3 0x355 JUMP JUMPDEST PUSH1 0x1 DUP2 ADD SWAP1 POP PUSH3 0x372 JUMP JUMPDEST POP POP JUMP JUMPDEST PUSH1 0x1F DUP3 GT ISZERO PUSH3 0x3E3 JUMPI PUSH3 0x3AD DUP2 PUSH3 0x261 JUMP JUMPDEST PUSH3 0x3B8 DUP5 PUSH3 0x276 JUMP JUMPDEST DUP2 ADD PUSH1 0x20 DUP6 LT ISZERO PUSH3 0x3C8 JUMPI DUP2 SWAP1 POP JUMPDEST PUSH3 0x3E0 PUSH3 0x3D7 DUP6 PUSH3 0x276 JUMP JUMPDEST DUP4 ADD DUP3 PUSH3 0x371 JUMP JUMPDEST POP POP JUMPDEST POP POP POP JUMP JUMPDEST PUSH1 0x0 DUP3 DUP3 SHR SWAP1 POP SWAP3 SWAP2 POP POP JUMP JUMPDEST PUSH1 0x0 PUSH3 0x408 PUSH1 0x0 NOT DUP5 PUSH1 0x8 MUL PUSH3 0x3E8 JUMP JUMPDEST NOT DUP1 DUP4 AND SWAP2 POP POP SWAP3 SWAP2 POP POP JUMP JUMPDEST PUSH1 0x0 PUSH3 0x423 DUP4 DUP4 PUSH3 0x3F5 JUMP JUMPDEST SWAP2 POP DUP3 PUSH1 0x2 MUL DUP3 OR SWAP1 POP SWAP3 SWAP2 POP POP JUMP JUMPDEST PUSH3 0x43E DUP3 PUSH3 0x1C3 JUMP JUMPDEST PUSH8 0xFFFFFFFFFFFFFFFF DUP2 GT ISZERO PUSH3 0x45A JUMPI PUSH3 0x459 PUSH3 0x1CE JUMP JUMPDEST JUMPDEST PUSH3 0x466 DUP3 SLOAD PUSH3 0x22C JUMP JUMPDEST PUSH3 0x473 DUP3 DUP3 DUP6 PUSH3 0x398 JUMP JUMPDEST PUSH1 0x0 PUSH1 0x20 SWAP1 POP PUSH1 0x1F DUP4 GT PUSH1 0x1 DUP2 EQ PUSH3 0x4AB JUMPI PUSH1 0x0 DUP5 ISZERO PUSH3 0x496 JUMPI DUP3 DUP8 ADD MLOAD SWAP1 POP JUMPDEST PUSH3 0x4A2 DUP6 DUP3 PUSH3 0x415 JUMP JUMPDEST DUP7 SSTORE POP PUSH3 0x512 JUMP JUMPDEST PUSH1 0x1F NOT DUP5 AND PUSH3 0x4BB DUP7 PUSH3 0x261 JUMP JUMPDEST PUSH1 0x0 JUMPDEST DUP3 DUP2 LT ISZERO PUSH3 0x4E5 JUMPI DUP5 DUP10 ADD MLOAD DUP3 SSTORE PUSH1 0x1 DUP3 ADD SWAP2 POP PUSH1 0x20 DUP6 ADD SWAP5 POP PUSH1 0x20 DUP2 ADD SWAP1 POP PUSH3 0x4BE JUMP JUMPDEST DUP7 DUP4 LT ISZERO PUSH3 0x505 JUMPI DUP5 DUP10 ADD MLOAD PUSH3 0x501 PUSH1 0x1F DUP10 AND DUP3 PUSH3 0x3F5 JUMP JUMPDEST DUP4 SSTORE POP JUMPDEST PUSH1 0x1 PUSH1 0x2 DUP9 MUL ADD DUP9 SSTORE POP POP POP JUMPDEST POP POP POP POP POP POP JUMP JUMPDEST PUSH2 0xB90 DUP1 PUSH3 0x52A PUSH1 0x0 CODECOPY PUSH1 0x0 RETURN INVALID PUSH1 0x80 PUSH1 0x40 MSTORE CALLVALUE DUP1 ISZERO PUSH2 0x10 JUMPI PUSH1 0x0 DUP1 REVERT JUMPDEST POP PUSH1 0x4 CALLDATASIZE LT PUSH2 0x88 JUMPI PUSH1 0x0 CALLDATALOAD PUSH1 0xE0 SHR DUP1 PUSH4 0x59F78468 GT PUSH2 0x5B JUMPI DUP1 PUSH4 0x59F78468 EQ PUSH2 0x117 JUMPI DUP1 PUSH4 0x8E7EA5B2 EQ PUSH2 0x121 JUMPI DUP1 PUSH4 0xA3EC138D EQ PUSH2 0x13F JUMPI DUP1 PUSH4 0xC94CA9E3 EQ PUSH2 0x16F JUMPI PUSH2 0x88 JUMP JUMPDEST DUP1 PUSH4 0x121B93F EQ PUSH2 0x8D JUMPI DUP1 PUSH4 0x2D35A8A2 EQ PUSH2 0xA9 JUMPI DUP1 PUSH4 0x337EBD7A EQ PUSH2 0xC7 JUMPI DUP1 PUSH4 0x3477EE2E EQ PUSH2 0xE5 JUMPI JUMPDEST PUSH1 0x0 DUP1 REVERT JUMPDEST PUSH2 0xA7 PUSH1 0x4 DUP1 CALLDATASIZE SUB DUP2 ADD SWAP1 PUSH2 0xA2 SWAP2 SWAP1 PUSH2 0x65F JUMP JUMPDEST PUSH2 0x18D JUMP JUMPDEST STOP JUMPDEST PUSH2 0xB1 PUSH2 0x36D JUMP JUMPDEST PUSH1 0x40 MLOAD PUSH2 0xBE SWAP2 SWAP1 PUSH2 0x69B JUMP JUMPDEST PUSH1 0x40 MLOAD DUP1 SWAP2 SUB SWAP1 RETURN JUMPDEST PUSH2 0xCF PUSH2 0x373 JUMP JUMPDEST PUSH1 0x40 MLOAD PUSH2 0xDC SWAP2 SWAP1 PUSH2 0x69B JUMP JUMPDEST PUSH1 0x40 MLOAD DUP1 SWAP2 SUB SWAP1 RETURN JUMPDEST PUSH2 0xFF PUSH1 0x4 DUP1 CALLDATASIZE SUB DUP2 ADD SWAP1 PUSH2 0xFA SWAP2 SWAP1 PUSH2 0x65F JUMP JUMPDEST PUSH2 0x379 JUMP JUMPDEST PUSH1 0x40 MLOAD PUSH2 0x10E SWAP4 SWAP3 SWAP2 SWAP1 PUSH2 0x746 JUMP JUMPDEST PUSH1 0x40 MLOAD DUP1 SWAP2 SUB SWAP1 RETURN JUMPDEST PUSH2 0x11F PUSH2 0x42B JUMP JUMPDEST STOP JUMPDEST PUSH2 0x129 PUSH2 0x4FB JUMP JUMPDEST PUSH1 0x40 MLOAD PUSH2 0x136 SWAP2 SWAP1 PUSH2 0x784 JUMP JUMPDEST PUSH1 0x40 MLOAD DUP1 SWAP2 SUB SWAP1 RETURN JUMPDEST PUSH2 0x159 PUSH1 0x4 DUP1 CALLDATASIZE SUB DUP2 ADD SWAP1 PUSH2 0x154 SWAP2 SWAP1 PUSH2 0x804 JUMP JUMPDEST PUSH2 0x5F1 JUMP JUMPDEST PUSH1 0x40 MLOAD PUSH2 0x166 SWAP2 SWAP1 PUSH2 0x84C JUMP JUMPDEST PUSH1 0x40 MLOAD DUP1 SWAP2 SUB SWAP1 RETURN JUMPDEST PUSH2 0x177 PUSH2 0x611 JUMP JUMPDEST PUSH1 0x40 MLOAD PUSH2 0x184 SWAP2 SWAP1 PUSH2 0x84C JUMP JUMPDEST PUSH1 0x40 MLOAD DUP1 SWAP2 SUB SWAP1 RETURN JUMPDEST PUSH1 0x1 PUSH1 0x0 CALLER PUSH20 0xFFFFFFFFFFFFFFFFFFFFFFFFFFFFFFFFFFFFFFFF AND PUSH20 0xFFFFFFFFFFFFFFFFFFFFFFFFFFFFFFFFFFFFFFFF AND DUP2 MSTORE PUSH1 0x20 ADD SWAP1 DUP2 MSTORE PUSH1 0x20 ADD PUSH1 0x0 KECCAK256 PUSH1 0x0 SWAP1 SLOAD SWAP1 PUSH2 0x100 EXP SWAP1 DIV PUSH1 0xFF AND ISZERO PUSH2 0x21A JUMPI PUSH1 0x40 MLOAD PUSH32 0x8C379A000000000000000000000000000000000000000000000000000000000 DUP2 MSTORE PUSH1 0x4 ADD PUSH2 0x211 SWAP1 PUSH2 0x8B3 JUMP JUMPDEST PUSH1 0x40 MLOAD DUP1 SWAP2 SUB SWAP1 REVERT JUMPDEST PUSH1 0x0 DUP2 GT DUP1 ISZERO PUSH2 0x22C JUMPI POP PUSH1 0x2 SLOAD DUP2 GT ISZERO JUMPDEST PUSH2 0x26B JUMPI PUSH1 0x40 MLOAD PUSH32 0x8C379A000000000000000000000000000000000000000000000000000000000 DUP2 MSTORE PUSH1 0x4 ADD PUSH2 0x262 SWAP1 PUSH2 0x91F JUMP JUMPDEST PUSH1 0x40 MLOAD DUP1 SWAP2 SUB SWAP1 REVERT JUMPDEST PUSH1 0x4 PUSH1 0x0 SWAP1 SLOAD SWAP1 PUSH2 0x100 EXP SWAP1 DIV PUSH1 0xFF AND ISZERO PUSH2 0x2BB JUMPI PUSH1 0x40 MLOAD PUSH32 0x8C379A000000000000000000000000000000000000000000000000000000000 DUP2 MSTORE PUSH1 0x4 ADD PUSH2 0x2B2 SWAP1 PUSH2 0x98B JUMP JUMPDEST PUSH1 0x40 MLOAD DUP1 SWAP2 SUB SWAP1 REVERT JUMPDEST PUSH1 0x1 DUP1 PUSH1 0x0 CALLER PUSH20 0xFFFFFFFFFFFFFFFFFFFFFFFFFFFFFFFFFFFFFFFF AND PUSH20 0xFFFFFFFFFFFFFFFFFFFFFFFFFFFFFFFFFFFFFFFF AND DUP2 MSTORE PUSH1 0x20 ADD SWAP1 DUP2 MSTORE PUSH1 0x20 ADD PUSH1 0x0 KECCAK256 PUSH1 0x0 PUSH2 0x100 EXP DUP2 SLOAD DUP2 PUSH1 0xFF MUL NOT AND SWAP1 DUP4 ISZERO ISZERO MUL OR SWAP1 SSTORE POP PUSH1 0x0 DUP1 DUP3 DUP2 MSTORE PUSH1 0x20 ADD SWAP1 DUP2 MSTORE PUSH1 0x20 ADD PUSH1 0x0 KECCAK256 PUSH1 0x2 ADD PUSH1 0x0 DUP2 SLOAD DUP1 SWAP3 SWAP2 SWAP1 PUSH2 0x338 SWAP1 PUSH2 0x9DA JUMP JUMPDEST SWAP2 SWAP1 POP SSTORE POP DUP1 PUSH32 0xFFF3C900D938D21D0990D786E819F29B8D05C1EF587B462B939609625B684B16 PUSH1 0x40 MLOAD PUSH1 0x40 MLOAD DUP1 SWAP2 SUB SWAP1 LOG2 POP JUMP JUMPDEST PUSH1 0x2 SLOAD DUP2 JUMP JUMPDEST PUSH1 0x3 SLOAD DUP2 JUMP JUMPDEST PUSH1 0x0 PUSH1 0x20 MSTORE DUP1 PUSH1 0x0 MSTORE PUSH1 0x40 PUSH1 0x0 KECCAK256 PUSH1 0x0 SWAP2 POP SWAP1 POP DUP1 PUSH1 0x0 ADD SLOAD SWAP1 DUP1 PUSH1 0x1 ADD DUP1 SLOAD PUSH2 0x3A2 SWAP1 PUSH2 0xA51 JUMP JUMPDEST DUP1 PUSH1 0x1F ADD PUSH1 0x20 DUP1 SWAP2 DIV MUL PUSH1 0x20 ADD PUSH1 0x40 MLOAD SWAP1 DUP2 ADD PUSH1 0x40 MSTORE DUP1 SWAP3 SWAP2 SWAP1 DUP2 DUP2 MSTORE PUSH1 0x20 ADD DUP3 DUP1 SLOAD PUSH2 0x3CE SWAP1 PUSH2 0xA51 JUMP JUMPDEST DUP1 ISZERO PUSH2 0x41B JUMPI DUP1 PUSH1 0x1F LT PUSH2 0x3F0 JUMPI PUSH2 0x100 DUP1 DUP4 SLOAD DIV MUL DUP4 MSTORE SWAP2 PUSH1 0x20 ADD SWAP2 PUSH2 0x41B JUMP JUMPDEST DUP3 ADD SWAP2 SWAP1 PUSH1 0x0 MSTORE PUSH1 0x20 PUSH1 0x0 KECCAK256 SWAP1 JUMPDEST DUP2 SLOAD DUP2 MSTORE SWAP1 PUSH1 0x1 ADD SWAP1 PUSH1 0x20 ADD DUP1 DUP4 GT PUSH2 0x3FE JUMPI DUP3 SWAP1 SUB PUSH1 0x1F AND DUP3 ADD SWAP2 JUMPDEST POP POP POP POP POP SWAP1 DUP1 PUSH1 0x2 ADD SLOAD SWAP1 POP DUP4 JUMP JUMPDEST PUSH1 0x4 PUSH1 0x0 SWAP1 SLOAD SWAP1 PUSH2 0x100 EXP SWAP1 DIV PUSH1 0xFF AND ISZERO PUSH2 0x47B JUMPI PUSH1 0x40 MLOAD PUSH32 0x8C379A000000000000000000000000000000000000000000000000000000000 DUP2 MSTORE PUSH1 0x4 ADD PUSH2 0x472 SWAP1 PUSH2 0xACE JUMP JUMPDEST PUSH1 0x40 MLOAD DUP1 SWAP2 SUB SWAP1 REVERT JUMPDEST PUSH1 0x1 PUSH1 0x4 PUSH1 0x0 PUSH2 0x100 EXP DUP2 SLOAD DUP2 PUSH1 0xFF MUL NOT AND SWAP1 DUP4 ISZERO ISZERO MUL OR SWAP1 SSTORE POP PUSH1 0x0 DUP1 PUSH1 0x1 SWAP1 POP JUMPDEST PUSH1 0x2 SLOAD DUP2 GT PUSH2 0x4F7 JUMPI DUP2 PUSH1 0x0 DUP1 DUP4 DUP2 MSTORE PUSH1 0x20 ADD SWAP1 DUP2 MSTORE PUSH1 0x20 ADD PUSH1 0x0 KECCAK256 PUSH1 0x2 ADD SLOAD GT ISZERO PUSH2 0x4E4 JUMPI PUSH1 0x0 DUP1 DUP3 DUP2 MSTORE PUSH1 0x20 ADD SWAP1 DUP2 MSTORE PUSH1 0x20 ADD PUSH1 0x0 KECCAK256 PUSH1 0x2 ADD SLOAD SWAP2 POP DUP1 PUSH1 0x3 DUP2 SWAP1 SSTORE POP JUMPDEST DUP1 DUP1 PUSH2 0x4EF SWAP1 PUSH2 0x9DA JUMP JUMPDEST SWAP2 POP POP PUSH2 0x49E JUMP JUMPDEST POP POP JUMP JUMPDEST PUSH1 0x60 PUSH1 0x4 PUSH1 0x0 SWAP1 SLOAD SWAP1 PUSH2 0x100 EXP SWAP1 DIV PUSH1 0xFF AND PUSH2 0x54C JUMPI PUSH1 0x40 MLOAD PUSH32 0x8C379A000000000000000000000000000000000000000000000000000000000 DUP2 MSTORE PUSH1 0x4 ADD PUSH2 0x543 SWAP1 PUSH2 0xB3A JUMP JUMPDEST PUSH1 0x40 MLOAD DUP1 SWAP2 SUB SWAP1 REVERT JUMPDEST PUSH1 0x0 DUP1 PUSH1 0x3 SLOAD DUP2 MSTORE PUSH1 0x20 ADD SWAP1 DUP2 MSTORE PUSH1 0x20 ADD PUSH1 0x0 KECCAK256 PUSH1 0x1 ADD DUP1 SLOAD PUSH2 0x56E SWAP1 PUSH2 0xA51 JUMP JUMPDEST DUP1 PUSH1 0x1F ADD PUSH1 0x20 DUP1 SWAP2 DIV MUL PUSH1 0x20 ADD PUSH1 0x40 MLOAD SWAP1 DUP2 ADD PUSH1 0x40 MSTORE DUP1 SWAP3 SWAP2 SWAP1 DUP2 DUP2 MSTORE PUSH1 0x20 ADD DUP3 DUP1 SLOAD PUSH2 0x59A SWAP1 PUSH2 0xA51 JUMP JUMPDEST DUP1 ISZERO PUSH2 0x5E7 JUMPI DUP1 PUSH1 0x1F LT PUSH2 0x5BC JUMPI PUSH2 0x100 DUP1 DUP4 SLOAD DIV MUL DUP4 MSTORE SWAP2 PUSH1 0x20 ADD SWAP2 PUSH2 0x5E7 JUMP JUMPDEST DUP3 ADD SWAP2 SWAP1 PUSH1 0x0 MSTORE PUSH1 0x20 PUSH1 0x0 KECCAK256 SWAP1 JUMPDEST DUP2 SLOAD DUP2 MSTORE SWAP1 PUSH1 0x1 ADD SWAP1 PUSH1 0x20 ADD DUP1 DUP4 GT PUSH2 0x5CA JUMPI DUP3 SWAP1 SUB PUSH1 0x1F AND DUP3 ADD SWAP2 JUMPDEST POP POP POP POP POP SWAP1 POP SWAP1 JUMP JUMPDEST PUSH1 0x1 PUSH1 0x20 MSTORE DUP1 PUSH1 0x0 MSTORE PUSH1 0x40 PUSH1 0x0 KECCAK256 PUSH1 0x0 SWAP2 POP SLOAD SWAP1 PUSH2 0x100 EXP SWAP1 DIV PUSH1 0xFF AND DUP2 JUMP JUMPDEST PUSH1 0x4 PUSH1 0x0 SWAP1 SLOAD SWAP1 PUSH2 0x100 EXP SWAP1 DIV PUSH1 0xFF AND DUP2 JUMP JUMPDEST PUSH1 0x0 DUP1 REVERT JUMPDEST PUSH1 0x0 DUP2 SWAP1 POP SWAP2 SWAP1 POP JUMP JUMPDEST PUSH2 0x63C DUP2 PUSH2 0x629 JUMP JUMPDEST DUP2 EQ PUSH2 0x647 JUMPI PUSH1 0x0 DUP1 REVERT JUMPDEST POP JUMP JUMPDEST PUSH1 0x0 DUP2 CALLDATALOAD SWAP1 POP PUSH2 0x659 DUP2 PUSH2 0x633 JUMP JUMPDEST SWAP3 SWAP2 POP POP JUMP JUMPDEST PUSH1 0x0 PUSH1 0x20 DUP3 DUP5 SUB SLT ISZERO PUSH2 0x675 JUMPI PUSH2 0x674 PUSH2 0x624 JUMP JUMPDEST JUMPDEST PUSH1 0x0 PUSH2 0x683 DUP5 DUP3 DUP6 ADD PUSH2 0x64A JUMP JUMPDEST SWAP2 POP POP SWAP3 SWAP2 POP POP JUMP JUMPDEST PUSH2 0x695 DUP2 PUSH2 0x629 JUMP JUMPDEST DUP3 MSTORE POP POP JUMP JUMPDEST PUSH1 0x0 PUSH1 0x20 DUP3 ADD SWAP1 POP PUSH2 0x6B0 PUSH1 0x0 DUP4 ADD DUP5 PUSH2 0x68C JUMP JUMPDEST SWAP3 SWAP2 POP POP JUMP JUMPDEST PUSH1 0x0 DUP2 MLOAD SWAP1 POP SWAP2 SWAP1 POP JUMP JUMPDEST PUSH1 0x0 DUP3 DUP3 MSTORE PUSH1 0x20 DUP3 ADD SWAP1 POP SWAP3 SWAP2 POP POP JUMP JUMPDEST PUSH1 0x0 JUMPDEST DUP4 DUP2 LT ISZERO PUSH2 0x6F0 JUMPI DUP1 DUP3 ADD MLOAD DUP2 DUP5 ADD MSTORE PUSH1 0x20 DUP2 ADD SWAP1 POP PUSH2 0x6D5 JUMP JUMPDEST PUSH1 0x0 DUP5 DUP5 ADD MSTORE POP POP POP POP JUMP JUMPDEST PUSH1 0x0 PUSH1 0x1F NOT PUSH1 0x1F DUP4 ADD AND SWAP1 POP SWAP2 SWAP1 POP JUMP JUMPDEST PUSH1 0x0 PUSH2 0x718 DUP3 PUSH2 0x6B6 JUMP JUMPDEST PUSH2 0x722 DUP2 DUP6 PUSH2 0x6C1 JUMP JUMPDEST SWAP4 POP PUSH2 0x732 DUP2 DUP6 PUSH1 0x20 DUP7 ADD PUSH2 0x6D2 JUMP JUMPDEST PUSH2 0x73B DUP2 PUSH2 0x6FC JUMP JUMPDEST DUP5 ADD SWAP2 POP POP SWAP3 SWAP2 POP POP JUMP JUMPDEST PUSH1 0x0 PUSH1 0x60 DUP3 ADD SWAP1 POP PUSH2 0x75B PUSH1 0x0 DUP4 ADD DUP7 PUSH2 0x68C JUMP JUMPDEST DUP2 DUP2 SUB PUSH1 0x20 DUP4 ADD MSTORE PUSH2 0x76D DUP2 DUP6 PUSH2 0x70D JUMP JUMPDEST SWAP1 POP PUSH2 0x77C PUSH1 0x40 DUP4 ADD DUP5 PUSH2 0x68C JUMP JUMPDEST SWAP5 SWAP4 POP POP POP POP JUMP JUMPDEST PUSH1 0x0 PUSH1 0x20 DUP3 ADD SWAP1 POP DUP2 DUP2 SUB PUSH1 0x0 DUP4 ADD MSTORE PUSH2 0x79E DUP2 DUP5 PUSH2 0x70D JUMP JUMPDEST SWAP1 POP SWAP3 SWAP2 POP POP JUMP JUMPDEST PUSH1 0x0 PUSH20 0xFFFFFFFFFFFFFFFFFFFFFFFFFFFFFFFFFFFFFFFF DUP3 AND SWAP1 POP SWAP2 SWAP1 POP JUMP JUMPDEST PUSH1 0x0 PUSH2 0x7D1 DUP3 PUSH2 0x7A6 JUMP JUMPDEST SWAP1 POP SWAP2 SWAP1 POP JUMP JUMPDEST PUSH2 0x7E1 DUP2 PUSH2 0x7C6 JUMP JUMPDEST DUP2 EQ PUSH2 0x7EC JUMPI PUSH1 0x0 DUP1 REVERT JUMPDEST POP JUMP JUMPDEST PUSH1 0x0 DUP2 CALLDATALOAD SWAP1 POP PUSH2 0x7FE DUP2 PUSH2 0x7D8 JUMP JUMPDEST SWAP3 SWAP2 POP POP JUMP JUMPDEST PUSH1 0x0 PUSH1 0x20 DUP3 DUP5 SUB SLT ISZERO PUSH2 0x81A JUMPI PUSH2 0x819 PUSH2 0x624 JUMP JUMPDEST JUMPDEST PUSH1 0x0 PUSH2 0x828 DUP5 DUP3 DUP6 ADD PUSH2 0x7EF JUMP JUMPDEST SWAP2 POP POP SWAP3 SWAP2 POP POP JUMP JUMPDEST PUSH1 0x0 DUP2 ISZERO ISZERO SWAP1 POP SWAP2 SWAP1 POP JUMP JUMPDEST PUSH2 0x846 DUP2 PUSH2 0x831 JUMP JUMPDEST DUP3 MSTORE POP POP JUMP JUMPDEST PUSH1 0x0 PUSH1 0x20 DUP3 ADD SWAP1 POP PUSH2 0x861 PUSH1 0x0 DUP4 ADD DUP5 PUSH2 0x83D JUMP JUMPDEST SWAP3 SWAP2 POP POP JUMP JUMPDEST PUSH32 0x596F75206861766520616C726561647920766F7465642E000000000000000000 PUSH1 0x0 DUP3 ADD MSTORE POP JUMP JUMPDEST PUSH1 0x0 PUSH2 0x89D PUSH1 0x17 DUP4 PUSH2 0x6C1 JUMP JUMPDEST SWAP2 POP PUSH2 0x8A8 DUP3 PUSH2 0x867 JUMP JUMPDEST PUSH1 0x20 DUP3 ADD SWAP1 POP SWAP2 SWAP1 POP JUMP JUMPDEST PUSH1 0x0 PUSH1 0x20 DUP3 ADD SWAP1 POP DUP2 DUP2 SUB PUSH1 0x0 DUP4 ADD MSTORE PUSH2 0x8CC DUP2 PUSH2 0x890 JUMP JUMPDEST SWAP1 POP SWAP2 SWAP1 POP JUMP JUMPDEST PUSH32 0x4E6F2063616E646964617465207769746820746861742049442E000000000000 PUSH1 0x0 DUP3 ADD MSTORE POP JUMP JUMPDEST PUSH1 0x0 PUSH2 0x909 PUSH1 0x1A DUP4 PUSH2 0x6C1 JUMP JUMPDEST SWAP2 POP PUSH2 0x914 DUP3 PUSH2 0x8D3 JUMP JUMPDEST PUSH1 0x20 DUP3 ADD SWAP1 POP SWAP2 SWAP1 POP JUMP JUMPDEST PUSH1 0x0 PUSH1 0x20 DUP3 ADD SWAP1 POP DUP2 DUP2 SUB PUSH1 0x0 DUP4 ADD MSTORE PUSH2 0x938 DUP2 PUSH2 0x8FC JUMP JUMPDEST SWAP1 POP SWAP2 SWAP1 POP JUMP JUMPDEST PUSH32 0x456C656374696F6E2068617320656E6465642E00000000000000000000000000 PUSH1 0x0 DUP3 ADD MSTORE POP JUMP JUMPDEST PUSH1 0x0 PUSH2 0x975 PUSH1 0x13 DUP4 PUSH2 0x6C1 JUMP JUMPDEST SWAP2 POP PUSH2 0x980 DUP3 PUSH2 0x93F JUMP JUMPDEST PUSH1 0x20 DUP3 ADD SWAP1 POP SWAP2 SWAP1 POP JUMP JUMPDEST PUSH1 0x0 PUSH1 0x20 DUP3 ADD SWAP1 POP DUP2 DUP2 SUB PUSH1 0x0 DUP4 ADD MSTORE PUSH2 0x9A4 DUP2 PUSH2 0x968 JUMP JUMPDEST SWAP1 POP SWAP2 SWAP1 POP JUMP JUMPDEST PUSH32 0x4E487B7100000000000000000000000000000000000000000000000000000000 PUSH1 0x0 MSTORE PUSH1 0x11 PUSH1 0x4 MSTORE PUSH1 0x24 PUSH1 0x0 REVERT JUMPDEST PUSH1 0x0 PUSH2 0x9E5 DUP3 PUSH2 0x629 JUMP JUMPDEST SWAP2 POP PUSH32 0xFFFFFFFFFFFFFFFFFFFFFFFFFFFFFFFFFFFFFFFFFFFFFFFFFFFFFFFFFFFFFFFF DUP3 SUB PUSH2 0xA17 JUMPI PUSH2 0xA16 PUSH2 0x9AB JUMP JUMPDEST JUMPDEST PUSH1 0x1 DUP3 ADD SWAP1 POP SWAP2 SWAP1 POP JUMP JUMPDEST PUSH32 0x4E487B7100000000000000000000000000000000000000000000000000000000 PUSH1 0x0 MSTORE PUSH1 0x22 PUSH1 0x4 MSTORE PUSH1 0x24 PUSH1 0x0 REVERT JUMPDEST PUSH1 0x0 PUSH1 0x2 DUP3 DIV SWAP1 POP PUSH1 0x1 DUP3 AND DUP1 PUSH2 0xA69 JUMPI PUSH1 0x7F DUP3 AND SWAP2 POP JUMPDEST PUSH1 0x20 DUP3 LT DUP2 SUB PUSH2 0xA7C JUMPI PUSH2 0xA7B PUSH2 0xA22 JUMP JUMPDEST JUMPDEST POP SWAP2 SWAP1 POP JUMP JUMPDEST PUSH32 0x456C656374696F6E20616C726561647920656E6465642E000000000000000000 PUSH1 0x0 DUP3 ADD MSTORE POP JUMP JUMPDEST PUSH1 0x0 PUSH2 0xAB8 PUSH1 0x17 DUP4 PUSH2 0x6C1 JUMP JUMPDEST SWAP2 POP PUSH2 0xAC3 DUP3 PUSH2 0xA82 JUMP JUMPDEST PUSH1 0x20 DUP3 ADD SWAP1 POP SWAP2 SWAP1 POP JUMP JUMPDEST PUSH1 0x0 PUSH1 0x20 DUP3 ADD SWAP1 POP DUP2 DUP2 SUB PUSH1 0x0 DUP4 ADD MSTORE PUSH2 0xAE7 DUP2 PUSH2 0xAAB JUMP JUMPDEST SWAP1 POP SWAP2 SWAP1 POP JUMP JUMPDEST PUSH32 0x456C656374696F6E206973206E6F74206F766572207965742E00000000000000 PUSH1 0x0 DUP3 ADD MSTORE POP JUMP JUMPDEST PUSH1 0x0 PUSH2 0xB24 PUSH1 0x19 DUP4 PUSH2 0x6C1 JUMP JUMPDEST SWAP2 POP PUSH2 0xB2F DUP3 PUSH2 0xAEE JUMP JUMPDEST PUSH1 0x20 DUP3 ADD SWAP1 POP SWAP2 SWAP1 POP JUMP JUMPDEST PUSH1 0x0 PUSH1 0x20 DUP3 ADD SWAP1 POP DUP2 DUP2 SUB PUSH1 0x0 DUP4 ADD MSTORE PUSH2 0xB53 DUP2 PUSH2 0xB17 JUMP JUMPDEST SWAP1 POP SWAP2 SWAP1 POP JUMP INVALID LOG2 PUSH5 0x6970667358 0x22 SLT KECCAK256 DUP14 0x29 0xD6 0xEF SHR LOG3 0xF9 0xF6 CODESIZE SWAP4 SWAP14 PUSH5 0x1531E8CDE9 PUSH28 0xDD2ABD563406814056E2AE490C5064736F6C63430008120033000000 "
				},
				"gasEstimates": {
					"creation": {
						"codeDepositCost": "592000",
						"executionCost": "infinite",
						"totalCost": "infinite"
					},
					"external": {
						"candidates(uint256)": "infinite",
						"candidatesCount()": "2452",
						"electionEnded()": "2537",
						"endElection()": "infinite",
						"getWinner()": "infinite",
						"vote(uint256)": "infinite",
						"voters(address)": "2889",
						"winnerID()": "2474"
					},
					"internal": {
						"addCandidate(string memory)": "infinite"
					}
				},
				"methodIdentifiers": {
					"candidates(uint256)": "3477ee2e",
					"candidatesCount()": "2d35a8a2",
					"electionEnded()": "c94ca9e3",
					"endElection()": "59f78468",
					"getWinner()": "8e7ea5b2",
					"vote(uint256)": "0121b93f",
					"voters(address)": "a3ec138d",
					"winnerID()": "337ebd7a"
				}
			},
			"storageLayout": {
				"storage": [
					{
						"astId": 13,
						"contract": "contracts/FFPVoting.sol:VotingSystem",
						"label": "candidates",
						"offset": 0,
						"slot": "0",
						"type": "t_mapping(t_uint256,t_struct(Candidate)8_storage)"
					},
					{
						"astId": 17,
						"contract": "contracts/FFPVoting.sol:VotingSystem",
						"label": "voters",
						"offset": 0,
						"slot": "1",
						"type": "t_mapping(t_address,t_bool)"
					},
					{
						"astId": 19,
						"contract": "contracts/FFPVoting.sol:VotingSystem",
						"label": "candidatesCount",
						"offset": 0,
						"slot": "2",
						"type": "t_uint256"
					},
					{
						"astId": 21,
						"contract": "contracts/FFPVoting.sol:VotingSystem",
						"label": "winnerID",
						"offset": 0,
						"slot": "3",
						"type": "t_uint256"
					},
					{
						"astId": 23,
						"contract": "contracts/FFPVoting.sol:VotingSystem",
						"label": "electionEnded",
						"offset": 0,
						"slot": "4",
						"type": "t_bool"
					}
				],
				"types": {
					"t_address": {
						"encoding": "inplace",
						"label": "address",
						"numberOfBytes": "20"
					},
					"t_bool": {
						"encoding": "inplace",
						"label": "bool",
						"numberOfBytes": "1"
					},
					"t_mapping(t_address,t_bool)": {
						"encoding": "mapping",
						"key": "t_address",
						"label": "mapping(address => bool)",
						"numberOfBytes": "32",
						"value": "t_bool"
					},
					"t_mapping(t_uint256,t_struct(Candidate)8_storage)": {
						"encoding": "mapping",
						"key": "t_uint256",
						"label": "mapping(uint256 => struct VotingSystem.Candidate)",
						"numberOfBytes": "32",
						"value": "t_struct(Candidate)8_storage"
					},
					"t_string_storage": {
						"encoding": "bytes",
						"label": "string",
						"numberOfBytes": "32"
					},
					"t_struct(Candidate)8_storage": {
						"encoding": "inplace",
						"label": "struct VotingSystem.Candidate",
						"members": [
							{
								"astId": 3,
								"contract": "contracts/FFPVoting.sol:VotingSystem",
								"label": "id",
								"offset": 0,
								"slot": "0",
								"type": "t_uint256"
							},
							{
								"astId": 5,
								"contract": "contracts/FFPVoting.sol:VotingSystem",
								"label": "name",
								"offset": 0,
								"slot": "1",
								"type": "t_string_storage"
							},
							{
								"astId": 7,
								"contract": "contracts/FFPVoting.sol:VotingSystem",
								"label": "voteCount",
								"offset": 0,
								"slot": "2",
								"type": "t_uint256"
							}
						],
						"numberOfBytes": "96"
					},
					"t_uint256": {
						"encoding": "inplace",
						"label": "uint256",
						"numberOfBytes": "32"
					}
				}
			},
			"userdoc": {
				"kind": "user",
				"methods": {},
				"version": 1
			}
		}
	}
}