{
	"contracts/votingSystem.sol": {
		"VotingSystem": {
			"abi": [
				{
					"inputs": [],
					"stateMutability": "nonpayable",
					"type": "constructor"
				},
				{
					"inputs": [],
					"name": "chairperson",
					"outputs": [
						{
							"internalType": "address",
							"name": "",
							"type": "address"
						}
					],
					"stateMutability": "view",
					"type": "function"
				},
				{
					"inputs": [],
					"name": "closeVoting",
					"outputs": [],
					"stateMutability": "nonpayable",
					"type": "function"
				},
				{
					"inputs": [
						{
							"internalType": "enum VotingSystem.Party",
							"name": "preference1",
							"type": "uint8"
						},
						{
							"internalType": "enum VotingSystem.Party",
							"name": "preference2",
							"type": "uint8"
						}
					],
					"name": "vote",
					"outputs": [],
					"stateMutability": "nonpayable",
					"type": "function"
				},
				{
					"inputs": [
						{
							"internalType": "uint256",
							"name": "",
							"type": "uint256"
						}
					],
					"name": "voterAddresses",
					"outputs": [
						{
							"internalType": "address",
							"name": "",
							"type": "address"
						}
					],
					"stateMutability": "view",
					"type": "function"
				},
				{
					"inputs": [
						{
							"internalType": "address",
							"name": "",
							"type": "address"
						}
					],
					"name": "voters",
					"outputs": [
						{
							"internalType": "bool",
							"name": "voted",
							"type": "bool"
						},
						{
							"internalType": "enum VotingSystem.Party",
							"name": "preference1",
							"type": "uint8"
						},
						{
							"internalType": "enum VotingSystem.Party",
							"name": "preference2",
							"type": "uint8"
						}
					],
					"stateMutability": "view",
					"type": "function"
				},
				{
					"inputs": [
						{
							"internalType": "uint256",
							"name": "",
							"type": "uint256"
						}
					],
					"name": "votes",
					"outputs": [
						{
							"internalType": "uint256",
							"name": "",
							"type": "uint256"
						}
					],
					"stateMutability": "view",
					"type": "function"
				},
				{
					"inputs": [],
					"name": "votingClosed",
					"outputs": [
						{
							"internalType": "bool",
							"name": "",
							"type": "bool"
						}
					],
					"stateMutability": "view",
					"type": "function"
				},
				{
					"inputs": [],
					"name": "winningParty",
					"outputs": [
						{
							"internalType": "enum VotingSystem.Party",
							"name": "",
							"type": "uint8"
						}
					],
					"stateMutability": "view",
					"type": "function"
				}
			],
			"devdoc": {
				"kind": "dev",
				"methods": {},
				"version": 1
			},
			"evm": {
				"assembly": "    /* \"contracts/votingSystem.sol\":57:2138  contract VotingSystem {... */\n  mstore(0x40, 0x80)\n    /* \"contracts/votingSystem.sol\":508:513  false */\n  0x00\n    /* \"contracts/votingSystem.sol\":481:513  bool public votingClosed = false */\n  0x05\n  exp(0x0100, 0x14)\n  dup2\n  sload\n  dup2\n  0xff\n  mul\n  not\n  and\n  swap1\n  dup4\n  iszero\n  iszero\n  mul\n  or\n  swap1\n  sstore\n  pop\n    /* \"contracts/votingSystem.sol\":524:579  constructor() {... */\n  callvalue\n  dup1\n  iszero\n  tag_1\n  jumpi\n  0x00\n  dup1\n  revert\ntag_1:\n  pop\n    /* \"contracts/votingSystem.sol\":562:572  msg.sender */\n  caller\n    /* \"contracts/votingSystem.sol\":548:559  chairperson */\n  0x05\n  0x00\n    /* \"contracts/votingSystem.sol\":548:572  chairperson = msg.sender */\n  0x0100\n  exp\n  dup2\n  sload\n  dup2\n  0xffffffffffffffffffffffffffffffffffffffff\n  mul\n  not\n  and\n  swap1\n  dup4\n  0xffffffffffffffffffffffffffffffffffffffff\n  and\n  mul\n  or\n  swap1\n  sstore\n  pop\n    /* \"contracts/votingSystem.sol\":57:2138  contract VotingSystem {... */\n  dataSize(sub_0)\n  dup1\n  dataOffset(sub_0)\n  0x00\n  codecopy\n  0x00\n  return\nstop\n\nsub_0: assembly {\n        /* \"contracts/votingSystem.sol\":57:2138  contract VotingSystem {... */\n      mstore(0x40, 0x80)\n      callvalue\n      dup1\n      iszero\n      tag_1\n      jumpi\n      0x00\n      dup1\n      revert\n    tag_1:\n      pop\n      jumpi(tag_2, lt(calldatasize, 0x04))\n      shr(0xe0, calldataload(0x00))\n      dup1\n      0xae315fe4\n      gt\n      tag_11\n      jumpi\n      dup1\n      0xae315fe4\n      eq\n      tag_7\n      jumpi\n      dup1\n      0xc631b292\n      eq\n      tag_8\n      jumpi\n      dup1\n      0xdd0e2373\n      eq\n      tag_9\n      jumpi\n      dup1\n      0xdf49c4de\n      eq\n      tag_10\n      jumpi\n      jump(tag_2)\n    tag_11:\n      dup1\n      0x2479ecb8\n      eq\n      tag_3\n      jumpi\n      dup1\n      0x2e4176cf\n      eq\n      tag_4\n      jumpi\n      dup1\n      0x5df81330\n      eq\n      tag_5\n      jumpi\n      dup1\n      0xa3ec138d\n      eq\n      tag_6\n      jumpi\n    tag_2:\n      0x00\n      dup1\n      revert\n        /* \"contracts/votingSystem.sol\":481:513  bool public votingClosed = false */\n    tag_3:\n      tag_12\n      tag_13\n      jump\t// in\n    tag_12:\n      mload(0x40)\n      tag_14\n      swap2\n      swap1\n      tag_15\n      jump\t// in\n    tag_14:\n      mload(0x40)\n      dup1\n      swap2\n      sub\n      swap1\n      return\n        /* \"contracts/votingSystem.sol\":449:475  address public chairperson */\n    tag_4:\n      tag_16\n      tag_17\n      jump\t// in\n    tag_16:\n      mload(0x40)\n      tag_18\n      swap2\n      swap1\n      tag_19\n      jump\t// in\n    tag_18:\n      mload(0x40)\n      dup1\n      swap2\n      sub\n      swap1\n      return\n        /* \"contracts/votingSystem.sol\":361:384  uint256[3] public votes */\n    tag_5:\n      tag_20\n      0x04\n      dup1\n      calldatasize\n      sub\n      dup2\n      add\n      swap1\n      tag_21\n      swap2\n      swap1\n      tag_22\n      jump\t// in\n    tag_21:\n      tag_23\n      jump\t// in\n    tag_20:\n      mload(0x40)\n      tag_24\n      swap2\n      swap1\n      tag_25\n      jump\t// in\n    tag_24:\n      mload(0x40)\n      dup1\n      swap2\n      sub\n      swap1\n      return\n        /* \"contracts/votingSystem.sol\":240:279  mapping(address => Voter) public voters */\n    tag_6:\n      tag_26\n      0x04\n      dup1\n      calldatasize\n      sub\n      dup2\n      add\n      swap1\n      tag_27\n      swap2\n      swap1\n      tag_28\n      jump\t// in\n    tag_27:\n      tag_29\n      jump\t// in\n    tag_26:\n      mload(0x40)\n      tag_30\n      swap4\n      swap3\n      swap2\n      swap1\n      tag_31\n      jump\t// in\n    tag_30:\n      mload(0x40)\n      dup1\n      swap2\n      sub\n      swap1\n      return\n        /* \"contracts/votingSystem.sol\":1952:2136  function winningParty() public view returns (Party) {... */\n    tag_7:\n      tag_32\n      tag_33\n      jump\t// in\n    tag_32:\n      mload(0x40)\n      tag_34\n      swap2\n      swap1\n      tag_35\n      jump\t// in\n    tag_34:\n      mload(0x40)\n      dup1\n      swap2\n      sub\n      swap1\n      return\n        /* \"contracts/votingSystem.sol\":1260:1548  function closeVoting() public onlyChairperson {... */\n    tag_8:\n      tag_36\n      tag_37\n      jump\t// in\n    tag_36:\n      stop\n        /* \"contracts/votingSystem.sol\":285:316  address[] public voterAddresses */\n    tag_9:\n      tag_38\n      0x04\n      dup1\n      calldatasize\n      sub\n      dup2\n      add\n      swap1\n      tag_39\n      swap2\n      swap1\n      tag_22\n      jump\t// in\n    tag_39:\n      tag_40\n      jump\t// in\n    tag_38:\n      mload(0x40)\n      tag_41\n      swap2\n      swap1\n      tag_19\n      jump\t// in\n    tag_41:\n      mload(0x40)\n      dup1\n      swap2\n      sub\n      swap1\n      return\n        /* \"contracts/votingSystem.sol\":841:1250  function vote(Party preference1, Party preference2) public onlyBeforeVotingClosed {... */\n    tag_10:\n      tag_42\n      0x04\n      dup1\n      calldatasize\n      sub\n      dup2\n      add\n      swap1\n      tag_43\n      swap2\n      swap1\n      tag_44\n      jump\t// in\n    tag_43:\n      tag_45\n      jump\t// in\n    tag_42:\n      stop\n        /* \"contracts/votingSystem.sol\":481:513  bool public votingClosed = false */\n    tag_13:\n      0x05\n      0x14\n      swap1\n      sload\n      swap1\n      0x0100\n      exp\n      swap1\n      div\n      0xff\n      and\n      dup2\n      jump\t// out\n        /* \"contracts/votingSystem.sol\":449:475  address public chairperson */\n    tag_17:\n      0x05\n      0x00\n      swap1\n      sload\n      swap1\n      0x0100\n      exp\n      swap1\n      div\n      0xffffffffffffffffffffffffffffffffffffffff\n      and\n      dup2\n      jump\t// out\n        /* \"contracts/votingSystem.sol\":361:384  uint256[3] public votes */\n    tag_23:\n      0x02\n      dup2\n      0x03\n      dup2\n      lt\n      tag_46\n      jumpi\n      0x00\n      dup1\n      revert\n    tag_46:\n      add\n      0x00\n      swap2\n      pop\n      swap1\n      pop\n      sload\n      dup2\n      jump\t// out\n        /* \"contracts/votingSystem.sol\":240:279  mapping(address => Voter) public voters */\n    tag_29:\n      mstore(0x20, 0x00)\n      dup1\n      0x00\n      mstore\n      keccak256(0x00, 0x40)\n      0x00\n      swap2\n      pop\n      swap1\n      pop\n      dup1\n      0x00\n      add\n      0x00\n      swap1\n      sload\n      swap1\n      0x0100\n      exp\n      swap1\n      div\n      0xff\n      and\n      swap1\n      dup1\n      0x00\n      add\n      0x01\n      swap1\n      sload\n      swap1\n      0x0100\n      exp\n      swap1\n      div\n      0xff\n      and\n      swap1\n      dup1\n      0x00\n      add\n      0x02\n      swap1\n      sload\n      swap1\n      0x0100\n      exp\n      swap1\n      div\n      0xff\n      and\n      swap1\n      pop\n      dup4\n      jump\t// out\n        /* \"contracts/votingSystem.sol\":1952:2136  function winningParty() public view returns (Party) {... */\n    tag_33:\n        /* \"contracts/votingSystem.sol\":1997:2002  Party */\n      0x00\n        /* \"contracts/votingSystem.sol\":2022:2034  votingClosed */\n      0x05\n      0x14\n      swap1\n      sload\n      swap1\n      0x0100\n      exp\n      swap1\n      div\n      0xff\n      and\n        /* \"contracts/votingSystem.sol\":2014:2063  require(votingClosed, \"Voting is not closed yet\") */\n      tag_49\n      jumpi\n      mload(0x40)\n      0x08c379a000000000000000000000000000000000000000000000000000000000\n      dup2\n      mstore\n      0x04\n      add\n      tag_50\n      swap1\n      tag_51\n      jump\t// in\n    tag_50:\n      mload(0x40)\n      dup1\n      swap2\n      sub\n      swap1\n      revert\n    tag_49:\n        /* \"contracts/votingSystem.sol\":2091:2096  votes */\n      0x02\n        /* \"contracts/votingSystem.sol\":2097:2098  1 */\n      0x01\n        /* \"contracts/votingSystem.sol\":2091:2099  votes[1] */\n      0x03\n      dup2\n      lt\n      tag_52\n      jumpi\n      tag_53\n      tag_54\n      jump\t// in\n    tag_53:\n    tag_52:\n      add\n      sload\n        /* \"contracts/votingSystem.sol\":2080:2085  votes */\n      0x02\n        /* \"contracts/votingSystem.sol\":2086:2087  0 */\n      0x00\n        /* \"contracts/votingSystem.sol\":2080:2088  votes[0] */\n      0x03\n      dup2\n      lt\n      tag_56\n      jumpi\n      tag_57\n      tag_54\n      jump\t// in\n    tag_57:\n    tag_56:\n      add\n      sload\n        /* \"contracts/votingSystem.sol\":2080:2099  votes[0] > votes[1] */\n      gt\n        /* \"contracts/votingSystem.sol\":2080:2129  votes[0] > votes[1] ? Party.PartyA : Party.PartyB */\n      tag_59\n      jumpi\n        /* \"contracts/votingSystem.sol\":2117:2129  Party.PartyB */\n      0x01\n        /* \"contracts/votingSystem.sol\":2080:2129  votes[0] > votes[1] ? Party.PartyA : Party.PartyB */\n      jump(tag_60)\n    tag_59:\n        /* \"contracts/votingSystem.sol\":2102:2114  Party.PartyA */\n      0x00\n        /* \"contracts/votingSystem.sol\":2080:2129  votes[0] > votes[1] ? Party.PartyA : Party.PartyB */\n    tag_60:\n        /* \"contracts/votingSystem.sol\":2073:2129  return votes[0] > votes[1] ? Party.PartyA : Party.PartyB */\n      swap1\n      pop\n        /* \"contracts/votingSystem.sol\":1952:2136  function winningParty() public view returns (Party) {... */\n      swap1\n      jump\t// out\n        /* \"contracts/votingSystem.sol\":1260:1548  function closeVoting() public onlyChairperson {... */\n    tag_37:\n        /* \"contracts/votingSystem.sol\":648:659  chairperson */\n      0x05\n      0x00\n      swap1\n      sload\n      swap1\n      0x0100\n      exp\n      swap1\n      div\n      0xffffffffffffffffffffffffffffffffffffffff\n      and\n        /* \"contracts/votingSystem.sol\":634:659  msg.sender == chairperson */\n      0xffffffffffffffffffffffffffffffffffffffff\n      and\n        /* \"contracts/votingSystem.sol\":634:644  msg.sender */\n      caller\n        /* \"contracts/votingSystem.sol\":634:659  msg.sender == chairperson */\n      0xffffffffffffffffffffffffffffffffffffffff\n      and\n      eq\n        /* \"contracts/votingSystem.sol\":626:703  require(msg.sender == chairperson, \"Only chairperson can call this function\") */\n      tag_62\n      jumpi\n      mload(0x40)\n      0x08c379a000000000000000000000000000000000000000000000000000000000\n      dup2\n      mstore\n      0x04\n      add\n      tag_63\n      swap1\n      tag_64\n      jump\t// in\n    tag_63:\n      mload(0x40)\n      dup1\n      swap2\n      sub\n      swap1\n      revert\n    tag_62:\n        /* \"contracts/votingSystem.sol\":1325:1337  votingClosed */\n      0x05\n      0x14\n      swap1\n      sload\n      swap1\n      0x0100\n      exp\n      swap1\n      div\n      0xff\n      and\n        /* \"contracts/votingSystem.sol\":1324:1337  !votingClosed */\n      iszero\n        /* \"contracts/votingSystem.sol\":1316:1363  require(!votingClosed, \"Voting already closed\") */\n      tag_66\n      jumpi\n      mload(0x40)\n      0x08c379a000000000000000000000000000000000000000000000000000000000\n      dup2\n      mstore\n      0x04\n      add\n      tag_67\n      swap1\n      tag_68\n      jump\t// in\n    tag_67:\n      mload(0x40)\n      dup1\n      swap2\n      sub\n      swap1\n      revert\n    tag_66:\n        /* \"contracts/votingSystem.sol\":1388:1392  true */\n      0x01\n        /* \"contracts/votingSystem.sol\":1373:1385  votingClosed */\n      0x05\n      0x14\n        /* \"contracts/votingSystem.sol\":1373:1392  votingClosed = true */\n      0x0100\n      exp\n      dup2\n      sload\n      dup2\n      0xff\n      mul\n      not\n      and\n      swap1\n      dup4\n      iszero\n      iszero\n      mul\n      or\n      swap1\n      sstore\n      pop\n        /* \"contracts/votingSystem.sol\":1484:1486  50 */\n      0x32\n        /* \"contracts/votingSystem.sol\":1472:1477  votes */\n      0x02\n        /* \"contracts/votingSystem.sol\":1478:1479  1 */\n      0x01\n        /* \"contracts/votingSystem.sol\":1472:1480  votes[1] */\n      0x03\n      dup2\n      lt\n      tag_69\n      jumpi\n      tag_70\n      tag_54\n      jump\t// in\n    tag_70:\n    tag_69:\n      add\n      sload\n        /* \"contracts/votingSystem.sol\":1461:1466  votes */\n      0x02\n        /* \"contracts/votingSystem.sol\":1467:1468  0 */\n      0x00\n        /* \"contracts/votingSystem.sol\":1461:1469  votes[0] */\n      0x03\n      dup2\n      lt\n      tag_72\n      jumpi\n      tag_73\n      tag_54\n      jump\t// in\n    tag_73:\n    tag_72:\n      add\n      sload\n        /* \"contracts/votingSystem.sol\":1461:1480  votes[0] + votes[1] */\n      tag_75\n      swap2\n      swap1\n      tag_76\n      jump\t// in\n    tag_75:\n        /* \"contracts/votingSystem.sol\":1461:1486  votes[0] + votes[1] <= 50 */\n      gt\n        /* \"contracts/votingSystem.sol\":1457:1542  if (votes[0] + votes[1] <= 50) {... */\n      tag_77\n      jumpi\n        /* \"contracts/votingSystem.sol\":1502:1531  redistributeThirdPartyVotes() */\n      tag_78\n        /* \"contracts/votingSystem.sol\":1502:1529  redistributeThirdPartyVotes */\n      tag_79\n        /* \"contracts/votingSystem.sol\":1502:1531  redistributeThirdPartyVotes() */\n      jump\t// in\n    tag_78:\n        /* \"contracts/votingSystem.sol\":1457:1542  if (votes[0] + votes[1] <= 50) {... */\n    tag_77:\n        /* \"contracts/votingSystem.sol\":1260:1548  function closeVoting() public onlyChairperson {... */\n      jump\t// out\n        /* \"contracts/votingSystem.sol\":285:316  address[] public voterAddresses */\n    tag_40:\n      0x01\n      dup2\n      dup2\n      sload\n      dup2\n      lt\n      tag_80\n      jumpi\n      0x00\n      dup1\n      revert\n    tag_80:\n      swap1\n      0x00\n      mstore\n      keccak256(0x00, 0x20)\n      add\n      0x00\n      swap2\n      pop\n      sload\n      swap1\n      0x0100\n      exp\n      swap1\n      div\n      0xffffffffffffffffffffffffffffffffffffffff\n      and\n      dup2\n      jump\t// out\n        /* \"contracts/votingSystem.sol\":841:1250  function vote(Party preference1, Party preference2) public onlyBeforeVotingClosed {... */\n    tag_45:\n        /* \"contracts/votingSystem.sol\":780:792  votingClosed */\n      0x05\n      0x14\n      swap1\n      sload\n      swap1\n      0x0100\n      exp\n      swap1\n      div\n      0xff\n      and\n        /* \"contracts/votingSystem.sol\":779:792  !votingClosed */\n      iszero\n        /* \"contracts/votingSystem.sol\":771:813  require(!votingClosed, \"Voting is closed\") */\n      tag_83\n      jumpi\n      mload(0x40)\n      0x08c379a000000000000000000000000000000000000000000000000000000000\n      dup2\n      mstore\n      0x04\n      add\n      tag_84\n      swap1\n      tag_85\n      jump\t// in\n    tag_84:\n      mload(0x40)\n      dup1\n      swap2\n      sub\n      swap1\n      revert\n    tag_83:\n        /* \"contracts/votingSystem.sol\":942:948  voters */\n      0x00\n        /* \"contracts/votingSystem.sol\":942:960  voters[msg.sender] */\n      dup1\n        /* \"contracts/votingSystem.sol\":949:959  msg.sender */\n      caller\n        /* \"contracts/votingSystem.sol\":942:960  voters[msg.sender] */\n      0xffffffffffffffffffffffffffffffffffffffff\n      and\n      0xffffffffffffffffffffffffffffffffffffffff\n      and\n      dup2\n      mstore\n      0x20\n      add\n      swap1\n      dup2\n      mstore\n      0x20\n      add\n      0x00\n      keccak256\n        /* \"contracts/votingSystem.sol\":942:966  voters[msg.sender].voted */\n      0x00\n      add\n      0x00\n      swap1\n      sload\n      swap1\n      0x0100\n      exp\n      swap1\n      div\n      0xff\n      and\n        /* \"contracts/votingSystem.sol\":941:966  !voters[msg.sender].voted */\n      iszero\n        /* \"contracts/votingSystem.sol\":933:984  require(!voters[msg.sender].voted, \"Already voted\") */\n      tag_87\n      jumpi\n      mload(0x40)\n      0x08c379a000000000000000000000000000000000000000000000000000000000\n      dup2\n      mstore\n      0x04\n      add\n      tag_88\n      swap1\n      tag_89\n      jump\t// in\n    tag_88:\n      mload(0x40)\n      dup1\n      swap2\n      sub\n      swap1\n      revert\n    tag_87:\n        /* \"contracts/votingSystem.sol\":1017:1028  preference2 */\n      dup1\n        /* \"contracts/votingSystem.sol\":1002:1028  preference1 != preference2 */\n      0x02\n      dup2\n      gt\n      iszero\n      tag_90\n      jumpi\n      tag_91\n      tag_92\n      jump\t// in\n    tag_91:\n    tag_90:\n        /* \"contracts/votingSystem.sol\":1002:1013  preference1 */\n      dup3\n        /* \"contracts/votingSystem.sol\":1002:1028  preference1 != preference2 */\n      0x02\n      dup2\n      gt\n      iszero\n      tag_93\n      jumpi\n      tag_94\n      tag_92\n      jump\t// in\n    tag_94:\n    tag_93:\n      sub\n        /* \"contracts/votingSystem.sol\":994:1062  require(preference1 != preference2, \"Preferences must be different\") */\n      tag_95\n      jumpi\n      mload(0x40)\n      0x08c379a000000000000000000000000000000000000000000000000000000000\n      dup2\n      mstore\n      0x04\n      add\n      tag_96\n      swap1\n      tag_97\n      jump\t// in\n    tag_96:\n      mload(0x40)\n      dup1\n      swap2\n      sub\n      swap1\n      revert\n    tag_95:\n        /* \"contracts/votingSystem.sol\":1094:1131  Voter(true, preference1, preference2) */\n      mload(0x40)\n      dup1\n      0x60\n      add\n      0x40\n      mstore\n      dup1\n        /* \"contracts/votingSystem.sol\":1100:1104  true */\n      0x01\n        /* \"contracts/votingSystem.sol\":1094:1131  Voter(true, preference1, preference2) */\n      iszero\n      iszero\n      dup2\n      mstore\n      0x20\n      add\n        /* \"contracts/votingSystem.sol\":1106:1117  preference1 */\n      dup4\n        /* \"contracts/votingSystem.sol\":1094:1131  Voter(true, preference1, preference2) */\n      0x02\n      dup2\n      gt\n      iszero\n      tag_98\n      jumpi\n      tag_99\n      tag_92\n      jump\t// in\n    tag_99:\n    tag_98:\n      dup2\n      mstore\n      0x20\n      add\n        /* \"contracts/votingSystem.sol\":1119:1130  preference2 */\n      dup3\n        /* \"contracts/votingSystem.sol\":1094:1131  Voter(true, preference1, preference2) */\n      0x02\n      dup2\n      gt\n      iszero\n      tag_100\n      jumpi\n      tag_101\n      tag_92\n      jump\t// in\n    tag_101:\n    tag_100:\n      dup2\n      mstore\n      pop\n        /* \"contracts/votingSystem.sol\":1073:1079  voters */\n      0x00\n        /* \"contracts/votingSystem.sol\":1073:1091  voters[msg.sender] */\n      dup1\n        /* \"contracts/votingSystem.sol\":1080:1090  msg.sender */\n      caller\n        /* \"contracts/votingSystem.sol\":1073:1091  voters[msg.sender] */\n      0xffffffffffffffffffffffffffffffffffffffff\n      and\n      0xffffffffffffffffffffffffffffffffffffffff\n      and\n      dup2\n      mstore\n      0x20\n      add\n      swap1\n      dup2\n      mstore\n      0x20\n      add\n      0x00\n      keccak256\n        /* \"contracts/votingSystem.sol\":1073:1131  voters[msg.sender] = Voter(true, preference1, preference2) */\n      0x00\n      dup3\n      add\n      mload\n      dup2\n      0x00\n      add\n      exp(0x0100, 0x00)\n      dup2\n      sload\n      dup2\n      0xff\n      mul\n      not\n      and\n      swap1\n      dup4\n      iszero\n      iszero\n      mul\n      or\n      swap1\n      sstore\n      pop\n      0x20\n      dup3\n      add\n      mload\n      dup2\n      0x00\n      add\n      exp(0x0100, 0x01)\n      dup2\n      sload\n      dup2\n      0xff\n      mul\n      not\n      and\n      swap1\n      dup4\n      0x02\n      dup2\n      gt\n      iszero\n      tag_102\n      jumpi\n      tag_103\n      tag_92\n      jump\t// in\n    tag_103:\n    tag_102:\n      mul\n      or\n      swap1\n      sstore\n      pop\n      0x40\n      dup3\n      add\n      mload\n      dup2\n      0x00\n      add\n      exp(0x0100, 0x02)\n      dup2\n      sload\n      dup2\n      0xff\n      mul\n      not\n      and\n      swap1\n      dup4\n      0x02\n      dup2\n      gt\n      iszero\n      tag_104\n      jumpi\n      tag_105\n      tag_92\n      jump\t// in\n    tag_105:\n    tag_104:\n      mul\n      or\n      swap1\n      sstore\n      pop\n      swap1\n      pop\n      pop\n        /* \"contracts/votingSystem.sol\":1141:1155  voterAddresses */\n      0x01\n        /* \"contracts/votingSystem.sol\":1161:1171  msg.sender */\n      caller\n        /* \"contracts/votingSystem.sol\":1141:1172  voterAddresses.push(msg.sender) */\n      swap1\n      dup1\n      0x01\n      dup2\n      sload\n      add\n      dup1\n      dup3\n      sstore\n      dup1\n      swap2\n      pop\n      pop\n      0x01\n      swap1\n      sub\n      swap1\n      0x00\n      mstore\n      keccak256(0x00, 0x20)\n      add\n      0x00\n      swap1\n      swap2\n      swap1\n      swap2\n      swap1\n      swap2\n      0x0100\n      exp\n      dup2\n      sload\n      dup2\n      0xffffffffffffffffffffffffffffffffffffffff\n      mul\n      not\n      and\n      swap1\n      dup4\n      0xffffffffffffffffffffffffffffffffffffffff\n      and\n      mul\n      or\n      swap1\n      sstore\n      pop\n        /* \"contracts/votingSystem.sol\":1217:1222  votes */\n      0x02\n        /* \"contracts/votingSystem.sol\":1228:1239  preference1 */\n      dup3\n        /* \"contracts/votingSystem.sol\":1223:1240  uint(preference1) */\n      0x02\n      dup2\n      gt\n      iszero\n      tag_107\n      jumpi\n      tag_108\n      tag_92\n      jump\t// in\n    tag_108:\n    tag_107:\n        /* \"contracts/votingSystem.sol\":1217:1241  votes[uint(preference1)] */\n      0x03\n      dup2\n      lt\n      tag_109\n      jumpi\n      tag_110\n      tag_54\n      jump\t// in\n    tag_110:\n    tag_109:\n      add\n      0x00\n        /* \"contracts/votingSystem.sol\":1217:1243  votes[uint(preference1)]++ */\n      dup2\n      sload\n      dup1\n      swap3\n      swap2\n      swap1\n      tag_112\n      swap1\n      tag_113\n      jump\t// in\n    tag_112:\n      swap2\n      swap1\n      pop\n      sstore\n      pop\n        /* \"contracts/votingSystem.sol\":841:1250  function vote(Party preference1, Party preference2) public onlyBeforeVotingClosed {... */\n      pop\n      pop\n      jump\t// out\n        /* \"contracts/votingSystem.sol\":1554:1942  function redistributeThirdPartyVotes() private {... */\n    tag_79:\n        /* \"contracts/votingSystem.sol\":1616:1622  uint i */\n      0x00\n        /* \"contracts/votingSystem.sol\":1611:1867  for (uint i = 0; i < voterAddresses.length; i++) {... */\n    tag_115:\n        /* \"contracts/votingSystem.sol\":1632:1646  voterAddresses */\n      0x01\n        /* \"contracts/votingSystem.sol\":1632:1653  voterAddresses.length */\n      dup1\n      sload\n      swap1\n      pop\n        /* \"contracts/votingSystem.sol\":1628:1629  i */\n      dup2\n        /* \"contracts/votingSystem.sol\":1628:1653  i < voterAddresses.length */\n      lt\n        /* \"contracts/votingSystem.sol\":1611:1867  for (uint i = 0; i < voterAddresses.length; i++) {... */\n      iszero\n      tag_116\n      jumpi\n        /* \"contracts/votingSystem.sol\":1674:1692  Voter memory voter */\n      0x00\n        /* \"contracts/votingSystem.sol\":1695:1701  voters */\n      dup1\n        /* \"contracts/votingSystem.sol\":1695:1720  voters[voterAddresses[i]] */\n      0x00\n        /* \"contracts/votingSystem.sol\":1702:1716  voterAddresses */\n      0x01\n        /* \"contracts/votingSystem.sol\":1717:1718  i */\n      dup5\n        /* \"contracts/votingSystem.sol\":1702:1719  voterAddresses[i] */\n      dup2\n      sload\n      dup2\n      lt\n      tag_118\n      jumpi\n      tag_119\n      tag_54\n      jump\t// in\n    tag_119:\n    tag_118:\n      swap1\n      0x00\n      mstore\n      keccak256(0x00, 0x20)\n      add\n      0x00\n      swap1\n      sload\n      swap1\n      0x0100\n      exp\n      swap1\n      div\n      0xffffffffffffffffffffffffffffffffffffffff\n      and\n        /* \"contracts/votingSystem.sol\":1695:1720  voters[voterAddresses[i]] */\n      0xffffffffffffffffffffffffffffffffffffffff\n      and\n      0xffffffffffffffffffffffffffffffffffffffff\n      and\n      dup2\n      mstore\n      0x20\n      add\n      swap1\n      dup2\n      mstore\n      0x20\n      add\n      0x00\n      keccak256\n        /* \"contracts/votingSystem.sol\":1674:1720  Voter memory voter = voters[voterAddresses[i]] */\n      mload(0x40)\n      dup1\n      0x60\n      add\n      0x40\n      mstore\n      swap1\n      dup2\n      0x00\n      dup3\n      add\n      0x00\n      swap1\n      sload\n      swap1\n      0x0100\n      exp\n      swap1\n      div\n      0xff\n      and\n      iszero\n      iszero\n      iszero\n      iszero\n      dup2\n      mstore\n      0x20\n      add\n      0x00\n      dup3\n      add\n      0x01\n      swap1\n      sload\n      swap1\n      0x0100\n      exp\n      swap1\n      div\n      0xff\n      and\n      0x02\n      dup2\n      gt\n      iszero\n      tag_121\n      jumpi\n      tag_122\n      tag_92\n      jump\t// in\n    tag_122:\n    tag_121:\n      0x02\n      dup2\n      gt\n      iszero\n      tag_123\n      jumpi\n      tag_124\n      tag_92\n      jump\t// in\n    tag_124:\n    tag_123:\n      dup2\n      mstore\n      0x20\n      add\n      0x00\n      dup3\n      add\n      0x02\n      swap1\n      sload\n      swap1\n      0x0100\n      exp\n      swap1\n      div\n      0xff\n      and\n      0x02\n      dup2\n      gt\n      iszero\n      tag_125\n      jumpi\n      tag_126\n      tag_92\n      jump\t// in\n    tag_126:\n    tag_125:\n      0x02\n      dup2\n      gt\n      iszero\n      tag_127\n      jumpi\n      tag_128\n      tag_92\n      jump\t// in\n    tag_128:\n    tag_127:\n      dup2\n      mstore\n      pop\n      pop\n      swap1\n      pop\n        /* \"contracts/votingSystem.sol\":1738:1743  voter */\n      dup1\n        /* \"contracts/votingSystem.sol\":1738:1749  voter.voted */\n      0x00\n      add\n      mload\n        /* \"contracts/votingSystem.sol\":1738:1790  voter.voted && voter.preference1 == Party.ThirdParty */\n      dup1\n      iszero\n      tag_129\n      jumpi\n      pop\n        /* \"contracts/votingSystem.sol\":1774:1790  Party.ThirdParty */\n      0x02\n        /* \"contracts/votingSystem.sol\":1753:1790  voter.preference1 == Party.ThirdParty */\n      dup1\n      dup2\n      gt\n      iszero\n      tag_130\n      jumpi\n      tag_131\n      tag_92\n      jump\t// in\n    tag_131:\n    tag_130:\n        /* \"contracts/votingSystem.sol\":1753:1758  voter */\n      dup2\n        /* \"contracts/votingSystem.sol\":1753:1770  voter.preference1 */\n      0x20\n      add\n      mload\n        /* \"contracts/votingSystem.sol\":1753:1790  voter.preference1 == Party.ThirdParty */\n      0x02\n      dup2\n      gt\n      iszero\n      tag_132\n      jumpi\n      tag_133\n      tag_92\n      jump\t// in\n    tag_133:\n    tag_132:\n      eq\n        /* \"contracts/votingSystem.sol\":1738:1790  voter.voted && voter.preference1 == Party.ThirdParty */\n    tag_129:\n        /* \"contracts/votingSystem.sol\":1734:1857  if (voter.voted && voter.preference1 == Party.ThirdParty) {... */\n      iszero\n      tag_134\n      jumpi\n        /* \"contracts/votingSystem.sol\":1810:1815  votes */\n      0x02\n        /* \"contracts/votingSystem.sol\":1821:1826  voter */\n      dup2\n        /* \"contracts/votingSystem.sol\":1821:1838  voter.preference2 */\n      0x40\n      add\n      mload\n        /* \"contracts/votingSystem.sol\":1816:1839  uint(voter.preference2) */\n      0x02\n      dup2\n      gt\n      iszero\n      tag_135\n      jumpi\n      tag_136\n      tag_92\n      jump\t// in\n    tag_136:\n    tag_135:\n        /* \"contracts/votingSystem.sol\":1810:1840  votes[uint(voter.preference2)] */\n      0x03\n      dup2\n      lt\n      tag_137\n      jumpi\n      tag_138\n      tag_54\n      jump\t// in\n    tag_138:\n    tag_137:\n      add\n      0x00\n        /* \"contracts/votingSystem.sol\":1810:1842  votes[uint(voter.preference2)]++ */\n      dup2\n      sload\n      dup1\n      swap3\n      swap2\n      swap1\n      tag_140\n      swap1\n      tag_113\n      jump\t// in\n    tag_140:\n      swap2\n      swap1\n      pop\n      sstore\n      pop\n        /* \"contracts/votingSystem.sol\":1734:1857  if (voter.voted && voter.preference1 == Party.ThirdParty) {... */\n    tag_134:\n        /* \"contracts/votingSystem.sol\":1660:1867  {... */\n      pop\n        /* \"contracts/votingSystem.sol\":1655:1658  i++ */\n      dup1\n      dup1\n      tag_141\n      swap1\n      tag_113\n      jump\t// in\n    tag_141:\n      swap2\n      pop\n      pop\n        /* \"contracts/votingSystem.sol\":1611:1867  for (uint i = 0; i < voterAddresses.length; i++) {... */\n      jump(tag_115)\n    tag_116:\n      pop\n        /* \"contracts/votingSystem.sol\":1887:1888  0 */\n      0x00\n        /* \"contracts/votingSystem.sol\":1876:1881  votes */\n      0x02\n        /* \"contracts/votingSystem.sol\":1882:1883  2 */\n      dup1\n        /* \"contracts/votingSystem.sol\":1876:1884  votes[2] */\n      0x03\n      dup2\n      lt\n      tag_142\n      jumpi\n      tag_143\n      tag_54\n      jump\t// in\n    tag_143:\n    tag_142:\n      add\n        /* \"contracts/votingSystem.sol\":1876:1888  votes[2] = 0 */\n      dup2\n      swap1\n      sstore\n      pop\n        /* \"contracts/votingSystem.sol\":1554:1942  function redistributeThirdPartyVotes() private {... */\n      jump\t// out\n        /* \"#utility.yul\":7:97   */\n    tag_145:\n        /* \"#utility.yul\":41:48   */\n      0x00\n        /* \"#utility.yul\":84:89   */\n      dup2\n        /* \"#utility.yul\":77:90   */\n      iszero\n        /* \"#utility.yul\":70:91   */\n      iszero\n        /* \"#utility.yul\":59:91   */\n      swap1\n      pop\n        /* \"#utility.yul\":7:97   */\n      swap2\n      swap1\n      pop\n      jump\t// out\n        /* \"#utility.yul\":103:212   */\n    tag_146:\n        /* \"#utility.yul\":184:205   */\n      tag_182\n        /* \"#utility.yul\":199:204   */\n      dup2\n        /* \"#utility.yul\":184:205   */\n      tag_145\n      jump\t// in\n    tag_182:\n        /* \"#utility.yul\":179:182   */\n      dup3\n        /* \"#utility.yul\":172:206   */\n      mstore\n        /* \"#utility.yul\":103:212   */\n      pop\n      pop\n      jump\t// out\n        /* \"#utility.yul\":218:428   */\n    tag_15:\n        /* \"#utility.yul\":305:309   */\n      0x00\n        /* \"#utility.yul\":343:345   */\n      0x20\n        /* \"#utility.yul\":332:341   */\n      dup3\n        /* \"#utility.yul\":328:346   */\n      add\n        /* \"#utility.yul\":320:346   */\n      swap1\n      pop\n        /* \"#utility.yul\":356:421   */\n      tag_184\n        /* \"#utility.yul\":418:419   */\n      0x00\n        /* \"#utility.yul\":407:416   */\n      dup4\n        /* \"#utility.yul\":403:420   */\n      add\n        /* \"#utility.yul\":394:400   */\n      dup5\n        /* \"#utility.yul\":356:421   */\n      tag_146\n      jump\t// in\n    tag_184:\n        /* \"#utility.yul\":218:428   */\n      swap3\n      swap2\n      pop\n      pop\n      jump\t// out\n        /* \"#utility.yul\":434:560   */\n    tag_147:\n        /* \"#utility.yul\":471:478   */\n      0x00\n        /* \"#utility.yul\":511:553   */\n      0xffffffffffffffffffffffffffffffffffffffff\n        /* \"#utility.yul\":504:509   */\n      dup3\n        /* \"#utility.yul\":500:554   */\n      and\n        /* \"#utility.yul\":489:554   */\n      swap1\n      pop\n        /* \"#utility.yul\":434:560   */\n      swap2\n      swap1\n      pop\n      jump\t// out\n        /* \"#utility.yul\":566:662   */\n    tag_148:\n        /* \"#utility.yul\":603:610   */\n      0x00\n        /* \"#utility.yul\":632:656   */\n      tag_187\n        /* \"#utility.yul\":650:655   */\n      dup3\n        /* \"#utility.yul\":632:656   */\n      tag_147\n      jump\t// in\n    tag_187:\n        /* \"#utility.yul\":621:656   */\n      swap1\n      pop\n        /* \"#utility.yul\":566:662   */\n      swap2\n      swap1\n      pop\n      jump\t// out\n        /* \"#utility.yul\":668:786   */\n    tag_149:\n        /* \"#utility.yul\":755:779   */\n      tag_189\n        /* \"#utility.yul\":773:778   */\n      dup2\n        /* \"#utility.yul\":755:779   */\n      tag_148\n      jump\t// in\n    tag_189:\n        /* \"#utility.yul\":750:753   */\n      dup3\n        /* \"#utility.yul\":743:780   */\n      mstore\n        /* \"#utility.yul\":668:786   */\n      pop\n      pop\n      jump\t// out\n        /* \"#utility.yul\":792:1014   */\n    tag_19:\n        /* \"#utility.yul\":885:889   */\n      0x00\n        /* \"#utility.yul\":923:925   */\n      0x20\n        /* \"#utility.yul\":912:921   */\n      dup3\n        /* \"#utility.yul\":908:926   */\n      add\n        /* \"#utility.yul\":900:926   */\n      swap1\n      pop\n        /* \"#utility.yul\":936:1007   */\n      tag_191\n        /* \"#utility.yul\":1004:1005   */\n      0x00\n        /* \"#utility.yul\":993:1002   */\n      dup4\n        /* \"#utility.yul\":989:1006   */\n      add\n        /* \"#utility.yul\":980:986   */\n      dup5\n        /* \"#utility.yul\":936:1007   */\n      tag_149\n      jump\t// in\n    tag_191:\n        /* \"#utility.yul\":792:1014   */\n      swap3\n      swap2\n      pop\n      pop\n      jump\t// out\n        /* \"#utility.yul\":1101:1218   */\n    tag_151:\n        /* \"#utility.yul\":1210:1211   */\n      0x00\n        /* \"#utility.yul\":1207:1208   */\n      dup1\n        /* \"#utility.yul\":1200:1212   */\n      revert\n        /* \"#utility.yul\":1347:1424   */\n    tag_153:\n        /* \"#utility.yul\":1384:1391   */\n      0x00\n        /* \"#utility.yul\":1413:1418   */\n      dup2\n        /* \"#utility.yul\":1402:1418   */\n      swap1\n      pop\n        /* \"#utility.yul\":1347:1424   */\n      swap2\n      swap1\n      pop\n      jump\t// out\n        /* \"#utility.yul\":1430:1552   */\n    tag_154:\n        /* \"#utility.yul\":1503:1527   */\n      tag_197\n        /* \"#utility.yul\":1521:1526   */\n      dup2\n        /* \"#utility.yul\":1503:1527   */\n      tag_153\n      jump\t// in\n    tag_197:\n        /* \"#utility.yul\":1496:1501   */\n      dup2\n        /* \"#utility.yul\":1493:1528   */\n      eq\n        /* \"#utility.yul\":1483:1546   */\n      tag_198\n      jumpi\n        /* \"#utility.yul\":1542:1543   */\n      0x00\n        /* \"#utility.yul\":1539:1540   */\n      dup1\n        /* \"#utility.yul\":1532:1544   */\n      revert\n        /* \"#utility.yul\":1483:1546   */\n    tag_198:\n        /* \"#utility.yul\":1430:1552   */\n      pop\n      jump\t// out\n        /* \"#utility.yul\":1558:1697   */\n    tag_155:\n        /* \"#utility.yul\":1604:1609   */\n      0x00\n        /* \"#utility.yul\":1642:1648   */\n      dup2\n        /* \"#utility.yul\":1629:1649   */\n      calldataload\n        /* \"#utility.yul\":1620:1649   */\n      swap1\n      pop\n        /* \"#utility.yul\":1658:1691   */\n      tag_200\n        /* \"#utility.yul\":1685:1690   */\n      dup2\n        /* \"#utility.yul\":1658:1691   */\n      tag_154\n      jump\t// in\n    tag_200:\n        /* \"#utility.yul\":1558:1697   */\n      swap3\n      swap2\n      pop\n      pop\n      jump\t// out\n        /* \"#utility.yul\":1703:2032   */\n    tag_22:\n        /* \"#utility.yul\":1762:1768   */\n      0x00\n        /* \"#utility.yul\":1811:1813   */\n      0x20\n        /* \"#utility.yul\":1799:1808   */\n      dup3\n        /* \"#utility.yul\":1790:1797   */\n      dup5\n        /* \"#utility.yul\":1786:1809   */\n      sub\n        /* \"#utility.yul\":1782:1814   */\n      slt\n        /* \"#utility.yul\":1779:1898   */\n      iszero\n      tag_202\n      jumpi\n        /* \"#utility.yul\":1817:1896   */\n      tag_203\n      tag_151\n      jump\t// in\n    tag_203:\n        /* \"#utility.yul\":1779:1898   */\n    tag_202:\n        /* \"#utility.yul\":1937:1938   */\n      0x00\n        /* \"#utility.yul\":1962:2015   */\n      tag_204\n        /* \"#utility.yul\":2007:2014   */\n      dup5\n        /* \"#utility.yul\":1998:2004   */\n      dup3\n        /* \"#utility.yul\":1987:1996   */\n      dup6\n        /* \"#utility.yul\":1983:2005   */\n      add\n        /* \"#utility.yul\":1962:2015   */\n      tag_155\n      jump\t// in\n    tag_204:\n        /* \"#utility.yul\":1952:2015   */\n      swap2\n      pop\n        /* \"#utility.yul\":1908:2025   */\n      pop\n        /* \"#utility.yul\":1703:2032   */\n      swap3\n      swap2\n      pop\n      pop\n      jump\t// out\n        /* \"#utility.yul\":2038:2156   */\n    tag_156:\n        /* \"#utility.yul\":2125:2149   */\n      tag_206\n        /* \"#utility.yul\":2143:2148   */\n      dup2\n        /* \"#utility.yul\":2125:2149   */\n      tag_153\n      jump\t// in\n    tag_206:\n        /* \"#utility.yul\":2120:2123   */\n      dup3\n        /* \"#utility.yul\":2113:2150   */\n      mstore\n        /* \"#utility.yul\":2038:2156   */\n      pop\n      pop\n      jump\t// out\n        /* \"#utility.yul\":2162:2384   */\n    tag_25:\n        /* \"#utility.yul\":2255:2259   */\n      0x00\n        /* \"#utility.yul\":2293:2295   */\n      0x20\n        /* \"#utility.yul\":2282:2291   */\n      dup3\n        /* \"#utility.yul\":2278:2296   */\n      add\n        /* \"#utility.yul\":2270:2296   */\n      swap1\n      pop\n        /* \"#utility.yul\":2306:2377   */\n      tag_208\n        /* \"#utility.yul\":2374:2375   */\n      0x00\n        /* \"#utility.yul\":2363:2372   */\n      dup4\n        /* \"#utility.yul\":2359:2376   */\n      add\n        /* \"#utility.yul\":2350:2356   */\n      dup5\n        /* \"#utility.yul\":2306:2377   */\n      tag_156\n      jump\t// in\n    tag_208:\n        /* \"#utility.yul\":2162:2384   */\n      swap3\n      swap2\n      pop\n      pop\n      jump\t// out\n        /* \"#utility.yul\":2390:2512   */\n    tag_157:\n        /* \"#utility.yul\":2463:2487   */\n      tag_210\n        /* \"#utility.yul\":2481:2486   */\n      dup2\n        /* \"#utility.yul\":2463:2487   */\n      tag_148\n      jump\t// in\n    tag_210:\n        /* \"#utility.yul\":2456:2461   */\n      dup2\n        /* \"#utility.yul\":2453:2488   */\n      eq\n        /* \"#utility.yul\":2443:2506   */\n      tag_211\n      jumpi\n        /* \"#utility.yul\":2502:2503   */\n      0x00\n        /* \"#utility.yul\":2499:2500   */\n      dup1\n        /* \"#utility.yul\":2492:2504   */\n      revert\n        /* \"#utility.yul\":2443:2506   */\n    tag_211:\n        /* \"#utility.yul\":2390:2512   */\n      pop\n      jump\t// out\n        /* \"#utility.yul\":2518:2657   */\n    tag_158:\n        /* \"#utility.yul\":2564:2569   */\n      0x00\n        /* \"#utility.yul\":2602:2608   */\n      dup2\n        /* \"#utility.yul\":2589:2609   */\n      calldataload\n        /* \"#utility.yul\":2580:2609   */\n      swap1\n      pop\n        /* \"#utility.yul\":2618:2651   */\n      tag_213\n        /* \"#utility.yul\":2645:2650   */\n      dup2\n        /* \"#utility.yul\":2618:2651   */\n      tag_157\n      jump\t// in\n    tag_213:\n        /* \"#utility.yul\":2518:2657   */\n      swap3\n      swap2\n      pop\n      pop\n      jump\t// out\n        /* \"#utility.yul\":2663:2992   */\n    tag_28:\n        /* \"#utility.yul\":2722:2728   */\n      0x00\n        /* \"#utility.yul\":2771:2773   */\n      0x20\n        /* \"#utility.yul\":2759:2768   */\n      dup3\n        /* \"#utility.yul\":2750:2757   */\n      dup5\n        /* \"#utility.yul\":2746:2769   */\n      sub\n        /* \"#utility.yul\":2742:2774   */\n      slt\n        /* \"#utility.yul\":2739:2858   */\n      iszero\n      tag_215\n      jumpi\n        /* \"#utility.yul\":2777:2856   */\n      tag_216\n      tag_151\n      jump\t// in\n    tag_216:\n        /* \"#utility.yul\":2739:2858   */\n    tag_215:\n        /* \"#utility.yul\":2897:2898   */\n      0x00\n        /* \"#utility.yul\":2922:2975   */\n      tag_217\n        /* \"#utility.yul\":2967:2974   */\n      dup5\n        /* \"#utility.yul\":2958:2964   */\n      dup3\n        /* \"#utility.yul\":2947:2956   */\n      dup6\n        /* \"#utility.yul\":2943:2965   */\n      add\n        /* \"#utility.yul\":2922:2975   */\n      tag_158\n      jump\t// in\n    tag_217:\n        /* \"#utility.yul\":2912:2975   */\n      swap2\n      pop\n        /* \"#utility.yul\":2868:2985   */\n      pop\n        /* \"#utility.yul\":2663:2992   */\n      swap3\n      swap2\n      pop\n      pop\n      jump\t// out\n        /* \"#utility.yul\":2998:3178   */\n    tag_92:\n        /* \"#utility.yul\":3046:3123   */\n      0x4e487b7100000000000000000000000000000000000000000000000000000000\n        /* \"#utility.yul\":3043:3044   */\n      0x00\n        /* \"#utility.yul\":3036:3124   */\n      mstore\n        /* \"#utility.yul\":3143:3147   */\n      0x21\n        /* \"#utility.yul\":3140:3141   */\n      0x04\n        /* \"#utility.yul\":3133:3148   */\n      mstore\n        /* \"#utility.yul\":3167:3171   */\n      0x24\n        /* \"#utility.yul\":3164:3165   */\n      0x00\n        /* \"#utility.yul\":3157:3172   */\n      revert\n        /* \"#utility.yul\":3184:3296   */\n    tag_159:\n        /* \"#utility.yul\":3264:3265   */\n      0x03\n        /* \"#utility.yul\":3257:3262   */\n      dup2\n        /* \"#utility.yul\":3254:3266   */\n      lt\n        /* \"#utility.yul\":3244:3290   */\n      tag_220\n      jumpi\n        /* \"#utility.yul\":3270:3288   */\n      tag_221\n      tag_92\n      jump\t// in\n    tag_221:\n        /* \"#utility.yul\":3244:3290   */\n    tag_220:\n        /* \"#utility.yul\":3184:3296   */\n      pop\n      jump\t// out\n        /* \"#utility.yul\":3302:3427   */\n    tag_160:\n        /* \"#utility.yul\":3346:3353   */\n      0x00\n        /* \"#utility.yul\":3375:3380   */\n      dup2\n        /* \"#utility.yul\":3364:3380   */\n      swap1\n      pop\n        /* \"#utility.yul\":3381:3421   */\n      tag_223\n        /* \"#utility.yul\":3415:3420   */\n      dup3\n        /* \"#utility.yul\":3381:3421   */\n      tag_159\n      jump\t// in\n    tag_223:\n        /* \"#utility.yul\":3302:3427   */\n      swap2\n      swap1\n      pop\n      jump\t// out\n        /* \"#utility.yul\":3433:3558   */\n    tag_161:\n        /* \"#utility.yul\":3488:3497   */\n      0x00\n        /* \"#utility.yul\":3521:3552   */\n      tag_225\n        /* \"#utility.yul\":3546:3551   */\n      dup3\n        /* \"#utility.yul\":3521:3552   */\n      tag_160\n      jump\t// in\n    tag_225:\n        /* \"#utility.yul\":3508:3552   */\n      swap1\n      pop\n        /* \"#utility.yul\":3433:3558   */\n      swap2\n      swap1\n      pop\n      jump\t// out\n        /* \"#utility.yul\":3564:3705   */\n    tag_162:\n        /* \"#utility.yul\":3656:3698   */\n      tag_227\n        /* \"#utility.yul\":3692:3697   */\n      dup2\n        /* \"#utility.yul\":3656:3698   */\n      tag_161\n      jump\t// in\n    tag_227:\n        /* \"#utility.yul\":3651:3654   */\n      dup3\n        /* \"#utility.yul\":3644:3699   */\n      mstore\n        /* \"#utility.yul\":3564:3705   */\n      pop\n      pop\n      jump\t// out\n        /* \"#utility.yul\":3711:4161   */\n    tag_31:\n        /* \"#utility.yul\":3864:3868   */\n      0x00\n        /* \"#utility.yul\":3902:3904   */\n      0x60\n        /* \"#utility.yul\":3891:3900   */\n      dup3\n        /* \"#utility.yul\":3887:3905   */\n      add\n        /* \"#utility.yul\":3879:3905   */\n      swap1\n      pop\n        /* \"#utility.yul\":3915:3980   */\n      tag_229\n        /* \"#utility.yul\":3977:3978   */\n      0x00\n        /* \"#utility.yul\":3966:3975   */\n      dup4\n        /* \"#utility.yul\":3962:3979   */\n      add\n        /* \"#utility.yul\":3953:3959   */\n      dup7\n        /* \"#utility.yul\":3915:3980   */\n      tag_146\n      jump\t// in\n    tag_229:\n        /* \"#utility.yul\":3990:4067   */\n      tag_230\n        /* \"#utility.yul\":4063:4065   */\n      0x20\n        /* \"#utility.yul\":4052:4061   */\n      dup4\n        /* \"#utility.yul\":4048:4066   */\n      add\n        /* \"#utility.yul\":4039:4045   */\n      dup6\n        /* \"#utility.yul\":3990:4067   */\n      tag_162\n      jump\t// in\n    tag_230:\n        /* \"#utility.yul\":4077:4154   */\n      tag_231\n        /* \"#utility.yul\":4150:4152   */\n      0x40\n        /* \"#utility.yul\":4139:4148   */\n      dup4\n        /* \"#utility.yul\":4135:4153   */\n      add\n        /* \"#utility.yul\":4126:4132   */\n      dup5\n        /* \"#utility.yul\":4077:4154   */\n      tag_162\n      jump\t// in\n    tag_231:\n        /* \"#utility.yul\":3711:4161   */\n      swap5\n      swap4\n      pop\n      pop\n      pop\n      pop\n      jump\t// out\n        /* \"#utility.yul\":4167:4399   */\n    tag_35:\n        /* \"#utility.yul\":4265:4269   */\n      0x00\n        /* \"#utility.yul\":4303:4305   */\n      0x20\n        /* \"#utility.yul\":4292:4301   */\n      dup3\n        /* \"#utility.yul\":4288:4306   */\n      add\n        /* \"#utility.yul\":4280:4306   */\n      swap1\n      pop\n        /* \"#utility.yul\":4316:4392   */\n      tag_233\n        /* \"#utility.yul\":4389:4390   */\n      0x00\n        /* \"#utility.yul\":4378:4387   */\n      dup4\n        /* \"#utility.yul\":4374:4391   */\n      add\n        /* \"#utility.yul\":4365:4371   */\n      dup5\n        /* \"#utility.yul\":4316:4392   */\n      tag_162\n      jump\t// in\n    tag_233:\n        /* \"#utility.yul\":4167:4399   */\n      swap3\n      swap2\n      pop\n      pop\n      jump\t// out\n        /* \"#utility.yul\":4405:4511   */\n    tag_163:\n        /* \"#utility.yul\":4485:4486   */\n      0x03\n        /* \"#utility.yul\":4478:4483   */\n      dup2\n        /* \"#utility.yul\":4475:4487   */\n      lt\n        /* \"#utility.yul\":4465:4505   */\n      tag_235\n      jumpi\n        /* \"#utility.yul\":4501:4502   */\n      0x00\n        /* \"#utility.yul\":4498:4499   */\n      dup1\n        /* \"#utility.yul\":4491:4503   */\n      revert\n        /* \"#utility.yul\":4465:4505   */\n    tag_235:\n        /* \"#utility.yul\":4405:4511   */\n      pop\n      jump\t// out\n        /* \"#utility.yul\":4517:4670   */\n    tag_164:\n        /* \"#utility.yul\":4570:4575   */\n      0x00\n        /* \"#utility.yul\":4608:4614   */\n      dup2\n        /* \"#utility.yul\":4595:4615   */\n      calldataload\n        /* \"#utility.yul\":4586:4615   */\n      swap1\n      pop\n        /* \"#utility.yul\":4624:4664   */\n      tag_237\n        /* \"#utility.yul\":4658:4663   */\n      dup2\n        /* \"#utility.yul\":4624:4664   */\n      tag_163\n      jump\t// in\n    tag_237:\n        /* \"#utility.yul\":4517:4670   */\n      swap3\n      swap2\n      pop\n      pop\n      jump\t// out\n        /* \"#utility.yul\":4676:5178   */\n    tag_44:\n        /* \"#utility.yul\":4758:4764   */\n      0x00\n        /* \"#utility.yul\":4766:4772   */\n      dup1\n        /* \"#utility.yul\":4815:4817   */\n      0x40\n        /* \"#utility.yul\":4803:4812   */\n      dup4\n        /* \"#utility.yul\":4794:4801   */\n      dup6\n        /* \"#utility.yul\":4790:4813   */\n      sub\n        /* \"#utility.yul\":4786:4818   */\n      slt\n        /* \"#utility.yul\":4783:4902   */\n      iszero\n      tag_239\n      jumpi\n        /* \"#utility.yul\":4821:4900   */\n      tag_240\n      tag_151\n      jump\t// in\n    tag_240:\n        /* \"#utility.yul\":4783:4902   */\n    tag_239:\n        /* \"#utility.yul\":4941:4942   */\n      0x00\n        /* \"#utility.yul\":4966:5026   */\n      tag_241\n        /* \"#utility.yul\":5018:5025   */\n      dup6\n        /* \"#utility.yul\":5009:5015   */\n      dup3\n        /* \"#utility.yul\":4998:5007   */\n      dup7\n        /* \"#utility.yul\":4994:5016   */\n      add\n        /* \"#utility.yul\":4966:5026   */\n      tag_164\n      jump\t// in\n    tag_241:\n        /* \"#utility.yul\":4956:5026   */\n      swap3\n      pop\n        /* \"#utility.yul\":4912:5036   */\n      pop\n        /* \"#utility.yul\":5075:5077   */\n      0x20\n        /* \"#utility.yul\":5101:5161   */\n      tag_242\n        /* \"#utility.yul\":5153:5160   */\n      dup6\n        /* \"#utility.yul\":5144:5150   */\n      dup3\n        /* \"#utility.yul\":5133:5142   */\n      dup7\n        /* \"#utility.yul\":5129:5151   */\n      add\n        /* \"#utility.yul\":5101:5161   */\n      tag_164\n      jump\t// in\n    tag_242:\n        /* \"#utility.yul\":5091:5161   */\n      swap2\n      pop\n        /* \"#utility.yul\":5046:5171   */\n      pop\n        /* \"#utility.yul\":4676:5178   */\n      swap3\n      pop\n      swap3\n      swap1\n      pop\n      jump\t// out\n        /* \"#utility.yul\":5184:5353   */\n    tag_165:\n        /* \"#utility.yul\":5268:5279   */\n      0x00\n        /* \"#utility.yul\":5302:5308   */\n      dup3\n        /* \"#utility.yul\":5297:5300   */\n      dup3\n        /* \"#utility.yul\":5290:5309   */\n      mstore\n        /* \"#utility.yul\":5342:5346   */\n      0x20\n        /* \"#utility.yul\":5337:5340   */\n      dup3\n        /* \"#utility.yul\":5333:5347   */\n      add\n        /* \"#utility.yul\":5318:5347   */\n      swap1\n      pop\n        /* \"#utility.yul\":5184:5353   */\n      swap3\n      swap2\n      pop\n      pop\n      jump\t// out\n        /* \"#utility.yul\":5359:5533   */\n    tag_166:\n        /* \"#utility.yul\":5499:5525   */\n      0x566f74696e67206973206e6f7420636c6f736564207965740000000000000000\n        /* \"#utility.yul\":5495:5496   */\n      0x00\n        /* \"#utility.yul\":5487:5493   */\n      dup3\n        /* \"#utility.yul\":5483:5497   */\n      add\n        /* \"#utility.yul\":5476:5526   */\n      mstore\n        /* \"#utility.yul\":5359:5533   */\n      pop\n      jump\t// out\n        /* \"#utility.yul\":5539:5905   */\n    tag_167:\n        /* \"#utility.yul\":5681:5684   */\n      0x00\n        /* \"#utility.yul\":5702:5769   */\n      tag_246\n        /* \"#utility.yul\":5766:5768   */\n      0x18\n        /* \"#utility.yul\":5761:5764   */\n      dup4\n        /* \"#utility.yul\":5702:5769   */\n      tag_165\n      jump\t// in\n    tag_246:\n        /* \"#utility.yul\":5695:5769   */\n      swap2\n      pop\n        /* \"#utility.yul\":5778:5871   */\n      tag_247\n        /* \"#utility.yul\":5867:5870   */\n      dup3\n        /* \"#utility.yul\":5778:5871   */\n      tag_166\n      jump\t// in\n    tag_247:\n        /* \"#utility.yul\":5896:5898   */\n      0x20\n        /* \"#utility.yul\":5891:5894   */\n      dup3\n        /* \"#utility.yul\":5887:5899   */\n      add\n        /* \"#utility.yul\":5880:5899   */\n      swap1\n      pop\n        /* \"#utility.yul\":5539:5905   */\n      swap2\n      swap1\n      pop\n      jump\t// out\n        /* \"#utility.yul\":5911:6330   */\n    tag_51:\n        /* \"#utility.yul\":6077:6081   */\n      0x00\n        /* \"#utility.yul\":6115:6117   */\n      0x20\n        /* \"#utility.yul\":6104:6113   */\n      dup3\n        /* \"#utility.yul\":6100:6118   */\n      add\n        /* \"#utility.yul\":6092:6118   */\n      swap1\n      pop\n        /* \"#utility.yul\":6164:6173   */\n      dup2\n        /* \"#utility.yul\":6158:6162   */\n      dup2\n        /* \"#utility.yul\":6154:6174   */\n      sub\n        /* \"#utility.yul\":6150:6151   */\n      0x00\n        /* \"#utility.yul\":6139:6148   */\n      dup4\n        /* \"#utility.yul\":6135:6152   */\n      add\n        /* \"#utility.yul\":6128:6175   */\n      mstore\n        /* \"#utility.yul\":6192:6323   */\n      tag_249\n        /* \"#utility.yul\":6318:6322   */\n      dup2\n        /* \"#utility.yul\":6192:6323   */\n      tag_167\n      jump\t// in\n    tag_249:\n        /* \"#utility.yul\":6184:6323   */\n      swap1\n      pop\n        /* \"#utility.yul\":5911:6330   */\n      swap2\n      swap1\n      pop\n      jump\t// out\n        /* \"#utility.yul\":6336:6516   */\n    tag_54:\n        /* \"#utility.yul\":6384:6461   */\n      0x4e487b7100000000000000000000000000000000000000000000000000000000\n        /* \"#utility.yul\":6381:6382   */\n      0x00\n        /* \"#utility.yul\":6374:6462   */\n      mstore\n        /* \"#utility.yul\":6481:6485   */\n      0x32\n        /* \"#utility.yul\":6478:6479   */\n      0x04\n        /* \"#utility.yul\":6471:6486   */\n      mstore\n        /* \"#utility.yul\":6505:6509   */\n      0x24\n        /* \"#utility.yul\":6502:6503   */\n      0x00\n        /* \"#utility.yul\":6495:6510   */\n      revert\n        /* \"#utility.yul\":6522:6748   */\n    tag_168:\n        /* \"#utility.yul\":6662:6696   */\n      0x4f6e6c79206368616972706572736f6e2063616e2063616c6c20746869732066\n        /* \"#utility.yul\":6658:6659   */\n      0x00\n        /* \"#utility.yul\":6650:6656   */\n      dup3\n        /* \"#utility.yul\":6646:6660   */\n      add\n        /* \"#utility.yul\":6639:6697   */\n      mstore\n        /* \"#utility.yul\":6731:6740   */\n      0x756e6374696f6e00000000000000000000000000000000000000000000000000\n        /* \"#utility.yul\":6726:6728   */\n      0x20\n        /* \"#utility.yul\":6718:6724   */\n      dup3\n        /* \"#utility.yul\":6714:6729   */\n      add\n        /* \"#utility.yul\":6707:6741   */\n      mstore\n        /* \"#utility.yul\":6522:6748   */\n      pop\n      jump\t// out\n        /* \"#utility.yul\":6754:7120   */\n    tag_169:\n        /* \"#utility.yul\":6896:6899   */\n      0x00\n        /* \"#utility.yul\":6917:6984   */\n      tag_253\n        /* \"#utility.yul\":6981:6983   */\n      0x27\n        /* \"#utility.yul\":6976:6979   */\n      dup4\n        /* \"#utility.yul\":6917:6984   */\n      tag_165\n      jump\t// in\n    tag_253:\n        /* \"#utility.yul\":6910:6984   */\n      swap2\n      pop\n        /* \"#utility.yul\":6993:7086   */\n      tag_254\n        /* \"#utility.yul\":7082:7085   */\n      dup3\n        /* \"#utility.yul\":6993:7086   */\n      tag_168\n      jump\t// in\n    tag_254:\n        /* \"#utility.yul\":7111:7113   */\n      0x40\n        /* \"#utility.yul\":7106:7109   */\n      dup3\n        /* \"#utility.yul\":7102:7114   */\n      add\n        /* \"#utility.yul\":7095:7114   */\n      swap1\n      pop\n        /* \"#utility.yul\":6754:7120   */\n      swap2\n      swap1\n      pop\n      jump\t// out\n        /* \"#utility.yul\":7126:7545   */\n    tag_64:\n        /* \"#utility.yul\":7292:7296   */\n      0x00\n        /* \"#utility.yul\":7330:7332   */\n      0x20\n        /* \"#utility.yul\":7319:7328   */\n      dup3\n        /* \"#utility.yul\":7315:7333   */\n      add\n        /* \"#utility.yul\":7307:7333   */\n      swap1\n      pop\n        /* \"#utility.yul\":7379:7388   */\n      dup2\n        /* \"#utility.yul\":7373:7377   */\n      dup2\n        /* \"#utility.yul\":7369:7389   */\n      sub\n        /* \"#utility.yul\":7365:7366   */\n      0x00\n        /* \"#utility.yul\":7354:7363   */\n      dup4\n        /* \"#utility.yul\":7350:7367   */\n      add\n        /* \"#utility.yul\":7343:7390   */\n      mstore\n        /* \"#utility.yul\":7407:7538   */\n      tag_256\n        /* \"#utility.yul\":7533:7537   */\n      dup2\n        /* \"#utility.yul\":7407:7538   */\n      tag_169\n      jump\t// in\n    tag_256:\n        /* \"#utility.yul\":7399:7538   */\n      swap1\n      pop\n        /* \"#utility.yul\":7126:7545   */\n      swap2\n      swap1\n      pop\n      jump\t// out\n        /* \"#utility.yul\":7551:7722   */\n    tag_170:\n        /* \"#utility.yul\":7691:7714   */\n      0x566f74696e6720616c726561647920636c6f7365640000000000000000000000\n        /* \"#utility.yul\":7687:7688   */\n      0x00\n        /* \"#utility.yul\":7679:7685   */\n      dup3\n        /* \"#utility.yul\":7675:7689   */\n      add\n        /* \"#utility.yul\":7668:7715   */\n      mstore\n        /* \"#utility.yul\":7551:7722   */\n      pop\n      jump\t// out\n        /* \"#utility.yul\":7728:8094   */\n    tag_171:\n        /* \"#utility.yul\":7870:7873   */\n      0x00\n        /* \"#utility.yul\":7891:7958   */\n      tag_259\n        /* \"#utility.yul\":7955:7957   */\n      0x15\n        /* \"#utility.yul\":7950:7953   */\n      dup4\n        /* \"#utility.yul\":7891:7958   */\n      tag_165\n      jump\t// in\n    tag_259:\n        /* \"#utility.yul\":7884:7958   */\n      swap2\n      pop\n        /* \"#utility.yul\":7967:8060   */\n      tag_260\n        /* \"#utility.yul\":8056:8059   */\n      dup3\n        /* \"#utility.yul\":7967:8060   */\n      tag_170\n      jump\t// in\n    tag_260:\n        /* \"#utility.yul\":8085:8087   */\n      0x20\n        /* \"#utility.yul\":8080:8083   */\n      dup3\n        /* \"#utility.yul\":8076:8088   */\n      add\n        /* \"#utility.yul\":8069:8088   */\n      swap1\n      pop\n        /* \"#utility.yul\":7728:8094   */\n      swap2\n      swap1\n      pop\n      jump\t// out\n        /* \"#utility.yul\":8100:8519   */\n    tag_68:\n        /* \"#utility.yul\":8266:8270   */\n      0x00\n        /* \"#utility.yul\":8304:8306   */\n      0x20\n        /* \"#utility.yul\":8293:8302   */\n      dup3\n        /* \"#utility.yul\":8289:8307   */\n      add\n        /* \"#utility.yul\":8281:8307   */\n      swap1\n      pop\n        /* \"#utility.yul\":8353:8362   */\n      dup2\n        /* \"#utility.yul\":8347:8351   */\n      dup2\n        /* \"#utility.yul\":8343:8363   */\n      sub\n        /* \"#utility.yul\":8339:8340   */\n      0x00\n        /* \"#utility.yul\":8328:8337   */\n      dup4\n        /* \"#utility.yul\":8324:8341   */\n      add\n        /* \"#utility.yul\":8317:8364   */\n      mstore\n        /* \"#utility.yul\":8381:8512   */\n      tag_262\n        /* \"#utility.yul\":8507:8511   */\n      dup2\n        /* \"#utility.yul\":8381:8512   */\n      tag_171\n      jump\t// in\n    tag_262:\n        /* \"#utility.yul\":8373:8512   */\n      swap1\n      pop\n        /* \"#utility.yul\":8100:8519   */\n      swap2\n      swap1\n      pop\n      jump\t// out\n        /* \"#utility.yul\":8525:8705   */\n    tag_172:\n        /* \"#utility.yul\":8573:8650   */\n      0x4e487b7100000000000000000000000000000000000000000000000000000000\n        /* \"#utility.yul\":8570:8571   */\n      0x00\n        /* \"#utility.yul\":8563:8651   */\n      mstore\n        /* \"#utility.yul\":8670:8674   */\n      0x11\n        /* \"#utility.yul\":8667:8668   */\n      0x04\n        /* \"#utility.yul\":8660:8675   */\n      mstore\n        /* \"#utility.yul\":8694:8698   */\n      0x24\n        /* \"#utility.yul\":8691:8692   */\n      0x00\n        /* \"#utility.yul\":8684:8699   */\n      revert\n        /* \"#utility.yul\":8711:8902   */\n    tag_76:\n        /* \"#utility.yul\":8751:8754   */\n      0x00\n        /* \"#utility.yul\":8770:8790   */\n      tag_265\n        /* \"#utility.yul\":8788:8789   */\n      dup3\n        /* \"#utility.yul\":8770:8790   */\n      tag_153\n      jump\t// in\n    tag_265:\n        /* \"#utility.yul\":8765:8790   */\n      swap2\n      pop\n        /* \"#utility.yul\":8804:8824   */\n      tag_266\n        /* \"#utility.yul\":8822:8823   */\n      dup4\n        /* \"#utility.yul\":8804:8824   */\n      tag_153\n      jump\t// in\n    tag_266:\n        /* \"#utility.yul\":8799:8824   */\n      swap3\n      pop\n        /* \"#utility.yul\":8847:8848   */\n      dup3\n        /* \"#utility.yul\":8844:8845   */\n      dup3\n        /* \"#utility.yul\":8840:8849   */\n      add\n        /* \"#utility.yul\":8833:8849   */\n      swap1\n      pop\n        /* \"#utility.yul\":8868:8871   */\n      dup1\n        /* \"#utility.yul\":8865:8866   */\n      dup3\n        /* \"#utility.yul\":8862:8872   */\n      gt\n        /* \"#utility.yul\":8859:8895   */\n      iszero\n      tag_267\n      jumpi\n        /* \"#utility.yul\":8875:8893   */\n      tag_268\n      tag_172\n      jump\t// in\n    tag_268:\n        /* \"#utility.yul\":8859:8895   */\n    tag_267:\n        /* \"#utility.yul\":8711:8902   */\n      swap3\n      swap2\n      pop\n      pop\n      jump\t// out\n        /* \"#utility.yul\":8908:9074   */\n    tag_173:\n        /* \"#utility.yul\":9048:9066   */\n      0x566f74696e6720697320636c6f73656400000000000000000000000000000000\n        /* \"#utility.yul\":9044:9045   */\n      0x00\n        /* \"#utility.yul\":9036:9042   */\n      dup3\n        /* \"#utility.yul\":9032:9046   */\n      add\n        /* \"#utility.yul\":9025:9067   */\n      mstore\n        /* \"#utility.yul\":8908:9074   */\n      pop\n      jump\t// out\n        /* \"#utility.yul\":9080:9446   */\n    tag_174:\n        /* \"#utility.yul\":9222:9225   */\n      0x00\n        /* \"#utility.yul\":9243:9310   */\n      tag_271\n        /* \"#utility.yul\":9307:9309   */\n      0x10\n        /* \"#utility.yul\":9302:9305   */\n      dup4\n        /* \"#utility.yul\":9243:9310   */\n      tag_165\n      jump\t// in\n    tag_271:\n        /* \"#utility.yul\":9236:9310   */\n      swap2\n      pop\n        /* \"#utility.yul\":9319:9412   */\n      tag_272\n        /* \"#utility.yul\":9408:9411   */\n      dup3\n        /* \"#utility.yul\":9319:9412   */\n      tag_173\n      jump\t// in\n    tag_272:\n        /* \"#utility.yul\":9437:9439   */\n      0x20\n        /* \"#utility.yul\":9432:9435   */\n      dup3\n        /* \"#utility.yul\":9428:9440   */\n      add\n        /* \"#utility.yul\":9421:9440   */\n      swap1\n      pop\n        /* \"#utility.yul\":9080:9446   */\n      swap2\n      swap1\n      pop\n      jump\t// out\n        /* \"#utility.yul\":9452:9871   */\n    tag_85:\n        /* \"#utility.yul\":9618:9622   */\n      0x00\n        /* \"#utility.yul\":9656:9658   */\n      0x20\n        /* \"#utility.yul\":9645:9654   */\n      dup3\n        /* \"#utility.yul\":9641:9659   */\n      add\n        /* \"#utility.yul\":9633:9659   */\n      swap1\n      pop\n        /* \"#utility.yul\":9705:9714   */\n      dup2\n        /* \"#utility.yul\":9699:9703   */\n      dup2\n        /* \"#utility.yul\":9695:9715   */\n      sub\n        /* \"#utility.yul\":9691:9692   */\n      0x00\n        /* \"#utility.yul\":9680:9689   */\n      dup4\n        /* \"#utility.yul\":9676:9693   */\n      add\n        /* \"#utility.yul\":9669:9716   */\n      mstore\n        /* \"#utility.yul\":9733:9864   */\n      tag_274\n        /* \"#utility.yul\":9859:9863   */\n      dup2\n        /* \"#utility.yul\":9733:9864   */\n      tag_174\n      jump\t// in\n    tag_274:\n        /* \"#utility.yul\":9725:9864   */\n      swap1\n      pop\n        /* \"#utility.yul\":9452:9871   */\n      swap2\n      swap1\n      pop\n      jump\t// out\n        /* \"#utility.yul\":9877:10040   */\n    tag_175:\n        /* \"#utility.yul\":10017:10032   */\n      0x416c726561647920766f74656400000000000000000000000000000000000000\n        /* \"#utility.yul\":10013:10014   */\n      0x00\n        /* \"#utility.yul\":10005:10011   */\n      dup3\n        /* \"#utility.yul\":10001:10015   */\n      add\n        /* \"#utility.yul\":9994:10033   */\n      mstore\n        /* \"#utility.yul\":9877:10040   */\n      pop\n      jump\t// out\n        /* \"#utility.yul\":10046:10412   */\n    tag_176:\n        /* \"#utility.yul\":10188:10191   */\n      0x00\n        /* \"#utility.yul\":10209:10276   */\n      tag_277\n        /* \"#utility.yul\":10273:10275   */\n      0x0d\n        /* \"#utility.yul\":10268:10271   */\n      dup4\n        /* \"#utility.yul\":10209:10276   */\n      tag_165\n      jump\t// in\n    tag_277:\n        /* \"#utility.yul\":10202:10276   */\n      swap2\n      pop\n        /* \"#utility.yul\":10285:10378   */\n      tag_278\n        /* \"#utility.yul\":10374:10377   */\n      dup3\n        /* \"#utility.yul\":10285:10378   */\n      tag_175\n      jump\t// in\n    tag_278:\n        /* \"#utility.yul\":10403:10405   */\n      0x20\n        /* \"#utility.yul\":10398:10401   */\n      dup3\n        /* \"#utility.yul\":10394:10406   */\n      add\n        /* \"#utility.yul\":10387:10406   */\n      swap1\n      pop\n        /* \"#utility.yul\":10046:10412   */\n      swap2\n      swap1\n      pop\n      jump\t// out\n        /* \"#utility.yul\":10418:10837   */\n    tag_89:\n        /* \"#utility.yul\":10584:10588   */\n      0x00\n        /* \"#utility.yul\":10622:10624   */\n      0x20\n        /* \"#utility.yul\":10611:10620   */\n      dup3\n        /* \"#utility.yul\":10607:10625   */\n      add\n        /* \"#utility.yul\":10599:10625   */\n      swap1\n      pop\n        /* \"#utility.yul\":10671:10680   */\n      dup2\n        /* \"#utility.yul\":10665:10669   */\n      dup2\n        /* \"#utility.yul\":10661:10681   */\n      sub\n        /* \"#utility.yul\":10657:10658   */\n      0x00\n        /* \"#utility.yul\":10646:10655   */\n      dup4\n        /* \"#utility.yul\":10642:10659   */\n      add\n        /* \"#utility.yul\":10635:10682   */\n      mstore\n        /* \"#utility.yul\":10699:10830   */\n      tag_280\n        /* \"#utility.yul\":10825:10829   */\n      dup2\n        /* \"#utility.yul\":10699:10830   */\n      tag_176\n      jump\t// in\n    tag_280:\n        /* \"#utility.yul\":10691:10830   */\n      swap1\n      pop\n        /* \"#utility.yul\":10418:10837   */\n      swap2\n      swap1\n      pop\n      jump\t// out\n        /* \"#utility.yul\":10843:11022   */\n    tag_177:\n        /* \"#utility.yul\":10983:11014   */\n      0x507265666572656e636573206d75737420626520646966666572656e74000000\n        /* \"#utility.yul\":10979:10980   */\n      0x00\n        /* \"#utility.yul\":10971:10977   */\n      dup3\n        /* \"#utility.yul\":10967:10981   */\n      add\n        /* \"#utility.yul\":10960:11015   */\n      mstore\n        /* \"#utility.yul\":10843:11022   */\n      pop\n      jump\t// out\n        /* \"#utility.yul\":11028:11394   */\n    tag_178:\n        /* \"#utility.yul\":11170:11173   */\n      0x00\n        /* \"#utility.yul\":11191:11258   */\n      tag_283\n        /* \"#utility.yul\":11255:11257   */\n      0x1d\n        /* \"#utility.yul\":11250:11253   */\n      dup4\n        /* \"#utility.yul\":11191:11258   */\n      tag_165\n      jump\t// in\n    tag_283:\n        /* \"#utility.yul\":11184:11258   */\n      swap2\n      pop\n        /* \"#utility.yul\":11267:11360   */\n      tag_284\n        /* \"#utility.yul\":11356:11359   */\n      dup3\n        /* \"#utility.yul\":11267:11360   */\n      tag_177\n      jump\t// in\n    tag_284:\n        /* \"#utility.yul\":11385:11387   */\n      0x20\n        /* \"#utility.yul\":11380:11383   */\n      dup3\n        /* \"#utility.yul\":11376:11388   */\n      add\n        /* \"#utility.yul\":11369:11388   */\n      swap1\n      pop\n        /* \"#utility.yul\":11028:11394   */\n      swap2\n      swap1\n      pop\n      jump\t// out\n        /* \"#utility.yul\":11400:11819   */\n    tag_97:\n        /* \"#utility.yul\":11566:11570   */\n      0x00\n        /* \"#utility.yul\":11604:11606   */\n      0x20\n        /* \"#utility.yul\":11593:11602   */\n      dup3\n        /* \"#utility.yul\":11589:11607   */\n      add\n        /* \"#utility.yul\":11581:11607   */\n      swap1\n      pop\n        /* \"#utility.yul\":11653:11662   */\n      dup2\n        /* \"#utility.yul\":11647:11651   */\n      dup2\n        /* \"#utility.yul\":11643:11663   */\n      sub\n        /* \"#utility.yul\":11639:11640   */\n      0x00\n        /* \"#utility.yul\":11628:11637   */\n      dup4\n        /* \"#utility.yul\":11624:11641   */\n      add\n        /* \"#utility.yul\":11617:11664   */\n      mstore\n        /* \"#utility.yul\":11681:11812   */\n      tag_286\n        /* \"#utility.yul\":11807:11811   */\n      dup2\n        /* \"#utility.yul\":11681:11812   */\n      tag_178\n      jump\t// in\n    tag_286:\n        /* \"#utility.yul\":11673:11812   */\n      swap1\n      pop\n        /* \"#utility.yul\":11400:11819   */\n      swap2\n      swap1\n      pop\n      jump\t// out\n        /* \"#utility.yul\":11825:12058   */\n    tag_113:\n        /* \"#utility.yul\":11864:11867   */\n      0x00\n        /* \"#utility.yul\":11887:11911   */\n      tag_288\n        /* \"#utility.yul\":11905:11910   */\n      dup3\n        /* \"#utility.yul\":11887:11911   */\n      tag_153\n      jump\t// in\n    tag_288:\n        /* \"#utility.yul\":11878:11911   */\n      swap2\n      pop\n        /* \"#utility.yul\":11933:11999   */\n      0xffffffffffffffffffffffffffffffffffffffffffffffffffffffffffffffff\n        /* \"#utility.yul\":11926:11931   */\n      dup3\n        /* \"#utility.yul\":11923:12000   */\n      sub\n        /* \"#utility.yul\":11920:12023   */\n      tag_289\n      jumpi\n        /* \"#utility.yul\":12003:12021   */\n      tag_290\n      tag_172\n      jump\t// in\n    tag_290:\n        /* \"#utility.yul\":11920:12023   */\n    tag_289:\n        /* \"#utility.yul\":12050:12051   */\n      0x01\n        /* \"#utility.yul\":12043:12048   */\n      dup3\n        /* \"#utility.yul\":12039:12052   */\n      add\n        /* \"#utility.yul\":12032:12052   */\n      swap1\n      pop\n        /* \"#utility.yul\":11825:12058   */\n      swap2\n      swap1\n      pop\n      jump\t// out\n\n    auxdata: 0xa264697066735822122030a3f1c5b1e9aff841b77cd0e6f4f3c2f0b602e7fd45fd6a80c9df5ec509a08564736f6c63430008120033\n}\n",
				"bytecode": {
					"linkReferences": {},
					"object": "60806040526000600560146101000a81548160ff02191690831515021790555034801561002b57600080fd5b5033600560006101000a81548173ffffffffffffffffffffffffffffffffffffffff021916908373ffffffffffffffffffffffffffffffffffffffff160217905550610f9e8061007c6000396000f3fe608060405234801561001057600080fd5b50600436106100885760003560e01c8063ae315fe41161005b578063ae315fe41461012b578063c631b29214610149578063dd0e237314610153578063df49c4de1461018357610088565b80632479ecb81461008d5780632e4176cf146100ab5780635df81330146100c9578063a3ec138d146100f9575b600080fd5b61009561019f565b6040516100a2919061093f565b60405180910390f35b6100b36101b2565b6040516100c0919061099b565b60405180910390f35b6100e360048036038101906100de91906109f1565b6101d8565b6040516100f09190610a2d565b60405180910390f35b610113600480360381019061010e9190610a74565b6101f3565b60405161012293929190610b18565b60405180910390f35b610133610244565b6040516101409190610b4f565b60405180910390f35b6101516102d7565b005b61016d600480360381019061016891906109f1565b61041c565b60405161017a919061099b565b60405180910390f35b61019d60048036038101906101989190610b8f565b61045b565b005b600560149054906101000a900460ff1681565b600560009054906101000a900473ffffffffffffffffffffffffffffffffffffffff1681565b600281600381106101e857600080fd5b016000915090505481565b60006020528060005260406000206000915090508060000160009054906101000a900460ff16908060000160019054906101000a900460ff16908060000160029054906101000a900460ff16905083565b6000600560149054906101000a900460ff16610295576040517f08c379a000000000000000000000000000000000000000000000000000000000815260040161028c90610c2c565b60405180910390fd5b60026001600381106102aa576102a9610c4c565b5b015460026000600381106102c1576102c0610c4c565b5b0154116102cf5760016102d2565b60005b905090565b600560009054906101000a900473ffffffffffffffffffffffffffffffffffffffff1673ffffffffffffffffffffffffffffffffffffffff163373ffffffffffffffffffffffffffffffffffffffff1614610367576040517f08c379a000000000000000000000000000000000000000000000000000000000815260040161035e90610ced565b60405180910390fd5b600560149054906101000a900460ff16156103b7576040517f08c379a00000000000000000000000000000000000000000000000000000000081526004016103ae90610d59565b60405180910390fd5b6001600560146101000a81548160ff021916908315150217905550603260026001600381106103e9576103e8610c4c565b5b01546002600060038110610400576103ff610c4c565b5b015461040c9190610da8565b1161041a57610419610747565b5b565b6001818154811061042c57600080fd5b906000526020600020016000915054906101000a900473ffffffffffffffffffffffffffffffffffffffff1681565b600560149054906101000a900460ff16156104ab576040517f08c379a00000000000000000000000000000000000000000000000000000000081526004016104a290610e28565b60405180910390fd5b6000803373ffffffffffffffffffffffffffffffffffffffff1673ffffffffffffffffffffffffffffffffffffffff16815260200190815260200160002060000160009054906101000a900460ff161561053a576040517f08c379a000000000000000000000000000000000000000000000000000000000815260040161053190610e94565b60405180910390fd5b80600281111561054d5761054c610aa1565b5b8260028111156105605761055f610aa1565b5b036105a0576040517f08c379a000000000000000000000000000000000000000000000000000000000815260040161059790610f00565b60405180910390fd5b60405180606001604052806001151581526020018360028111156105c7576105c6610aa1565b5b81526020018260028111156105df576105de610aa1565b5b8152506000803373ffffffffffffffffffffffffffffffffffffffff1673ffffffffffffffffffffffffffffffffffffffff16815260200190815260200160002060008201518160000160006101000a81548160ff02191690831515021790555060208201518160000160016101000a81548160ff0219169083600281111561066b5761066a610aa1565b5b021790555060408201518160000160026101000a81548160ff0219169083600281111561069b5761069a610aa1565b5b02179055509050506001339080600181540180825580915050600190039060005260206000200160009091909190916101000a81548173ffffffffffffffffffffffffffffffffffffffff021916908373ffffffffffffffffffffffffffffffffffffffff160217905550600282600281111561071b5761071a610aa1565b5b6003811061072c5761072b610c4c565b5b01600081548092919061073e90610f20565b91905055505050565b60005b600180549050811015610906576000806000600184815481106107705761076f610c4c565b5b9060005260206000200160009054906101000a900473ffffffffffffffffffffffffffffffffffffffff1673ffffffffffffffffffffffffffffffffffffffff1673ffffffffffffffffffffffffffffffffffffffff1681526020019081526020016000206040518060600160405290816000820160009054906101000a900460ff161515151581526020016000820160019054906101000a900460ff1660028111156108205761081f610aa1565b5b600281111561083257610831610aa1565b5b81526020016000820160029054906101000a900460ff16600281111561085b5761085a610aa1565b5b600281111561086d5761086c610aa1565b5b815250509050806000015180156108ab575060028081111561089257610891610aa1565b5b816020015160028111156108a9576108a8610aa1565b5b145b156108f2576002816040015160028111156108c9576108c8610aa1565b5b600381106108da576108d9610c4c565b5b0160008154809291906108ec90610f20565b91905055505b5080806108fe90610f20565b91505061074a565b5060006002806003811061091d5761091c610c4c565b5b0181905550565b60008115159050919050565b61093981610924565b82525050565b60006020820190506109546000830184610930565b92915050565b600073ffffffffffffffffffffffffffffffffffffffff82169050919050565b60006109858261095a565b9050919050565b6109958161097a565b82525050565b60006020820190506109b0600083018461098c565b92915050565b600080fd5b6000819050919050565b6109ce816109bb565b81146109d957600080fd5b50565b6000813590506109eb816109c5565b92915050565b600060208284031215610a0757610a066109b6565b5b6000610a15848285016109dc565b91505092915050565b610a27816109bb565b82525050565b6000602082019050610a426000830184610a1e565b92915050565b610a518161097a565b8114610a5c57600080fd5b50565b600081359050610a6e81610a48565b92915050565b600060208284031215610a8a57610a896109b6565b5b6000610a9884828501610a5f565b91505092915050565b7f4e487b7100000000000000000000000000000000000000000000000000000000600052602160045260246000fd5b60038110610ae157610ae0610aa1565b5b50565b6000819050610af282610ad0565b919050565b6000610b0282610ae4565b9050919050565b610b1281610af7565b82525050565b6000606082019050610b2d6000830186610930565b610b3a6020830185610b09565b610b476040830184610b09565b949350505050565b6000602082019050610b646000830184610b09565b92915050565b60038110610b7757600080fd5b50565b600081359050610b8981610b6a565b92915050565b60008060408385031215610ba657610ba56109b6565b5b6000610bb485828601610b7a565b9250506020610bc585828601610b7a565b9150509250929050565b600082825260208201905092915050565b7f566f74696e67206973206e6f7420636c6f736564207965740000000000000000600082015250565b6000610c16601883610bcf565b9150610c2182610be0565b602082019050919050565b60006020820190508181036000830152610c4581610c09565b9050919050565b7f4e487b7100000000000000000000000000000000000000000000000000000000600052603260045260246000fd5b7f4f6e6c79206368616972706572736f6e2063616e2063616c6c2074686973206660008201527f756e6374696f6e00000000000000000000000000000000000000000000000000602082015250565b6000610cd7602783610bcf565b9150610ce282610c7b565b604082019050919050565b60006020820190508181036000830152610d0681610cca565b9050919050565b7f566f74696e6720616c726561647920636c6f7365640000000000000000000000600082015250565b6000610d43601583610bcf565b9150610d4e82610d0d565b602082019050919050565b60006020820190508181036000830152610d7281610d36565b9050919050565b7f4e487b7100000000000000000000000000000000000000000000000000000000600052601160045260246000fd5b6000610db3826109bb565b9150610dbe836109bb565b9250828201905080821115610dd657610dd5610d79565b5b92915050565b7f566f74696e6720697320636c6f73656400000000000000000000000000000000600082015250565b6000610e12601083610bcf565b9150610e1d82610ddc565b602082019050919050565b60006020820190508181036000830152610e4181610e05565b9050919050565b7f416c726561647920766f74656400000000000000000000000000000000000000600082015250565b6000610e7e600d83610bcf565b9150610e8982610e48565b602082019050919050565b60006020820190508181036000830152610ead81610e71565b9050919050565b7f507265666572656e636573206d75737420626520646966666572656e74000000600082015250565b6000610eea601d83610bcf565b9150610ef582610eb4565b602082019050919050565b60006020820190508181036000830152610f1981610edd565b9050919050565b6000610f2b826109bb565b91507fffffffffffffffffffffffffffffffffffffffffffffffffffffffffffffffff8203610f5d57610f5c610d79565b5b60018201905091905056fea264697066735822122030a3f1c5b1e9aff841b77cd0e6f4f3c2f0b602e7fd45fd6a80c9df5ec509a08564736f6c63430008120033",
					"opcodes": "PUSH1 0x80 PUSH1 0x40 MSTORE PUSH1 0x0 PUSH1 0x5 PUSH1 0x14 PUSH2 0x100 EXP DUP2 SLOAD DUP2 PUSH1 0xFF MUL NOT AND SWAP1 DUP4 ISZERO ISZERO MUL OR SWAP1 SSTORE POP CALLVALUE DUP1 ISZERO PUSH2 0x2B JUMPI PUSH1 0x0 DUP1 REVERT JUMPDEST POP CALLER PUSH1 0x5 PUSH1 0x0 PUSH2 0x100 EXP DUP2 SLOAD DUP2 PUSH20 0xFFFFFFFFFFFFFFFFFFFFFFFFFFFFFFFFFFFFFFFF MUL NOT AND SWAP1 DUP4 PUSH20 0xFFFFFFFFFFFFFFFFFFFFFFFFFFFFFFFFFFFFFFFF AND MUL OR SWAP1 SSTORE POP PUSH2 0xF9E DUP1 PUSH2 0x7C PUSH1 0x0 CODECOPY PUSH1 0x0 RETURN INVALID PUSH1 0x80 PUSH1 0x40 MSTORE CALLVALUE DUP1 ISZERO PUSH2 0x10 JUMPI PUSH1 0x0 DUP1 REVERT JUMPDEST POP PUSH1 0x4 CALLDATASIZE LT PUSH2 0x88 JUMPI PUSH1 0x0 CALLDATALOAD PUSH1 0xE0 SHR DUP1 PUSH4 0xAE315FE4 GT PUSH2 0x5B JUMPI DUP1 PUSH4 0xAE315FE4 EQ PUSH2 0x12B JUMPI DUP1 PUSH4 0xC631B292 EQ PUSH2 0x149 JUMPI DUP1 PUSH4 0xDD0E2373 EQ PUSH2 0x153 JUMPI DUP1 PUSH4 0xDF49C4DE EQ PUSH2 0x183 JUMPI PUSH2 0x88 JUMP JUMPDEST DUP1 PUSH4 0x2479ECB8 EQ PUSH2 0x8D JUMPI DUP1 PUSH4 0x2E4176CF EQ PUSH2 0xAB JUMPI DUP1 PUSH4 0x5DF81330 EQ PUSH2 0xC9 JUMPI DUP1 PUSH4 0xA3EC138D EQ PUSH2 0xF9 JUMPI JUMPDEST PUSH1 0x0 DUP1 REVERT JUMPDEST PUSH2 0x95 PUSH2 0x19F JUMP JUMPDEST PUSH1 0x40 MLOAD PUSH2 0xA2 SWAP2 SWAP1 PUSH2 0x93F JUMP JUMPDEST PUSH1 0x40 MLOAD DUP1 SWAP2 SUB SWAP1 RETURN JUMPDEST PUSH2 0xB3 PUSH2 0x1B2 JUMP JUMPDEST PUSH1 0x40 MLOAD PUSH2 0xC0 SWAP2 SWAP1 PUSH2 0x99B JUMP JUMPDEST PUSH1 0x40 MLOAD DUP1 SWAP2 SUB SWAP1 RETURN JUMPDEST PUSH2 0xE3 PUSH1 0x4 DUP1 CALLDATASIZE SUB DUP2 ADD SWAP1 PUSH2 0xDE SWAP2 SWAP1 PUSH2 0x9F1 JUMP JUMPDEST PUSH2 0x1D8 JUMP JUMPDEST PUSH1 0x40 MLOAD PUSH2 0xF0 SWAP2 SWAP1 PUSH2 0xA2D JUMP JUMPDEST PUSH1 0x40 MLOAD DUP1 SWAP2 SUB SWAP1 RETURN JUMPDEST PUSH2 0x113 PUSH1 0x4 DUP1 CALLDATASIZE SUB DUP2 ADD SWAP1 PUSH2 0x10E SWAP2 SWAP1 PUSH2 0xA74 JUMP JUMPDEST PUSH2 0x1F3 JUMP JUMPDEST PUSH1 0x40 MLOAD PUSH2 0x122 SWAP4 SWAP3 SWAP2 SWAP1 PUSH2 0xB18 JUMP JUMPDEST PUSH1 0x40 MLOAD DUP1 SWAP2 SUB SWAP1 RETURN JUMPDEST PUSH2 0x133 PUSH2 0x244 JUMP JUMPDEST PUSH1 0x40 MLOAD PUSH2 0x140 SWAP2 SWAP1 PUSH2 0xB4F JUMP JUMPDEST PUSH1 0x40 MLOAD DUP1 SWAP2 SUB SWAP1 RETURN JUMPDEST PUSH2 0x151 PUSH2 0x2D7 JUMP JUMPDEST STOP JUMPDEST PUSH2 0x16D PUSH1 0x4 DUP1 CALLDATASIZE SUB DUP2 ADD SWAP1 PUSH2 0x168 SWAP2 SWAP1 PUSH2 0x9F1 JUMP JUMPDEST PUSH2 0x41C JUMP JUMPDEST PUSH1 0x40 MLOAD PUSH2 0x17A SWAP2 SWAP1 PUSH2 0x99B JUMP JUMPDEST PUSH1 0x40 MLOAD DUP1 SWAP2 SUB SWAP1 RETURN JUMPDEST PUSH2 0x19D PUSH1 0x4 DUP1 CALLDATASIZE SUB DUP2 ADD SWAP1 PUSH2 0x198 SWAP2 SWAP1 PUSH2 0xB8F JUMP JUMPDEST PUSH2 0x45B JUMP JUMPDEST STOP JUMPDEST PUSH1 0x5 PUSH1 0x14 SWAP1 SLOAD SWAP1 PUSH2 0x100 EXP SWAP1 DIV PUSH1 0xFF AND DUP2 JUMP JUMPDEST PUSH1 0x5 PUSH1 0x0 SWAP1 SLOAD SWAP1 PUSH2 0x100 EXP SWAP1 DIV PUSH20 0xFFFFFFFFFFFFFFFFFFFFFFFFFFFFFFFFFFFFFFFF AND DUP2 JUMP JUMPDEST PUSH1 0x2 DUP2 PUSH1 0x3 DUP2 LT PUSH2 0x1E8 JUMPI PUSH1 0x0 DUP1 REVERT JUMPDEST ADD PUSH1 0x0 SWAP2 POP SWAP1 POP SLOAD DUP2 JUMP JUMPDEST PUSH1 0x0 PUSH1 0x20 MSTORE DUP1 PUSH1 0x0 MSTORE PUSH1 0x40 PUSH1 0x0 KECCAK256 PUSH1 0x0 SWAP2 POP SWAP1 POP DUP1 PUSH1 0x0 ADD PUSH1 0x0 SWAP1 SLOAD SWAP1 PUSH2 0x100 EXP SWAP1 DIV PUSH1 0xFF AND SWAP1 DUP1 PUSH1 0x0 ADD PUSH1 0x1 SWAP1 SLOAD SWAP1 PUSH2 0x100 EXP SWAP1 DIV PUSH1 0xFF AND SWAP1 DUP1 PUSH1 0x0 ADD PUSH1 0x2 SWAP1 SLOAD SWAP1 PUSH2 0x100 EXP SWAP1 DIV PUSH1 0xFF AND SWAP1 POP DUP4 JUMP JUMPDEST PUSH1 0x0 PUSH1 0x5 PUSH1 0x14 SWAP1 SLOAD SWAP1 PUSH2 0x100 EXP SWAP1 DIV PUSH1 0xFF AND PUSH2 0x295 JUMPI PUSH1 0x40 MLOAD PUSH32 0x8C379A000000000000000000000000000000000000000000000000000000000 DUP2 MSTORE PUSH1 0x4 ADD PUSH2 0x28C SWAP1 PUSH2 0xC2C JUMP JUMPDEST PUSH1 0x40 MLOAD DUP1 SWAP2 SUB SWAP1 REVERT JUMPDEST PUSH1 0x2 PUSH1 0x1 PUSH1 0x3 DUP2 LT PUSH2 0x2AA JUMPI PUSH2 0x2A9 PUSH2 0xC4C JUMP JUMPDEST JUMPDEST ADD SLOAD PUSH1 0x2 PUSH1 0x0 PUSH1 0x3 DUP2 LT PUSH2 0x2C1 JUMPI PUSH2 0x2C0 PUSH2 0xC4C JUMP JUMPDEST JUMPDEST ADD SLOAD GT PUSH2 0x2CF JUMPI PUSH1 0x1 PUSH2 0x2D2 JUMP JUMPDEST PUSH1 0x0 JUMPDEST SWAP1 POP SWAP1 JUMP JUMPDEST PUSH1 0x5 PUSH1 0x0 SWAP1 SLOAD SWAP1 PUSH2 0x100 EXP SWAP1 DIV PUSH20 0xFFFFFFFFFFFFFFFFFFFFFFFFFFFFFFFFFFFFFFFF AND PUSH20 0xFFFFFFFFFFFFFFFFFFFFFFFFFFFFFFFFFFFFFFFF AND CALLER PUSH20 0xFFFFFFFFFFFFFFFFFFFFFFFFFFFFFFFFFFFFFFFF AND EQ PUSH2 0x367 JUMPI PUSH1 0x40 MLOAD PUSH32 0x8C379A000000000000000000000000000000000000000000000000000000000 DUP2 MSTORE PUSH1 0x4 ADD PUSH2 0x35E SWAP1 PUSH2 0xCED JUMP JUMPDEST PUSH1 0x40 MLOAD DUP1 SWAP2 SUB SWAP1 REVERT JUMPDEST PUSH1 0x5 PUSH1 0x14 SWAP1 SLOAD SWAP1 PUSH2 0x100 EXP SWAP1 DIV PUSH1 0xFF AND ISZERO PUSH2 0x3B7 JUMPI PUSH1 0x40 MLOAD PUSH32 0x8C379A000000000000000000000000000000000000000000000000000000000 DUP2 MSTORE PUSH1 0x4 ADD PUSH2 0x3AE SWAP1 PUSH2 0xD59 JUMP JUMPDEST PUSH1 0x40 MLOAD DUP1 SWAP2 SUB SWAP1 REVERT JUMPDEST PUSH1 0x1 PUSH1 0x5 PUSH1 0x14 PUSH2 0x100 EXP DUP2 SLOAD DUP2 PUSH1 0xFF MUL NOT AND SWAP1 DUP4 ISZERO ISZERO MUL OR SWAP1 SSTORE POP PUSH1 0x32 PUSH1 0x2 PUSH1 0x1 PUSH1 0x3 DUP2 LT PUSH2 0x3E9 JUMPI PUSH2 0x3E8 PUSH2 0xC4C JUMP JUMPDEST JUMPDEST ADD SLOAD PUSH1 0x2 PUSH1 0x0 PUSH1 0x3 DUP2 LT PUSH2 0x400 JUMPI PUSH2 0x3FF PUSH2 0xC4C JUMP JUMPDEST JUMPDEST ADD SLOAD PUSH2 0x40C SWAP2 SWAP1 PUSH2 0xDA8 JUMP JUMPDEST GT PUSH2 0x41A JUMPI PUSH2 0x419 PUSH2 0x747 JUMP JUMPDEST JUMPDEST JUMP JUMPDEST PUSH1 0x1 DUP2 DUP2 SLOAD DUP2 LT PUSH2 0x42C JUMPI PUSH1 0x0 DUP1 REVERT JUMPDEST SWAP1 PUSH1 0x0 MSTORE PUSH1 0x20 PUSH1 0x0 KECCAK256 ADD PUSH1 0x0 SWAP2 POP SLOAD SWAP1 PUSH2 0x100 EXP SWAP1 DIV PUSH20 0xFFFFFFFFFFFFFFFFFFFFFFFFFFFFFFFFFFFFFFFF AND DUP2 JUMP JUMPDEST PUSH1 0x5 PUSH1 0x14 SWAP1 SLOAD SWAP1 PUSH2 0x100 EXP SWAP1 DIV PUSH1 0xFF AND ISZERO PUSH2 0x4AB JUMPI PUSH1 0x40 MLOAD PUSH32 0x8C379A000000000000000000000000000000000000000000000000000000000 DUP2 MSTORE PUSH1 0x4 ADD PUSH2 0x4A2 SWAP1 PUSH2 0xE28 JUMP JUMPDEST PUSH1 0x40 MLOAD DUP1 SWAP2 SUB SWAP1 REVERT JUMPDEST PUSH1 0x0 DUP1 CALLER PUSH20 0xFFFFFFFFFFFFFFFFFFFFFFFFFFFFFFFFFFFFFFFF AND PUSH20 0xFFFFFFFFFFFFFFFFFFFFFFFFFFFFFFFFFFFFFFFF AND DUP2 MSTORE PUSH1 0x20 ADD SWAP1 DUP2 MSTORE PUSH1 0x20 ADD PUSH1 0x0 KECCAK256 PUSH1 0x0 ADD PUSH1 0x0 SWAP1 SLOAD SWAP1 PUSH2 0x100 EXP SWAP1 DIV PUSH1 0xFF AND ISZERO PUSH2 0x53A JUMPI PUSH1 0x40 MLOAD PUSH32 0x8C379A000000000000000000000000000000000000000000000000000000000 DUP2 MSTORE PUSH1 0x4 ADD PUSH2 0x531 SWAP1 PUSH2 0xE94 JUMP JUMPDEST PUSH1 0x40 MLOAD DUP1 SWAP2 SUB SWAP1 REVERT JUMPDEST DUP1 PUSH1 0x2 DUP2 GT ISZERO PUSH2 0x54D JUMPI PUSH2 0x54C PUSH2 0xAA1 JUMP JUMPDEST JUMPDEST DUP3 PUSH1 0x2 DUP2 GT ISZERO PUSH2 0x560 JUMPI PUSH2 0x55F PUSH2 0xAA1 JUMP JUMPDEST JUMPDEST SUB PUSH2 0x5A0 JUMPI PUSH1 0x40 MLOAD PUSH32 0x8C379A000000000000000000000000000000000000000000000000000000000 DUP2 MSTORE PUSH1 0x4 ADD PUSH2 0x597 SWAP1 PUSH2 0xF00 JUMP JUMPDEST PUSH1 0x40 MLOAD DUP1 SWAP2 SUB SWAP1 REVERT JUMPDEST PUSH1 0x40 MLOAD DUP1 PUSH1 0x60 ADD PUSH1 0x40 MSTORE DUP1 PUSH1 0x1 ISZERO ISZERO DUP2 MSTORE PUSH1 0x20 ADD DUP4 PUSH1 0x2 DUP2 GT ISZERO PUSH2 0x5C7 JUMPI PUSH2 0x5C6 PUSH2 0xAA1 JUMP JUMPDEST JUMPDEST DUP2 MSTORE PUSH1 0x20 ADD DUP3 PUSH1 0x2 DUP2 GT ISZERO PUSH2 0x5DF JUMPI PUSH2 0x5DE PUSH2 0xAA1 JUMP JUMPDEST JUMPDEST DUP2 MSTORE POP PUSH1 0x0 DUP1 CALLER PUSH20 0xFFFFFFFFFFFFFFFFFFFFFFFFFFFFFFFFFFFFFFFF AND PUSH20 0xFFFFFFFFFFFFFFFFFFFFFFFFFFFFFFFFFFFFFFFF AND DUP2 MSTORE PUSH1 0x20 ADD SWAP1 DUP2 MSTORE PUSH1 0x20 ADD PUSH1 0x0 KECCAK256 PUSH1 0x0 DUP3 ADD MLOAD DUP2 PUSH1 0x0 ADD PUSH1 0x0 PUSH2 0x100 EXP DUP2 SLOAD DUP2 PUSH1 0xFF MUL NOT AND SWAP1 DUP4 ISZERO ISZERO MUL OR SWAP1 SSTORE POP PUSH1 0x20 DUP3 ADD MLOAD DUP2 PUSH1 0x0 ADD PUSH1 0x1 PUSH2 0x100 EXP DUP2 SLOAD DUP2 PUSH1 0xFF MUL NOT AND SWAP1 DUP4 PUSH1 0x2 DUP2 GT ISZERO PUSH2 0x66B JUMPI PUSH2 0x66A PUSH2 0xAA1 JUMP JUMPDEST JUMPDEST MUL OR SWAP1 SSTORE POP PUSH1 0x40 DUP3 ADD MLOAD DUP2 PUSH1 0x0 ADD PUSH1 0x2 PUSH2 0x100 EXP DUP2 SLOAD DUP2 PUSH1 0xFF MUL NOT AND SWAP1 DUP4 PUSH1 0x2 DUP2 GT ISZERO PUSH2 0x69B JUMPI PUSH2 0x69A PUSH2 0xAA1 JUMP JUMPDEST JUMPDEST MUL OR SWAP1 SSTORE POP SWAP1 POP POP PUSH1 0x1 CALLER SWAP1 DUP1 PUSH1 0x1 DUP2 SLOAD ADD DUP1 DUP3 SSTORE DUP1 SWAP2 POP POP PUSH1 0x1 SWAP1 SUB SWAP1 PUSH1 0x0 MSTORE PUSH1 0x20 PUSH1 0x0 KECCAK256 ADD PUSH1 0x0 SWAP1 SWAP2 SWAP1 SWAP2 SWAP1 SWAP2 PUSH2 0x100 EXP DUP2 SLOAD DUP2 PUSH20 0xFFFFFFFFFFFFFFFFFFFFFFFFFFFFFFFFFFFFFFFF MUL NOT AND SWAP1 DUP4 PUSH20 0xFFFFFFFFFFFFFFFFFFFFFFFFFFFFFFFFFFFFFFFF AND MUL OR SWAP1 SSTORE POP PUSH1 0x2 DUP3 PUSH1 0x2 DUP2 GT ISZERO PUSH2 0x71B JUMPI PUSH2 0x71A PUSH2 0xAA1 JUMP JUMPDEST JUMPDEST PUSH1 0x3 DUP2 LT PUSH2 0x72C JUMPI PUSH2 0x72B PUSH2 0xC4C JUMP JUMPDEST JUMPDEST ADD PUSH1 0x0 DUP2 SLOAD DUP1 SWAP3 SWAP2 SWAP1 PUSH2 0x73E SWAP1 PUSH2 0xF20 JUMP JUMPDEST SWAP2 SWAP1 POP SSTORE POP POP POP JUMP JUMPDEST PUSH1 0x0 JUMPDEST PUSH1 0x1 DUP1 SLOAD SWAP1 POP DUP2 LT ISZERO PUSH2 0x906 JUMPI PUSH1 0x0 DUP1 PUSH1 0x0 PUSH1 0x1 DUP5 DUP2 SLOAD DUP2 LT PUSH2 0x770 JUMPI PUSH2 0x76F PUSH2 0xC4C JUMP JUMPDEST JUMPDEST SWAP1 PUSH1 0x0 MSTORE PUSH1 0x20 PUSH1 0x0 KECCAK256 ADD PUSH1 0x0 SWAP1 SLOAD SWAP1 PUSH2 0x100 EXP SWAP1 DIV PUSH20 0xFFFFFFFFFFFFFFFFFFFFFFFFFFFFFFFFFFFFFFFF AND PUSH20 0xFFFFFFFFFFFFFFFFFFFFFFFFFFFFFFFFFFFFFFFF AND PUSH20 0xFFFFFFFFFFFFFFFFFFFFFFFFFFFFFFFFFFFFFFFF AND DUP2 MSTORE PUSH1 0x20 ADD SWAP1 DUP2 MSTORE PUSH1 0x20 ADD PUSH1 0x0 KECCAK256 PUSH1 0x40 MLOAD DUP1 PUSH1 0x60 ADD PUSH1 0x40 MSTORE SWAP1 DUP2 PUSH1 0x0 DUP3 ADD PUSH1 0x0 SWAP1 SLOAD SWAP1 PUSH2 0x100 EXP SWAP1 DIV PUSH1 0xFF AND ISZERO ISZERO ISZERO ISZERO DUP2 MSTORE PUSH1 0x20 ADD PUSH1 0x0 DUP3 ADD PUSH1 0x1 SWAP1 SLOAD SWAP1 PUSH2 0x100 EXP SWAP1 DIV PUSH1 0xFF AND PUSH1 0x2 DUP2 GT ISZERO PUSH2 0x820 JUMPI PUSH2 0x81F PUSH2 0xAA1 JUMP JUMPDEST JUMPDEST PUSH1 0x2 DUP2 GT ISZERO PUSH2 0x832 JUMPI PUSH2 0x831 PUSH2 0xAA1 JUMP JUMPDEST JUMPDEST DUP2 MSTORE PUSH1 0x20 ADD PUSH1 0x0 DUP3 ADD PUSH1 0x2 SWAP1 SLOAD SWAP1 PUSH2 0x100 EXP SWAP1 DIV PUSH1 0xFF AND PUSH1 0x2 DUP2 GT ISZERO PUSH2 0x85B JUMPI PUSH2 0x85A PUSH2 0xAA1 JUMP JUMPDEST JUMPDEST PUSH1 0x2 DUP2 GT ISZERO PUSH2 0x86D JUMPI PUSH2 0x86C PUSH2 0xAA1 JUMP JUMPDEST JUMPDEST DUP2 MSTORE POP POP SWAP1 POP DUP1 PUSH1 0x0 ADD MLOAD DUP1 ISZERO PUSH2 0x8AB JUMPI POP PUSH1 0x2 DUP1 DUP2 GT ISZERO PUSH2 0x892 JUMPI PUSH2 0x891 PUSH2 0xAA1 JUMP JUMPDEST JUMPDEST DUP2 PUSH1 0x20 ADD MLOAD PUSH1 0x2 DUP2 GT ISZERO PUSH2 0x8A9 JUMPI PUSH2 0x8A8 PUSH2 0xAA1 JUMP JUMPDEST JUMPDEST EQ JUMPDEST ISZERO PUSH2 0x8F2 JUMPI PUSH1 0x2 DUP2 PUSH1 0x40 ADD MLOAD PUSH1 0x2 DUP2 GT ISZERO PUSH2 0x8C9 JUMPI PUSH2 0x8C8 PUSH2 0xAA1 JUMP JUMPDEST JUMPDEST PUSH1 0x3 DUP2 LT PUSH2 0x8DA JUMPI PUSH2 0x8D9 PUSH2 0xC4C JUMP JUMPDEST JUMPDEST ADD PUSH1 0x0 DUP2 SLOAD DUP1 SWAP3 SWAP2 SWAP1 PUSH2 0x8EC SWAP1 PUSH2 0xF20 JUMP JUMPDEST SWAP2 SWAP1 POP SSTORE POP JUMPDEST POP DUP1 DUP1 PUSH2 0x8FE SWAP1 PUSH2 0xF20 JUMP JUMPDEST SWAP2 POP POP PUSH2 0x74A JUMP JUMPDEST POP PUSH1 0x0 PUSH1 0x2 DUP1 PUSH1 0x3 DUP2 LT PUSH2 0x91D JUMPI PUSH2 0x91C PUSH2 0xC4C JUMP JUMPDEST JUMPDEST ADD DUP2 SWAP1 SSTORE POP JUMP JUMPDEST PUSH1 0x0 DUP2 ISZERO ISZERO SWAP1 POP SWAP2 SWAP1 POP JUMP JUMPDEST PUSH2 0x939 DUP2 PUSH2 0x924 JUMP JUMPDEST DUP3 MSTORE POP POP JUMP JUMPDEST PUSH1 0x0 PUSH1 0x20 DUP3 ADD SWAP1 POP PUSH2 0x954 PUSH1 0x0 DUP4 ADD DUP5 PUSH2 0x930 JUMP JUMPDEST SWAP3 SWAP2 POP POP JUMP JUMPDEST PUSH1 0x0 PUSH20 0xFFFFFFFFFFFFFFFFFFFFFFFFFFFFFFFFFFFFFFFF DUP3 AND SWAP1 POP SWAP2 SWAP1 POP JUMP JUMPDEST PUSH1 0x0 PUSH2 0x985 DUP3 PUSH2 0x95A JUMP JUMPDEST SWAP1 POP SWAP2 SWAP1 POP JUMP JUMPDEST PUSH2 0x995 DUP2 PUSH2 0x97A JUMP JUMPDEST DUP3 MSTORE POP POP JUMP JUMPDEST PUSH1 0x0 PUSH1 0x20 DUP3 ADD SWAP1 POP PUSH2 0x9B0 PUSH1 0x0 DUP4 ADD DUP5 PUSH2 0x98C JUMP JUMPDEST SWAP3 SWAP2 POP POP JUMP JUMPDEST PUSH1 0x0 DUP1 REVERT JUMPDEST PUSH1 0x0 DUP2 SWAP1 POP SWAP2 SWAP1 POP JUMP JUMPDEST PUSH2 0x9CE DUP2 PUSH2 0x9BB JUMP JUMPDEST DUP2 EQ PUSH2 0x9D9 JUMPI PUSH1 0x0 DUP1 REVERT JUMPDEST POP JUMP JUMPDEST PUSH1 0x0 DUP2 CALLDATALOAD SWAP1 POP PUSH2 0x9EB DUP2 PUSH2 0x9C5 JUMP JUMPDEST SWAP3 SWAP2 POP POP JUMP JUMPDEST PUSH1 0x0 PUSH1 0x20 DUP3 DUP5 SUB SLT ISZERO PUSH2 0xA07 JUMPI PUSH2 0xA06 PUSH2 0x9B6 JUMP JUMPDEST JUMPDEST PUSH1 0x0 PUSH2 0xA15 DUP5 DUP3 DUP6 ADD PUSH2 0x9DC JUMP JUMPDEST SWAP2 POP POP SWAP3 SWAP2 POP POP JUMP JUMPDEST PUSH2 0xA27 DUP2 PUSH2 0x9BB JUMP JUMPDEST DUP3 MSTORE POP POP JUMP JUMPDEST PUSH1 0x0 PUSH1 0x20 DUP3 ADD SWAP1 POP PUSH2 0xA42 PUSH1 0x0 DUP4 ADD DUP5 PUSH2 0xA1E JUMP JUMPDEST SWAP3 SWAP2 POP POP JUMP JUMPDEST PUSH2 0xA51 DUP2 PUSH2 0x97A JUMP JUMPDEST DUP2 EQ PUSH2 0xA5C JUMPI PUSH1 0x0 DUP1 REVERT JUMPDEST POP JUMP JUMPDEST PUSH1 0x0 DUP2 CALLDATALOAD SWAP1 POP PUSH2 0xA6E DUP2 PUSH2 0xA48 JUMP JUMPDEST SWAP3 SWAP2 POP POP JUMP JUMPDEST PUSH1 0x0 PUSH1 0x20 DUP3 DUP5 SUB SLT ISZERO PUSH2 0xA8A JUMPI PUSH2 0xA89 PUSH2 0x9B6 JUMP JUMPDEST JUMPDEST PUSH1 0x0 PUSH2 0xA98 DUP5 DUP3 DUP6 ADD PUSH2 0xA5F JUMP JUMPDEST SWAP2 POP POP SWAP3 SWAP2 POP POP JUMP JUMPDEST PUSH32 0x4E487B7100000000000000000000000000000000000000000000000000000000 PUSH1 0x0 MSTORE PUSH1 0x21 PUSH1 0x4 MSTORE PUSH1 0x24 PUSH1 0x0 REVERT JUMPDEST PUSH1 0x3 DUP2 LT PUSH2 0xAE1 JUMPI PUSH2 0xAE0 PUSH2 0xAA1 JUMP JUMPDEST JUMPDEST POP JUMP JUMPDEST PUSH1 0x0 DUP2 SWAP1 POP PUSH2 0xAF2 DUP3 PUSH2 0xAD0 JUMP JUMPDEST SWAP2 SWAP1 POP JUMP JUMPDEST PUSH1 0x0 PUSH2 0xB02 DUP3 PUSH2 0xAE4 JUMP JUMPDEST SWAP1 POP SWAP2 SWAP1 POP JUMP JUMPDEST PUSH2 0xB12 DUP2 PUSH2 0xAF7 JUMP JUMPDEST DUP3 MSTORE POP POP JUMP JUMPDEST PUSH1 0x0 PUSH1 0x60 DUP3 ADD SWAP1 POP PUSH2 0xB2D PUSH1 0x0 DUP4 ADD DUP7 PUSH2 0x930 JUMP JUMPDEST PUSH2 0xB3A PUSH1 0x20 DUP4 ADD DUP6 PUSH2 0xB09 JUMP JUMPDEST PUSH2 0xB47 PUSH1 0x40 DUP4 ADD DUP5 PUSH2 0xB09 JUMP JUMPDEST SWAP5 SWAP4 POP POP POP POP JUMP JUMPDEST PUSH1 0x0 PUSH1 0x20 DUP3 ADD SWAP1 POP PUSH2 0xB64 PUSH1 0x0 DUP4 ADD DUP5 PUSH2 0xB09 JUMP JUMPDEST SWAP3 SWAP2 POP POP JUMP JUMPDEST PUSH1 0x3 DUP2 LT PUSH2 0xB77 JUMPI PUSH1 0x0 DUP1 REVERT JUMPDEST POP JUMP JUMPDEST PUSH1 0x0 DUP2 CALLDATALOAD SWAP1 POP PUSH2 0xB89 DUP2 PUSH2 0xB6A JUMP JUMPDEST SWAP3 SWAP2 POP POP JUMP JUMPDEST PUSH1 0x0 DUP1 PUSH1 0x40 DUP4 DUP6 SUB SLT ISZERO PUSH2 0xBA6 JUMPI PUSH2 0xBA5 PUSH2 0x9B6 JUMP JUMPDEST JUMPDEST PUSH1 0x0 PUSH2 0xBB4 DUP6 DUP3 DUP7 ADD PUSH2 0xB7A JUMP JUMPDEST SWAP3 POP POP PUSH1 0x20 PUSH2 0xBC5 DUP6 DUP3 DUP7 ADD PUSH2 0xB7A JUMP JUMPDEST SWAP2 POP POP SWAP3 POP SWAP3 SWAP1 POP JUMP JUMPDEST PUSH1 0x0 DUP3 DUP3 MSTORE PUSH1 0x20 DUP3 ADD SWAP1 POP SWAP3 SWAP2 POP POP JUMP JUMPDEST PUSH32 0x566F74696E67206973206E6F7420636C6F736564207965740000000000000000 PUSH1 0x0 DUP3 ADD MSTORE POP JUMP JUMPDEST PUSH1 0x0 PUSH2 0xC16 PUSH1 0x18 DUP4 PUSH2 0xBCF JUMP JUMPDEST SWAP2 POP PUSH2 0xC21 DUP3 PUSH2 0xBE0 JUMP JUMPDEST PUSH1 0x20 DUP3 ADD SWAP1 POP SWAP2 SWAP1 POP JUMP JUMPDEST PUSH1 0x0 PUSH1 0x20 DUP3 ADD SWAP1 POP DUP2 DUP2 SUB PUSH1 0x0 DUP4 ADD MSTORE PUSH2 0xC45 DUP2 PUSH2 0xC09 JUMP JUMPDEST SWAP1 POP SWAP2 SWAP1 POP JUMP JUMPDEST PUSH32 0x4E487B7100000000000000000000000000000000000000000000000000000000 PUSH1 0x0 MSTORE PUSH1 0x32 PUSH1 0x4 MSTORE PUSH1 0x24 PUSH1 0x0 REVERT JUMPDEST PUSH32 0x4F6E6C79206368616972706572736F6E2063616E2063616C6C20746869732066 PUSH1 0x0 DUP3 ADD MSTORE PUSH32 0x756E6374696F6E00000000000000000000000000000000000000000000000000 PUSH1 0x20 DUP3 ADD MSTORE POP JUMP JUMPDEST PUSH1 0x0 PUSH2 0xCD7 PUSH1 0x27 DUP4 PUSH2 0xBCF JUMP JUMPDEST SWAP2 POP PUSH2 0xCE2 DUP3 PUSH2 0xC7B JUMP JUMPDEST PUSH1 0x40 DUP3 ADD SWAP1 POP SWAP2 SWAP1 POP JUMP JUMPDEST PUSH1 0x0 PUSH1 0x20 DUP3 ADD SWAP1 POP DUP2 DUP2 SUB PUSH1 0x0 DUP4 ADD MSTORE PUSH2 0xD06 DUP2 PUSH2 0xCCA JUMP JUMPDEST SWAP1 POP SWAP2 SWAP1 POP JUMP JUMPDEST PUSH32 0x566F74696E6720616C726561647920636C6F7365640000000000000000000000 PUSH1 0x0 DUP3 ADD MSTORE POP JUMP JUMPDEST PUSH1 0x0 PUSH2 0xD43 PUSH1 0x15 DUP4 PUSH2 0xBCF JUMP JUMPDEST SWAP2 POP PUSH2 0xD4E DUP3 PUSH2 0xD0D JUMP JUMPDEST PUSH1 0x20 DUP3 ADD SWAP1 POP SWAP2 SWAP1 POP JUMP JUMPDEST PUSH1 0x0 PUSH1 0x20 DUP3 ADD SWAP1 POP DUP2 DUP2 SUB PUSH1 0x0 DUP4 ADD MSTORE PUSH2 0xD72 DUP2 PUSH2 0xD36 JUMP JUMPDEST SWAP1 POP SWAP2 SWAP1 POP JUMP JUMPDEST PUSH32 0x4E487B7100000000000000000000000000000000000000000000000000000000 PUSH1 0x0 MSTORE PUSH1 0x11 PUSH1 0x4 MSTORE PUSH1 0x24 PUSH1 0x0 REVERT JUMPDEST PUSH1 0x0 PUSH2 0xDB3 DUP3 PUSH2 0x9BB JUMP JUMPDEST SWAP2 POP PUSH2 0xDBE DUP4 PUSH2 0x9BB JUMP JUMPDEST SWAP3 POP DUP3 DUP3 ADD SWAP1 POP DUP1 DUP3 GT ISZERO PUSH2 0xDD6 JUMPI PUSH2 0xDD5 PUSH2 0xD79 JUMP JUMPDEST JUMPDEST SWAP3 SWAP2 POP POP JUMP JUMPDEST PUSH32 0x566F74696E6720697320636C6F73656400000000000000000000000000000000 PUSH1 0x0 DUP3 ADD MSTORE POP JUMP JUMPDEST PUSH1 0x0 PUSH2 0xE12 PUSH1 0x10 DUP4 PUSH2 0xBCF JUMP JUMPDEST SWAP2 POP PUSH2 0xE1D DUP3 PUSH2 0xDDC JUMP JUMPDEST PUSH1 0x20 DUP3 ADD SWAP1 POP SWAP2 SWAP1 POP JUMP JUMPDEST PUSH1 0x0 PUSH1 0x20 DUP3 ADD SWAP1 POP DUP2 DUP2 SUB PUSH1 0x0 DUP4 ADD MSTORE PUSH2 0xE41 DUP2 PUSH2 0xE05 JUMP JUMPDEST SWAP1 POP SWAP2 SWAP1 POP JUMP JUMPDEST PUSH32 0x416C726561647920766F74656400000000000000000000000000000000000000 PUSH1 0x0 DUP3 ADD MSTORE POP JUMP JUMPDEST PUSH1 0x0 PUSH2 0xE7E PUSH1 0xD DUP4 PUSH2 0xBCF JUMP JUMPDEST SWAP2 POP PUSH2 0xE89 DUP3 PUSH2 0xE48 JUMP JUMPDEST PUSH1 0x20 DUP3 ADD SWAP1 POP SWAP2 SWAP1 POP JUMP JUMPDEST PUSH1 0x0 PUSH1 0x20 DUP3 ADD SWAP1 POP DUP2 DUP2 SUB PUSH1 0x0 DUP4 ADD MSTORE PUSH2 0xEAD DUP2 PUSH2 0xE71 JUMP JUMPDEST SWAP1 POP SWAP2 SWAP1 POP JUMP JUMPDEST PUSH32 0x507265666572656E636573206D75737420626520646966666572656E74000000 PUSH1 0x0 DUP3 ADD MSTORE POP JUMP JUMPDEST PUSH1 0x0 PUSH2 0xEEA PUSH1 0x1D DUP4 PUSH2 0xBCF JUMP JUMPDEST SWAP2 POP PUSH2 0xEF5 DUP3 PUSH2 0xEB4 JUMP JUMPDEST PUSH1 0x20 DUP3 ADD SWAP1 POP SWAP2 SWAP1 POP JUMP JUMPDEST PUSH1 0x0 PUSH1 0x20 DUP3 ADD SWAP1 POP DUP2 DUP2 SUB PUSH1 0x0 DUP4 ADD MSTORE PUSH2 0xF19 DUP2 PUSH2 0xEDD JUMP JUMPDEST SWAP1 POP SWAP2 SWAP1 POP JUMP JUMPDEST PUSH1 0x0 PUSH2 0xF2B DUP3 PUSH2 0x9BB JUMP JUMPDEST SWAP2 POP PUSH32 0xFFFFFFFFFFFFFFFFFFFFFFFFFFFFFFFFFFFFFFFFFFFFFFFFFFFFFFFFFFFFFFFF DUP3 SUB PUSH2 0xF5D JUMPI PUSH2 0xF5C PUSH2 0xD79 JUMP JUMPDEST JUMPDEST PUSH1 0x1 DUP3 ADD SWAP1 POP SWAP2 SWAP1 POP JUMP INVALID LOG2 PUSH5 0x6970667358 0x22 SLT KECCAK256 ADDRESS LOG3 CALL 0xC5 0xB1 0xE9 0xAF 0xF8 COINBASE 0xB7 PUSH29 0xD0E6F4F3C2F0B602E7FD45FD6A80C9DF5EC509A08564736F6C63430008 SLT STOP CALLER "
				},
				"gasEstimates": {
					"creation": {
						"codeDepositCost": "799600",
						"executionCost": "49414",
						"totalCost": "849014"
					},
					"external": {
						"chairperson()": "2537",
						"closeVoting()": "infinite",
						"vote(uint8,uint8)": "infinite",
						"voterAddresses(uint256)": "5000",
						"voters(address)": "infinite",
						"votes(uint256)": "infinite",
						"votingClosed()": "2522",
						"winningParty()": "6927"
					},
					"internal": {
						"redistributeThirdPartyVotes()": "infinite"
					}
				},
				"methodIdentifiers": {
					"chairperson()": "2e4176cf",
					"closeVoting()": "c631b292",
					"vote(uint8,uint8)": "df49c4de",
					"voterAddresses(uint256)": "dd0e2373",
					"voters(address)": "a3ec138d",
					"votes(uint256)": "5df81330",
					"votingClosed()": "2479ecb8",
					"winningParty()": "ae315fe4"
				}
			},
			"storageLayout": {
				"storage": [
					{
						"astId": 19,
						"contract": "contracts/votingSystem.sol:VotingSystem",
						"label": "voters",
						"offset": 0,
						"slot": "0",
						"type": "t_mapping(t_address,t_struct(Voter)14_storage)"
					},
					{
						"astId": 22,
						"contract": "contracts/votingSystem.sol:VotingSystem",
						"label": "voterAddresses",
						"offset": 0,
						"slot": "1",
						"type": "t_array(t_address)dyn_storage"
					},
					{
						"astId": 26,
						"contract": "contracts/votingSystem.sol:VotingSystem",
						"label": "votes",
						"offset": 0,
						"slot": "2",
						"type": "t_array(t_uint256)3_storage"
					},
					{
						"astId": 28,
						"contract": "contracts/votingSystem.sol:VotingSystem",
						"label": "chairperson",
						"offset": 0,
						"slot": "5",
						"type": "t_address"
					},
					{
						"astId": 31,
						"contract": "contracts/votingSystem.sol:VotingSystem",
						"label": "votingClosed",
						"offset": 20,
						"slot": "5",
						"type": "t_bool"
					}
				],
				"types": {
					"t_address": {
						"encoding": "inplace",
						"label": "address",
						"numberOfBytes": "20"
					},
					"t_array(t_address)dyn_storage": {
						"base": "t_address",
						"encoding": "dynamic_array",
						"label": "address[]",
						"numberOfBytes": "32"
					},
					"t_array(t_uint256)3_storage": {
						"base": "t_uint256",
						"encoding": "inplace",
						"label": "uint256[3]",
						"numberOfBytes": "96"
					},
					"t_bool": {
						"encoding": "inplace",
						"label": "bool",
						"numberOfBytes": "1"
					},
					"t_enum(Party)5": {
						"encoding": "inplace",
						"label": "enum VotingSystem.Party",
						"numberOfBytes": "1"
					},
					"t_mapping(t_address,t_struct(Voter)14_storage)": {
						"encoding": "mapping",
						"key": "t_address",
						"label": "mapping(address => struct VotingSystem.Voter)",
						"numberOfBytes": "32",
						"value": "t_struct(Voter)14_storage"
					},
					"t_struct(Voter)14_storage": {
						"encoding": "inplace",
						"label": "struct VotingSystem.Voter",
						"members": [
							{
								"astId": 7,
								"contract": "contracts/votingSystem.sol:VotingSystem",
								"label": "voted",
								"offset": 0,
								"slot": "0",
								"type": "t_bool"
							},
							{
								"astId": 10,
								"contract": "contracts/votingSystem.sol:VotingSystem",
								"label": "preference1",
								"offset": 1,
								"slot": "0",
								"type": "t_enum(Party)5"
							},
							{
								"astId": 13,
								"contract": "contracts/votingSystem.sol:VotingSystem",
								"label": "preference2",
								"offset": 2,
								"slot": "0",
								"type": "t_enum(Party)5"
							}
						],
						"numberOfBytes": "32"
					},
					"t_uint256": {
						"encoding": "inplace",
						"label": "uint256",
						"numberOfBytes": "32"
					}
				}
			},
			"userdoc": {
				"kind": "user",
				"methods": {},
				"version": 1
			}
		}
	}
}